:020000040800F2
:10000000D82400206D020008590200085B02000895
:100010005D0200085F0200086102000800000000A5
:100020000000000000000000000000006302000863
:10003000650200080000000067020008690200086D
:10004000870200088702000887020008870200086C
:10005000870200088702000887020008870200085C
:10006000870200088702000887020008870200084C
:10007000870200088702000887020008870200083C
:10008000870200088702000887020008870200082C
:100090008702000887020008870200080123000881
:1000A000870200088702000887020008870200080C
:1000B0003920000887020008D120000887020008C4
:1000C00087020008870200088702000887020008EC
:1000D00087020008F11C00085B1E00088702000868
:1000E000870200088702000887020008DFF80CD0AA
:1000F00002F052FF00480047D1190008D824002020
:100100000CB500224C4800920192016841F4803104
:1001100001604FF4A063016801F40031019100997E
:10012000491C0091019911B900999942F3D10168D4
:10013000890333D50121019140490A6842F0100238
:100140000A600A6822F003020A600A6842F00202AA
:100150000A604168416041684160416841F48061E2
:100160004160416821F47C114160416841F4E8112B
:100170004160016841F08071016001688901FCD52E
:10018000416821F003014160416841F00201416092
:100190004168C1F381010229FAD10CBD01920CBD65
:1001A000254810B5016841F0010101604168244A09
:1001B000114041600168234A11400160016821F447
:1001C00080210160416821F4FE0141604FF41F016C
:1001D0008160FFF795FF1C494FF00060086010BD7B
:1001E000154A10B55068194B10F00C01184803D08F
:1001F000042901D0082901D0036012E05168536836
:1002000001F470114FF0020413F4803F04EB9141AC
:1002100002D053689B0301D50E4B00E00B4B5943B2
:10022000016051680A4AC1F30311121D515C026852
:10023000CA40026010BD00000010024000200240D1
:100240000000FFF0FFFFF6FE08ED00E000127A006C
:100250000000002000093D007047FEE7FEE7FEE7D2
:10026000FEE77047704770477047000006488047B8
:1002700006480047FEE7FEE7FEE7FEE7FEE7FEE78B
:10028000FEE7FEE7FEE7FEE7A1010008ED0000083B
:100290002849084328490860704730B50F23C278C1
:1002A00001780125F2B1244A126801F1E02102F43B
:1002B000E062C2F5E062120AC2F10404D34042785F
:1002C000A24084781C401443220181F80024007865
:1002D00000F01F018D404009800000F1E020C0F8CF
:1002E000005130BD01F01F0085404809800000F139
:1002F000E020C0F8805130BD104A114001430E4843
:10030000001F016070470C4A121D0029116801D0BE
:10031000014300E08143116070474FF0E021042861
:10032000086903D020F004000861704740F0040021
:10033000FAE700000000FA050CED00E080FFFF1F67
:100340008F4910B5884206D10121042000F049FAF6
:10035000002104203BE08B49884206D1012108207E
:1003600000F03FFA0021082031E08749884206D199
:100370000121102000F035FA0021102027E08349E8
:10038000884206D10121202000F02BFA00212020F4
:100390001DE07F49884206D10121402000F021FA6A
:1003A0000021402013E07B49884206D101218020B2
:1003B00000F017FA0021802009E0774988420AD12D
:1003C00084150121204600F00CFA00212046BDE8EA
:1003D000104000F006BA10BD10B50121084600F02B
:1003E00000FA0021BDE81040012000F0FAB9F0B594
:1003F000CC78002204F00F03E40601D58C78234367
:100400000C784FF00F0C14F0FF0F4FF0010E1BD0C3
:1004100005680E880EFA02F42640A64210D1960016
:100420000CFA06F725EA070703FA06F5CE783D43EE
:10043000282E02D0482E02D002E0446100E0046180
:10044000521C082AE5D305600A88FF2A1CD9446893
:10045000002202F108060EFA06F50E882E40AE4282
:100460000ED196000CFA06F7BC4303FA06F7CE78D5
:100470003C43282E00D14561CE78482E00D105613D
:10048000521C082AE5D34460F0BD4FF6FF7101808D
:10049000022181700421C1707047024600209268D9
:1004A0000A4200D001207047806880B2704702463F
:1004B0000020D2680A4200D001207047C06880B294
:1004C000704701617047416170470AB1016170472F
:1004D00041617047C160704741F48032826181613F
:1004E00082618169806970472C4B10B51A684FF69C
:1004F0008074224042EA00100843186010BD284969
:10050000C8617047F0B5254C002801DAE36900E0C6
:100510006368450D2E0185B2C0F30157B540C0F3A5
:100520000342032F05D0C6020AD503269640B343E3
:1005300007E023F07062636823F07063636002E099
:10054000AB4343F0706201B12A43002801DAE26153
:10055000F0BD6260F0BD10B58A0721F003040F49B9
:10056000120F21440F238C6893409C438C608B684E
:10057000904003438B6010BD0949C1F8DC0070470F
:1005800000080140000C014000100140001401402F
:1005900000180140001C0140002001400000014003
:1005A00000002042A548016841F001010160416856
:1005B000A34A114041600168A24A114001600168EC
:1005C00021F480210160416821F4FE0141604FF473
:1005D0001F018160704799490A6822F480320A60DD
:1005E0000A6822F480220A60B0F5803F07D0B0F597
:1005F000802F03D1086840F4A02008607047086885
:1006000040F48030F9E70346002059098B4A01295C
:100610000AD002290AD0516A03F01F020123934035
:100620000B4200D0012070471168F5E7116AF3E72B
:1006300018B500204FF4A06400903120FFF7E3FFCD
:100640000099491C0091A14201D00028F5D0312029
:10065000FFF7D9FF002800D0012018BD774A1168A4
:1006600021F0F80141EAC000106070477649086047
:100670007047724B5A68084322F47C12104358604A
:1006800070477149086670476C4A516821F0030150
:100690000143516070476948406800F00C007047A2
:1006A000664A516821F0F001014351607047634A86
:1006B000516821F4E0610143516070475F4A51681D
:1006C00021F4605141EAC000506070475B4A002944
:1006D000517A01D0014300E08143517270475A4979
:1006E000C1F8D8007047554A516821F44041014390
:1006F000516070475149002281F8202081F8202064
:10070000012802D0042802D1052081F8200070477A
:100710004E490860704749490A6A02430A627047B5
:100720004A4944390860704730B5444A5168484BDB
:1007300011F00C0103D0042901D0082901D0036075
:1007400012E05168536801F470114FF0020413F481
:10075000803F04EB914102D053689B0301D53D4B90
:1007600000E03B4B5943016051680F2303EA11112C
:10077000394B5C5C0168E14041605468072505EA3B
:1007800014241C5D21FA04F48460546805EAD4241E
:100790001B5DD940C1605268032303EA92322E4B9D
:1007A0001B1F9A5CB1FBF2F1016130BD234A0029A5
:1007B000516901D0014300E08143516170471F4AF4
:1007C0000029916901D0014300E0814391617047A4
:1007D0001A4A0029D16901D0014300E08143D16167
:1007E0007047164A0029D16801D0014300E08143D7
:1007F000D1607047114A0029116901D0014300E01E
:1008000081431161704711494039086070470E49B2
:10081000C86470470949C87170470848416A41F087
:10082000807141627047054A0146002092680A4281
:1008300000D00120704701498872704700100240C3
:100840000000FFF8FFFFF6FE000042428004424233
:1008500000127A0000093D0018000020C44910B5BC
:1008600088420AD101218C032046FFF7BAFF2046B7
:10087000BDE810400021FFF7B4BFBE49884202D155
:1008800001214C0410E0BC49884202D101218C04B2
:100890000AE0BA49884202D10121CC0404E0B849F7
:1008A00088420AD101210C052046FFF7A3FF20460C
:1008B000BDE810400021FFF79DBF10BD30B50446D4
:1008C000008A85B00D464CF6FF710840E988014367
:1008D0002182A0894EF6F3110840A9882A89114384
:1008E0006A8902431143A181A08A4FF6FF41084063
:1008F000A9890143A1826846FFF716FF9C488442FC
:1009000001D1039800E00298A189090400EBC0011D
:1009100001EB0010296801D5490000E08900B0FB17
:10092000F1F06422B0FBF2F109010B096FF0180538
:100930006B4300EB8300A3891D044FF0320306D5FF
:1009400003EBC000B0FBF2F000F0070005E003EBA2
:100950000010B0FBF2F000F00F000843208105B05A
:1009600030BD4FF41651016000218180C1800181AA
:100970000C2242818181704710B5028A4FF2FF0339
:100980001A400B884C8823438C88C9880C43234326
:100990001343038210BD0021018041808180C1800A
:1009A00070470029818902D041F4005101E021F40F
:1009B00000518181704710B5C1F3421301F01F044B
:1009C0000121A140012B07D0022B07D01430002AAF
:1009D000026805D00A4304E00C30F8E71030F6E76F
:1009E0008A43026010BD002A828A01D00A4300E0D7
:1009F0008A4382827047028A22F00F020282028AB0
:100A00000A4302827047828922F4006282818289CD
:100A10000A43828170470029818902D041F0020196
:100A200001E021F0020181817047028A22F0200258
:100A30000282028A0A43028270470029018A02D098
:100A400041F4804101E021F4804101827047C1F30B
:100A50000801818070478088C0F308007047818951
:100A600041F0010181817047028BD2B20283028B77
:100A700042EA012101837047028B02F47F42028324
:100A8000028B0A43028370470029818A02D041F019
:100A9000200101E021F02001818270470029818A34
:100AA00002D041F0100101E021F010018182704775
:100AB0000029818A02D041F0080101E021F00801FB
:100AC000818270470029818902D041F4004101E010
:100AD000C1F30E01818170470029818A02D041F45F
:100AE000006101E021F4006181827047828A22F076
:100AF00004028282828A0A43828270470029818AA4
:100B000002D041F0020101E021F002018182704730
:100B10000246002012880A4200D001207047C943D3
:100B20000180704770B501F01F0501260024C1F354
:100B3000421306FA05F2012B0FD0022B0FD0838A45
:100B40004FEA11210088134206FA01F600EA060076
:100B500001D000B10124204670BD8389F0E7038AEB
:100B6000EEE70A0A01219140C94301807047000065
:100B7000003801400044004000480040004C004064
:100B800000500040374900200860091D0860091D19
:100B90000860091D08603349334814310860704704
:100BA00030B5304A8379016853B313688B431360BF
:100BB000111D0B680468A3430B60017911440B6895
:100BC000046823430B60274B083319680468A1436A
:100BD00019601C1D21680568A9432160417910290D
:100BE00005D011440A68006802430A6030BD1968E4
:100BF000026811431960216800680143216030BD1B
:100C00000079104402688A43026030BD002101600F
:100C100001710C22427181717047124910310A68CA
:100C200002430A60704701460E4A002014321268DF
:100C30000A4200D0012070470A4914310860704709
:100C4000084A014600201268064B0A4014331B680C
:100C50000B4202D0002A00D0012070470149143114
:100C60000860704700040140FFFF0F00994910B56C
:100C700088420AD1841401212046FFF7B2FD2046A4
:100C8000BDE810400021FFF7ACBD9349884202D176
:100C90000121041404E0914988420AD10121C413BE
:100CA0002046FFF7A7FD2046BDE810400021FFF7D2
:100CB000A1BD10BD30B502884C8802F441530A88AA
:100CC000CD8822438C882C4322430C8922434C89B3
:100CD00022438C892243CC8922431A430280828B8F
:100CE00022F400628283098A018230BDF0B5054694
:100CF0000C4602200021AA8B85B001264FF240034A
:100D00001A40AA832884AF8BA268022A21D0A08827
:100D100000B102266846FFF707FDE1880098B1F5AB
:100D2000007F2CD07101B0FBF1F000EB8000A168D6
:100D30004000B0FBF1F0401D80B20A21B0FBF1F0A1
:100D400000F00101401A4FF6FF72C0F34F0002EAB3
:100D50000121821EFE2A01D302200021E2880843DD
:100D600002432A8420886188A2890843A18811430C
:100D70000843384340F40060A88305B0F0BD000A82
:100D8000D3E70021018041808180C18001814181C0
:100D90008181C1810721018270470021018041804A
:100DA0008180C18002228260818170470029018890
:100DB00002D041F0400101E021F040010180704784
:100DC0000029818B02D041F4806101E021F480612F
:100DD00081837047090901238B40002A828899B2D8
:100DE00001D00A4300E08A4382807047002A82884B
:100DF00001D00A4300E08A438280704781817047B6
:100E000080897047A1F57E420188FF3A02D041F403
:100E1000807101E021F48071018070470029818890
:100E200002D041F0040101E021F00401818070470B
:100E3000028822F40062028002880A43028070471E
:100E4000018841F48051018070470029018802D057
:100E500041F4005101E021F4005101807047012963
:100E600001D0008B7047808A7047008A7047B1F5C7
:100E7000804F018803D021F480410180704741F404
:100E80008041FAE70246002012890A4200D0012080
:100E90007047C9430181704730B501F00F03012548
:100EA000024605FA03F40020A3B2090905FA01F489
:100EB0009188A4B2128921401A4202D0002900D0A0
:100EC000012030BD01F00F0201219140C943018191
:100ED000704700000030014000380040003C0040F6
:100EE000F94910B5884202D10121C41486E0B0F15D
:100EF000804F09D0F54988420DD101210220FFF72A
:100F000079FC0021022064E001210846FFF772FC11
:100F1000002101205DE0EE49884206D10121042034
:100F2000FFF768FC0021042053E0EA49884206D11B
:100F300001210820FFF75EFC0021082049E0E64976
:100F4000884206D101211020FFF754FC0021102017
:100F50003FE0E249884206D101212020FFF74AFC08
:100F60000021202035E0DE49884202D101214414CD
:100F700044E0DC49884202D10121CC043EE0DA4958
:100F8000884202D101210C0538E0D849884202D1BB
:100F900001214C0532E0D649884206D1012140208A
:100FA000FFF728FC0021402013E0D249884206D1F7
:100FB00001218020FFF71EFC0021802009E0CE499E
:100FC00088420AD1841501212046FFF713FC002135
:100FD0002046BDE81040FFF70DBCC849884202D149
:100FE00001210C040AE0C649884202D101214C04C7
:100FF00004E0C44988420AD101218C042046FFF74D
:10100000F0FB2046BDE810400021FFF7EABB10BD11
:1010100030B50288AC4CB24DA0420DD0A8420BD0E6
:10102000B0F1804F08D0A94B984205D0A84B984208
:1010300002D0A84B984203D122F070034A881A4389
:10104000A54B984206D0A54B984203D022F440739A
:10105000CA881A4302808A8882850A880285A0424B
:101060000AD0A84208D0A54A904205D0A44A90428E
:1010700002D0A44A904201D1097A018601218182DD
:1010800030BD30B5028C22F001020284028C8388CC
:10109000048B22F0020224F073050C882C430D8986
:1010A00015434A882A43884DA8420BD08C4DA8424C
:1010B00008D0924DA84205D0914DA84202D0914D42
:1010C000A8420DD122F008054A8923F440732A432F
:1010D00022F004058A882A438D891D43CB892B433E
:1010E00083800483C9888186028430BD70B5028CF8
:1010F00022F010020284028C8388048B0D8824F471
:10110000E6464FF6FF7404EA052535430E8922F0C2
:10111000200204EA061616434A8804EA0212324301
:10112000694EB04202D06E4EB04215D122F0800618
:101130004A8923F4406304EA0212324322F0400653
:101140008A8804EA021232438E8904EA86061E4324
:10115000CB8904EA8303334383800583C9880187ED
:10116000028470BD70B5028C22F480720284028CFD
:101170008388848B0D8824F0730425430E894FF6F1
:10118000FF7422F4007204EA062616434A8804EA31
:10119000022232434C4EB04202D0514EB04215D1E1
:1011A00022F400664A8923F4405304EA02223243BF
:1011B00022F480668A8804EA022232438E8904EA95
:1011C00006161E43CB8904EA0313334383808583C9
:1011D000C9888187028470BD70B5028C22F4805268
:1011E0000284058C8288838B0C8823F4E6464FF6B4
:1011F000FF7303EA0424344325F400560D8903EAFF
:10120000053535434E8803EA06362E432E4DA84257
:1012100002D0334DA84205D122F480458A8903EAE1
:1012200082122A4382808483C988A0F840100684F1
:1012300070BD828B22F440628283828B4FF6FF73F3
:1012400003EA01210A4382837047828B22F00C0259
:101250008283828B0A4382837047028B22F440622E
:101260000283028B4FF6FF7303EA01210A430283D4
:101270007047F0B5048C24F010040484078B048CB0
:101280004FF6FF7527F4734705EA03333B4305EA3E
:1012900002221A430C4B05EA011698420ED0104B5D
:1012A00098420BD0B0F1804F08D0084B984205D03F
:1012B000074B984202D0074B984225D124F02001D9
:1012C000314341F0100124E0002C014000040040B3
:1012D00000080040000C00400010004000140040D6
:1012E00000340140004C01400050014000540140D6
:1012F00000180040001C0040002000400040014059
:10130000004401400048014024F0A0030B4343F097
:10131000100102830184F0BD028B22F00C020283D3
:10132000028B0A430283704770B5048C24F00104D9
:101330000484058B048C4FF6FF7606EA03131343EF
:1013400025F0F305F84A2B4390420ED0F74A90421D
:101350000BD0B0F1804F08D0F54A904205D0F54A45
:10136000904202D0F44A904202D124F0020201E0FD
:1013700024F00A020A4342F001010383018470BD94
:101380002DE9F84F0D4604460888E74FDFF89CC367
:10139000DFF89C83DFF89C934988AA882B894FF05B
:1013A000804A48B304282FD04FF6FF76082893468A
:1013B00032D0208C9E4620F480502084A38B208C39
:1013C00006EA0132009223F4734306EA0B221A4321
:1013D00006EA0E331343BC420AD0644508D0544594
:1013E00006D0444504D04C4502D0D34A944242D161
:1013F00020F40050009940E02046FFF795FFE9886F
:101400002046BDE8F84F87E72046FFF732FFE9881E
:101410002046BDE8F84F20E7208C20F4807020841F
:10142000B4F81CE0208C06EA031306EA01222EF031
:10143000F30E43EA0B0343EA0E030092BC420AD0C8
:10144000644508D0544506D0444504D04C4502D0EC
:10145000B94A944203D120F40070009901E020F4CD
:101460002060084340F48070A3832084E9882046EC
:10147000BDE8F84FE9E620F40240084340F480500C
:10148000A3832084E9882046BDE8F84FD1E62DE902
:10149000F0410C46002649880746012501B902267D
:1014A000A288012A00D102252088238900283846F5
:1014B00010D0FFF7DEFEE1883846FFF7CEFE238925
:1014C0002A4631463846FFF72FFFE1883846BDE807
:1014D000F04121E7FFF728FFE1883846FFF71CFFBE
:1014E00023892A4631463846FFF7C3FEE18838464D
:1014F000BDE8F041B1E610B50A884B88CC881A43A4
:101500008B8823431A430B891A434B8989891A43D1
:101510000A43A0F8442010BD4FF6FF7181800021DE
:101520000180C180418001727047002101804180AB
:101530008180C180018141818181C1817047002109
:101540000180418001228280C18001817047002199
:10155000018041808180C18001814181818170470A
:101560000029018802D041F0010101E021F00101D0
:1015700001807047002930F8441F02D041F4004137
:1015800001E0C1F30E0101807047002A828901D079
:101590000A4300E08A438281704781827047114389
:1015A000A0F848107047002A828901D00A4300E061
:1015B0008A4382817047018921F0070101817047C8
:1015C000028922F070020A430281704700B5034687
:1015D000FFF7F6FF188940F00700188100BD70B5CD
:1015E00016460D46602904464FF0010231460AD0E6
:1015F000FFF79AFE29462046FFF7E2FF208940F0D8
:101600000700208170BDFFF734FEF3E730B5048991
:101610004FF6FF7505EA03231343E4B20B4323435C
:10162000038130BD10B50446FFF7F0FF208940F07C
:101630007700208110BD10B50446FFF7E7FF208931
:1016400040F48040208110BD01858282704702886D
:1016500022F070020A430280704770B50589048B3E
:10166000068C25F007050D434FF6FC410C4040F277
:1016700001110C434FF6FF7101EA031126F0220617
:101680001143314305810483018470BD028B22F034
:1016900070020A4302837047028B4FF6FF7322F4F5
:1016A000E04203EA0121114301837047828B22F05B
:1016B00070020A4382837047828B4FF6FF7322F4D5
:1016C000E04203EA01211143818370470029018828
:1016D00002D041F0800101E021F0800101807047DB
:1016E0000029818802D041F0040101E021F00401C9
:1016F000818070470029818802D041F0080101E013
:1017000021F00801818070470029818802D041F0D2
:10171000010101E021F0010181807047028B22F07C
:1017200008020A4302837047002C01400034014044
:101730000004004000080040000C0040028B4FF6FF
:10174000FF7322F4006203EA012111430183EAE7F7
:10175000828B22F008020A438283E4E7828B4FF6F1
:10176000FF7322F4006203EA012111438183DAE767
:10177000028B22F004020A430283D4E7028B4FF665
:10178000FF7322F4806203EA012111430183CAE757
:10179000828B22F004020A438283C4E7828B4FF6D5
:1017A000FF7322F4806203EA012111438183BAE7C7
:1017B000028B22F080020A430283B4E7028B4FF6C9
:1017C000FF73C2F30E0203EA012111430183AAE76A
:1017D000828B22F080020A438283A4E7828B4FF639
:1017E000FF73C2F30E0203EA0121114381839AE7DA
:1017F000028C22F002020A43028494E7028C22F057
:1018000008020A4302848EE7028C4FF6FF7322F02F
:10181000200203EA01111143018484E7028C4FF690
:10182000FF7322F0800203EA0111114301847AE779
:10183000028C4FF6FF7322F4007203EA0121114378
:10184000018470E7028C4FF6FF7322F4006203EA12
:1018500001211143018466E7028C4FF6FF7322F4E5
:10186000005203EA0131114301845CE710B5012302
:10187000048C8B409C430484038C8A401343038470
:1018800010BD10B50423048C8B409C430484038C4E
:101890008A401343038410BD30B50124058C00F148
:1018A00018038C40A543058489B108290FD0091F6E
:1018B000C1F34E001844016821F4E0410160016861
:1018C0004FF6FF7303EA02221143016030BD03EBC0
:1018D0005100016821F0700101600168F4E70029FE
:1018E000018802D041F0020101E021F002010180F3
:1018F00019E70029018802D041F0040101E021F03C
:10190000040101800FE70029818802D041F08001A5
:1019100001E021F08001818005E7028822F00802C1
:10192000028002880A430280FDE6828822F070026B
:10193000828082880A438280F5E6028922F00702CB
:10194000028102890A430281EDE6028922F08002C7
:10195000028102890A430281E5E68184E3E681850A
:10196000E1E68186DFE60187DDE68187DBE6A0F838
:101970004010D8E6028822F44072028002880A43AE
:101980000280D0E6808ECEE6008FCCE6808FCAE65D
:10199000B0F84000C7E6808CC5E6008DC3E602467D
:1019A0000020128A0A4200D00120BCE6C94301820D
:1019B000B9E602460020138A92890B4202EA01022C
:1019C00002D0002A00D00120ADE6C9430182AAE678
:1019D000FEF7E6FB00F0CEF8642000F0F9F84FF4D3
:1019E000E13000F035F94D4E012280213046FEF7FE
:1019F000FAFF00F08DFB00F021FC494C13E049A0F8
:101A000001F0FEFA012000F0FAF8D4F88401002871
:101A10007ED00020C4F88401D4F8880100287BD04F
:101A20000020C4F88801002000F07BFD0028E6D1EA
:101A300042A001F0E5FA012000F0E1F80120C4F82D
:101A40008401C4F888014FF4E15142F2107000F0B3
:101A5000BBFA3F48016841F4807101603D49A1F53E
:101A60007A6000F0EAFD3C4A3C48111F00F0BCFDE2
:101A7000394F3B4D0A3F28780028FCD03948C178BF
:101A80000279090441EA0221427911438279C3793A
:101A90001204007A42EA03240443084600F0CAFD17
:101AA000204600F0C7FD01F083F82B4C0C3CA168E8
:101AB00000F02DFFE16800F0D2FE20612188491C72
:101AC000218001F07AF8014627A001F099FA3978CF
:101AD0003046FEF7BCFF40213046FFF719F80128D9
:101AE000F9D179783046FEF7B2FF40213046FFF752
:101AF0000FF80128F9D1B9783046FEF7A8FF402148
:101B00003046FFF705F80128F9D100202870B2E728
:101B100000E001E001207DE7012082E7003801407C
:101B20000080214231323932BCC4B4E6C6F7C9E87C
:101B3000D6C3CAA7B0DC0D0A00000000BCC4B4E6DE
:101B4000C6F7C9E8D6C3B3C9B9A60D0A000000009C
:101B500000040140241000203400002084000020F4
:101B600045000020CD22002061646420332C302CFD
:101B70002564000010B56FF00400FEF7CEFB31487D
:101B800031490068B0FBF1F03049C0B200EB4002CF
:101B90000870C2EBC0104FF6FF7202EAC000488026
:101BA00010BD2A49097848434FF0E02148610023DD
:101BB0008B61086940F0010008610869C20701D023
:101BC000C003FAD5086920F0010008618B617047F5
:101BD0001E49498848434FF0E021486100238B614A
:101BE000086940F0010008610869C20701D0C0031C
:101BF000FAD5086920F0010008618B61704710B5C3
:101C00000446642044432046FFF7E2FF2046FFF7E6
:101C1000DFFF2046FFF7DCFF2046FFF7D9FF204615
:101C2000FFF7D6FF2046FFF7D3FF2046FFF7D0FF90
:101C30002046FFF7CDFF2046FFF7CAFF2046BDE84C
:101C40001040C5E70000002000127A003C00002090
:101C500030B5044687B0012144F20400FEF7AFFD21
:101C60004FF40070ADF8100003208DF8120018201A
:101C70009C4D8DF8130004A92846FEF7B8FB2815E3
:101C8000ADF8100004208DF8130004A92846FEF7D3
:101C9000AEFB4FF4A060FEF7FBFA25208DF8140090
:101CA00001218DF815108DF816108DF8171005A864
:101CB000FEF7F3FA0020ADF804000094ADF806003A
:101CC000ADF80800ADF80C000C20874CADF80A0008
:101CD00069462046FEF7F2FD002240F225512046DB
:101CE000FEF769FE01212046FEF75BFE07B030BD1E
:101CF00070B57D4C40F225512046FEF713FF0028B9
:101D00001CD02046FEF7A7FE784AC1B21088030413
:101D100014D444044FF0000304D50A290DD140F433
:101D200000400EE00D290AD0C0F30D04704D401C98
:101D300080B229551080FE2800D9138070BD40F470
:101D40008040108070BD70B5054686B0012104202A
:101D5000FEF735FD01214804FEF73AFD0424ADF8F5
:101D6000104003208DF8120018205E4E8DF81300ED
:101D700004A93046FEF73BFB0820ADF810008DF8B3
:101D8000134004A93046FEF732FB4FF4A060FEF783
:101D90007FFA26208DF8140000248DF815400120CC
:101DA0008DF816008DF8170005A8FEF776FAADF845
:101DB0000440ADF80640ADF80840ADF80C400C20EA
:101DC0004C4CADF80A00009569462046FEF776FDBA
:101DD000002240F225512046FEF7EDFD012120466C
:101DE000FEF7DFFD06B070BD2DE9F04115460E4649
:101DF000074600240BE040213846FEF789FE012803
:101E0000F9D1315D3846FEF722FE641CE4B2AC42E3
:101E1000F1D3BDE8F0810FB437482DE9F04107AAAE
:101E2000069901F0FDF8344800F012FD85B2002457
:101E3000304E314F0BE040213046FEF769FE00285E
:101E4000F9D0395D3046FEF702FE641CA4B2AC4204
:101E5000F1D3BDE8F0015DF814FB70B5254C40F2FC
:101E600025512046FEF75EFE00281DD02046FEF7D5
:101E7000F2FD1E4AC1B25088030415D444044FF049
:101E8000000304D50A290ED140F400400FE00D29CB
:101E90000BD0C0F30D04164D401CFF3580B2295500
:101EA0005080FE2800D9538070BD40F4804050809F
:101EB00070BD70B50C4D0446C1B22846FEF7C7FD93
:101EC00040212846FEF724FE0028F9D0204670BDA8
:101ED000054801888906FCD50348001D0088C0F329
:101EE0000800704700080140003801404000002011
:101EF000C41F002000440040C221002010B586B05D
:101F000001210820FEF75BFC01218803FEF760FC3D
:101F10004FF46040ADF8140018208DF8170003202E
:101F20008DF8160005A92648FEF761FA0020ADF8E5
:101F300000004FF48271ADF80210ADF804000121E9
:101F4000ADF80C00ADF80600ADF80810ADF80E00C5
:101F5000490207201B4CADF80A10ADF81000694685
:101F60002046FEF7A7FE01212046FEF71FFF06B020
:101F700010BD70B506460024124D03E0641CE4B2A7
:101F8000C82C0FD802212846FEF77CFF0028F5D088
:101F900031462846FEF732FF002405E0641CE4B217
:101FA000C82C01D9002070BD01212846FEF76AFF28
:101FB0000028F3D02846FEF723FFC0B270BD000012
:101FC000000C0140003800407FB50C460546012159
:101FD0000846FEF7FDFB641E6D1EADF800400020B4
:101FE000ADF80450ADF80600ADF802004FF08044A3
:101FF00069462046FFF70CF84FF4A060FEF748F959
:102000001C218DF80C1002208DF80D0001218DF897
:102010000E108DF80F1003A8FEF73FF9012120469E
:10202000FFF7D3FC012211462046FFF7AEFA01214B
:102030002046FFF795FA7FBD10B501218C07204699
:10204000FFF7B7FC00280AD001212046FFF7BDFCAE
:102050002C49D1F8840118B10020C1F8840110BDC9
:102060000120FAE77FB50C46054601210420FEF762
:10207000AFFB641E6D1EADF800400020ADF80450AB
:10208000214CADF80600ADF8020069462046FEF787
:10209000BFFF4FF4A060FEF7FBF81E208DF80C0088
:1020A00001218DF80D108DF80E108DF80F1003A87A
:1020B000FEF7F3F801212046FFF787FC01221146C5
:1020C0002046FFF762FA01212046FFF749FA7FBD5B
:1020D00010B50D4C01212046FFF76BFC002810D0F5
:1020E00001212046FFF771FC0849086840F400729E
:1020F0000A6000212046FFF733FA0349002024310B
:10210000088010BD0080214200080040000401400A
:1021100008B501210820FEF752FB0620ADF80000AB
:1021200010208DF8030002208DF802006946054852
:10213000FEF75DF904480021C0F88411C0F8881149
:1021400008BD0000000C014000802142FFF711BFD4
:102150002DE9F041F94F0546002014460E46C7F818
:10216000B0016420FFF71DFD2846FFF702FF642041
:10217000FFF717FD701EC0B2FFF7FBFE68064FF0B9
:10218000000509D415E06420FFF70BFD2078FFF768
:10219000F0FE6D1CEDB2641CB542F4D30BE064207C
:1021A000FFF7FFFC0020FFF7D1FF6D1C04F8010BC7
:1021B000EDB2B542F3D36420FFF7F3FC0120C7F87A
:1021C000B001BDE8F08170B5DC4D00210446C5F8D2
:1021D000B011642005F5D875FFF7E3FC2046FFF742
:1021E000C8FE6420FFF7DDFC0120286070BD3EB50D
:1021F0001120FFF7E8FF6420FFF7EAFC0620FFF755
:10220000E2FF0120FFF7FBFC1120FFF7DCFF642059
:10221000FFF7DEFC6A460C212020FFF799FFC8A0DB
:1022200000F0EEFE00246D4621462A5DC9A000F0B4
:10223000E7FE641CE4B20C2CF6D33EBD7FB5012151
:102240000D20FEF7BCFAFFF759FE4FF48075ADF88C
:10225000005048208DF803006946C048FEF7C7F8D3
:102260002801ADF8000001248DF8024010218DF8FE
:1022700003106946BA48FEF7BAF82846FEF7EEFCA6
:1022800008210020FEF767F900208DF808000C20D7
:102290008DF8090001958DF80A4001A8FEF780FC31
:1022A0004FF4A060FDF7F4FF17208DF80C008DF8B7
:1022B0000D408DF80E408DF80F4003A8FDF7EDFF9F
:1022C000A848016821F4807101609C48C0F8B041C1
:1022D000FFF78DFF7FBD70B5984E05460020C6F80C
:1022E000B00104460020FFF731FF641CE4B205F89A
:1022F000010B092CF6D30120C6F8B001002070BDF7
:10230000984810B50068C0050ED59748D0F8200150
:10231000002809D14FF48070FEF7A0FC9348FFF726
:10232000DAFF93490120487010BD904810B50C3871
:102330008F4A73210170127842708D4A0021283231
:102340001378547841EA831343EA4413947843EAB8
:102350000413D478127943EAC40343EA420242F0F8
:10236000810282701022C270814A921C13785478C4
:1023700041EAC313927843EA041313437C4A03717E
:10238000521D1378547841EAC313927843EA041338
:102390001343774A43712D321378547841EA43133B
:1023A00043EA0413947843EAC403D47843EA8403E9
:1023B0001479527943EA4403134343F0C002827113
:1023C0006B4A33321378547841EA431343EA0413D7
:1023D000947843EAC403D47843EA840314795279A5
:1023E00043EA44031343C3710172614A0B32137809
:1023F000547841EAC31343EA84139478D27843EAC9
:102400008403134343F002024272594A083213789C
:1024100041EAC3115378927841EA830141EA4201CB
:1024200041F0010181720C21C17210BDFEB5002581
:10243000FFF77BFF4D4E0B210C3E721C4120FFF736
:1024400087FE0A20FFF7C4FB6A460C212020FFF715
:102450007FFE0A20FFF7BCFB46A000F0D1FD002460
:102460002146325D3BA000F0CBFD641CE4B20C2C95
:10247000F6D344A000F0C4FD00246F46305D3A5D01
:10248000904205D044B1082C06D00B2C04D0012575
:10249000214630A000F0B4FD641CE4B20C2CEDD356
:1024A00025B13BA000F0ACFD2846FEBD3CA0F9E7FD
:1024B0002F4910B528310120087126390520887070
:1024C000C91C00248870FFF7B1FF00B101240A2065
:1024D000FFF77EFB204610BD254910B528310024AA
:1024E0000C71263901208870C91C8870FFF79EFF87
:1024F00000B101240A20FFF76BFB204610BD1C48E9
:1025000010B528300024047126388470C01C8470F3
:10251000FFF78CFF00B101240A20FFF759FB20468A
:1025200010BD70B504460A20FFF752FB24B1012C00
:1025300043D0022C44D146E03CE000000080214220
:10254000726561642064656661756C7420524547EC
:102550003A0D0A0025642025780D0A000008014084
:10256000000C01400004014000002142CD22002067
:10257000440000205752495445205245473A0D0A1D
:102580000000000052454144205245473A0D0A00E0
:10259000524547207772697465206572720D0A0092
:1025A000524547207772697465207375636365735C
:1025B000730D0A00FFF7A3FF01E0FFF779FF05465F
:1025C00025B1012070BDFFF787FFF8E71020FFF766
:1025D000FAFD0A20FFF7FCFA0820FFF7F4FD0A20B5
:1025E000FFF7F6FA002070BD2DE9F0412C4B15469F
:1025F0000E464FF47A7704461A1F394600F058F811
:10260000274B394608331A1F204600F0B9F8244CEE
:102610001C3C216AA06900F074F90146214800F0D1
:10262000A8F93060A16900F072F91F4900F06CF957
:102630002860C6E50002001270472DE9F047184DEA
:10264000884681461C3D4FF47A7A24E0687810B3BE
:102650001648C1780279090441EA022142791143FE
:102660008279C3791204007A42EA032202431002FB
:10267000090200120E1200F09BFA6C6949F824005E
:10268000304600F095FA48F824000020641C7F1CB6
:10269000C5E9047468702F695745D7DBBDE8F0873A
:1026A000600000200000344300005C43CD22002085
:1026B0002DE9FF4F041D056881B00027481E8B4699
:1026C0003E4600905FEA900828D000BF54F8049B73
:1026D000284654F804AB494600F088FA3CBF4D4602
:1026E0007E1C54F8049B5146284600F07FFA3CBFFC
:1026F0005546BE1C54F804AB4946284600F076FA0D
:102700003CBF4D46FE1C5146284600F06FFA3CBFC8
:1027100055463E1D3F1DB8F10108D7D1009800F085
:102720000307B7F1004F0CD354F8048B28464146F9
:1027300000F05CFA3CBF4546ABEB07067F1EF3D1C9
:1027400017E0381EC4BF4FF00008814611DD00BFFE
:1027500054F804AB2846514600F048FA04D2A7EBDF
:1027600008005546ABEB000608F10108B9F1010974
:10277000EED1039805600498066005B0BDE8F08FBF
:102780002DE9FF4F041D056881B00027481E8B46C8
:102790003E4600905FEA900828D000BF54F8049BA2
:1027A000284654F804AB494600F02AFA3CBF4D468F
:1027B0007E1C54F8049B5146284600F021FA3CBF89
:1027C0005546BE1C54F804AB4946284600F018FA9A
:1027D0003CBF4D46FE1C5146284600F011FA3CBF56
:1027E00055463E1D3F1DB8F10108D7D1009800F0B5
:1027F0000307B7F1004F0CD354F8048B2846414629
:1028000000F0FEF93CBF4546ABEB07067F1EF3D157
:1028100017E0381EC4BF4FF00008814611DD00BF2D
:1028200054F804AB2846514600F0EAF904D2A7EB6D
:1028300008005546ABEB000608F10108B9F10109A3
:10284000EED1039805600498066005B0BDE8F08FEE
:10285000421C10F8011B0029FBD1801A7047F0B40C
:1028600080EA0102D40F4200B2EB410F02D20246CD
:10287000084611464A0042D0C30DDDB2C1F3C7522B
:10288000AD1A202D35DAC1F3160141F4000204B16E
:102890005242C5F1200602FA06F12A411044B3EB78
:1028A000D05F23D0C4B1012DA0EBC35009DCF0BC34
:1028B0004FF0004202EAC352DBB200F5000000F024
:1028C00009BA400000F1807000EBC350A0F18070A5
:1028D00040EAD170490009E0490841EAC071A0EB23
:1028E000C35000F50000400800EBC350F0BC00F0FE
:1028F000E8B96142012202EB4101001BF6E7F0BC9E
:10290000704781F00041AAE780F00040A7E780EA25
:10291000010210B502F00043400022D04A001FD04F
:10292000010E01EB1261C0F35600C2F3560240F4EF
:10293000000042F40002A0FB022000047F391404CE
:1029400000D0401C50EA124001D44000491EC2B2DF
:102950000C0604EBD010401C4008802A02D003E093
:10296000002010BD20F00100002900DA00201843EB
:1029700010BD30B480EA010202F0004530F00042A0
:1029800021F0004013D090B1C30DD40DC2F3160155
:10299000C0F31600E41A41F4000140F400027D3453
:1029A000914201D3641C00E04900002C02DA30BCE3
:1029B000002070474FF400000023914201D3891A90
:1029C000034340084FEA4101F7D151B1914202D18E
:1029D0004FF0004105E002D24FF0010101E06FF03D
:1029E000010103EBC450284430BC00F06AB92DE962
:1029F000FE4F81EA030404F0004421F000410094FA
:102A00004FF0000B23F0004350EA01045ED052EA7D
:102A100003045BD0C3F30A54C1F30A552C44A4F257
:102A2000F3340194A0FB0254C1F3130141F480116B
:102A3000C3F3130343F4801301FB024400FB034E72
:102A4000840A970A44EA815447EA8357A4FB07683B
:102A500002958D0A05FB07854FEA932C04FB0C5465
:102A60002705029D4FEA065847EA1637B5EB0805D9
:102A70006EEB070C870E920E47EA811742EA83122B
:102A8000A7FB0201B6EB0B0164EB00042B0D43EA3C
:102A90000C335E1844EB1C50DA465146E7FB02014A
:102AA000C5F313044FEA0B3343EA14534FEA0432DD
:102AB000019C43EA0603A4F10C040294009CCDE9B6
:102AC00000B400F044F903B0BDE8F08F00200146E7
:102AD000F9E72DE9F04D81EA030404F0004B21F001
:102AE000004514464FF0000A23F0004150EA050269
:102AF00020D054EA01021DD0C5F30A570246C5F39F
:102B00001303C1F31300C1F30A5640F4801543F4D4
:102B10008013A7EB0608101BD64608F2FD3873EBAE
:102B2000050002D308F1010801E092185B41B8F1F9
:102B3000000F03DA00200146BDE8F08D00204FF4BD
:102B40008011064684460EE0171B73EB050705D37C
:102B5000121B63EB050306434CEA010C49084FEADC
:102B6000300092185B4150EA0107EDD152EA0300B0
:102B700012D082EA040083EA0501084305D0101B45
:102B8000AB4106D20122002306E000224FF00043B1
:102B900002E06FF0010253101AEB06004CEB0851F3
:102BA00010EB0A0041EB0B01BDE8F04D00F0C0B89E
:102BB00096230022114600F08DB800F0004220F06C
:102BC0000040C10DC0F3160040F400007F2901DA77
:102BD00000207047962903DCC1F19601C84001E04E
:102BE00096398840002AF4D040427047002801DB23
:102BF000C0F10040002901DBC1F100418142704772
:102C0000002801DBC0F10040002901DBC1F10041D7
:102C10008842704730B50B4601460020202201242F
:102C200009E021FA02F59D4205D303FA02F5491B9A
:102C300004FA02F52844151EA2F10102F1DC30BDB0
:102C40002DE9F05F0546002092469B4688460646E1
:102C5000814640241BE0284641464746224600F074
:102C600020F853465A46C01A914110D311461846CF
:102C7000224600F0A3F92D1A67EB01084F462246C1
:102C80000120002100F09AF917EB00094E41201EA7
:102C9000A4F10104DFDC484631462A464346BDE83C
:102CA000F09F202A04DB203A21FA02F0002170472D
:102CB00021FA02F3D040C2F12002914008431946A4
:102CC00070470029A8BF7047401C490008BF20F08A
:102CD0000100704710B4B0FA80FC00FA0CF050EA22
:102CE000010404BF10BC704749B1CCF1200421FAA3
:102CF00004F411FA0CF118BF012121430843A3EB9E
:102D00000C01CB1D4FEA00614FEA102042BF0020AA
:102D100010BC704700EBC35010440029A4BF10BC86
:102D20007047401C490008BF20F0010010BC7047EC
:102D300010B5141E73F1000408DA401C41F10001C3
:102D400092185B411A4301D120F0010010BD2DE91A
:102D5000F04D92469B4611B1B1FA81F202E0B0FA11
:102D600080F22032904600F029F904460F4640EAEE
:102D70000A0041EA0B0153465A46084313D0114654
:102D800053EA010019D0C8F140025046FFF789FF0D
:102D900005460E4650465946424600F00FF9084394
:102DA00005D0012004E020463946BDE8F08D002022
:102DB000054346EAE0762C4337430A986305E40A64
:102DC000A0EB08000022FD0A44EA47540A3002D56D
:102DD00000200146E9E7010510196941DDE90845D0
:102DE00000196941BDE8F04DA2E72DE9FE4F80468C
:102DF00081EA0300C00F0C46009021F0004123F04F
:102E00000045B8EB0200A94105D240462146904654
:102E10001C460B46024623F00040104347D0270DC6
:102E2000C7F30A00C3F30A510290401A01904028E8
:102E30006BDAC3F3130040F4801B0098924620B174
:102E40000023D2EB030A63EB0B0B01985946C0F148
:102E50004002504600F0B2F806460D46504659462C
:102E6000019A00F0BAF810EB08006141002487EAEB
:102E7000115284EAE7731A4340D0009A62B3019A70
:102E8000012A4FEA075215DC001B61EB02014FF0EB
:102E9000004202EA0752CDE90042001C41F58011D0
:102EA00032462B46FFF753FF03B0BDE8F08F404694
:102EB0002146F9E7001B61EB0201001C41F580137C
:102EC00000185B412018A2F5001747EB030140EA08
:102ED000D570B6196D4111E06D084FEA360645EA26
:102EE000C0754FEA0752001B61EB0201001C41F55F
:102EF000801149084FEA30000019514132462B46F3
:102F000003B0BDE8F04FFFF713BF00980122400067
:102F10000023D0EB020263EBE073009821464FEAF6
:102F2000E074B8EB000061EB0401E9E783F00043D3
:102F30005BE781F0004158E7C1F30A52C1F3130186
:102F400040F2FF3341F480119A4202DA0020014638
:102F5000704740F233439A42A2F2334202DC5242BB
:102F6000FFF79FBE00F02AB830B5041E71F10004CF
:102F700004DB4FF00044404264EB0101141E73F186
:102F8000000405DB1C464FF00043524263EB040390
:102F9000994208BF904230BD064C074D06E0E068FC
:102FA00040F0010394E8070098471034AC42F6D390
:102FB000FDF7A0F82039000840390008202A04DB7A
:102FC000203A00FA02F1002070479140C2F120033C
:102FD00020FA03F3194390407047202A06DBCB17F1
:102FE000203A41FA02F043EAE07306E041FA02F3C4
:102FF000D040C2F1200291400843194670470000BA
:103000000FB4054B10B503A9044A029800F0ECF880
:1030100010BC5DF814FB0000B31E00088000002007
:1030200037B514460846064B6A46214600F0DCF8E0
:1030300004466946002000F06EFC20463EBD0000BC
:103040001739000802E008C8121F08C1002AFAD187
:1030500070477047002001E001C1121F002AFBD118
:10306000704700002DE9FF5F82B00021DDE90430E8
:10307000020DDDF840B0034318D044F61050A2F220
:10308000FF3242431514119801281FD0A5EB0B0005
:10309000401C5FEA000A4FF000064E4FDFF83891FF
:1030A000B046504615D5CAF1000413E0119801242A
:1030B0004AA3012801D16FEA0B010298119AC0E9D5
:1030C0000031C0E9024206B0BDE8F09FCBF100003C
:1030D000DFE704460021404A491842EB0450CDE99D
:1030E000001012E0E00707D032463B464046494612
:1030F000FFF77DFC8046894632463B46104619461E
:10310000FFF775FC06460F466410002CEAD1DDE996
:103110000401DDE90023BAF1000F06DAFFF767FCCE
:1031200042464B46FFF763FC05E0FFF7D2FC424600
:103130004B46FFF7CEFC04460E460022284BFFF715
:1031400013FF03D84FF0FF30014607E00022254B64
:1031500020463146FFF749FEFFF7EEFE102409E056
:10316000002C0ADB0A220023FFF76AFD039B3032A2
:103170001A55641E50EA0102F2D1641C039AC4F18C
:1031800011031444119A012A03D0012208430DD1DE
:103190000AE0084304D000204FF0110B119072E7B1
:1031A000A3EB0B056D1E0DE05B4504DD4FF0000247
:1031B00005F1010504E003DA4FF00002A5F1010575
:1031C000002AECD002981199C0E90231C0E900450B
:1031D00079E70000000014400000F03F30000000DC
:1031E0000000F0430000E03F2DE9FF4F95B09B4603
:1031F0008946064600250FE2252877D10024274678
:10320000F84A0121059400E0044316F8013F203BF1
:1032100001FA03F01042F7D130782A2811D06FF06C
:103220002F033078A0F13002092A16D8059A44F00D
:10323000020402EB820203EB42021044761C05906A
:10324000EFE759F8042B0592002A03DA504244F4C0
:103250000054059044F00204761C30782E2816D1D4
:1032600016F8010F44F004042A280DD06FF02F0245
:103270003078A0F13003092B09D807EB870302EB64
:103280004303C718761CF3E759F8047B761C3078A3
:103290006C280FD006DC4C2817D068280DD06A287F
:1032A00014D104E0742810D07A280FD10DE044F432
:1032B00000140AE044F4801401E044F440147278ED
:1032C000824202D104F58014761C761C3078662880
:1032D0000BD013DC582877D009DC002875D045289E
:1032E000F6D04628F4D047281AD19DE118E063288B
:1032F00035D0642879D0652812D195E1702873D033
:1033000008DC6728F1D069286FD06E280DD06F28AF
:1033100006D1B5E073282CD0752875D0782874D0E4
:103320005A46179990476D1C75E1C4F30250022864
:1033300009D003280DD0D9F8001004280DD00D6055
:1033400009F1040967E1D9F80010EA17C1E9005250
:10335000F6E7D9F800100D80F2E70D70F0E719F8E4
:10336000041B8DF8001000208DF80100EA460120B2
:1033700003E059F804AB4FF0FF3061074FF0000154
:1033800002D40DE008F101018846B9420FDA804508
:10339000F8DB1AF808100029F4D108E008F101015F
:1033A00088468142FADB1AF808100029F6D1059800
:1033B0005B46A0EB080721463846179A00F094FABE
:1033C000284400EB080507E04DE029E10DE01AF87C
:1033D000010B5A4617999047B8F10108F7D25B469E
:1033E00021463846179A13E142E00A220092C4F3BC
:1033F00002524FF0000A022A08D059F804CB032ADF
:103400004FEAEC710AD00DE029E02AE009F107014A
:1034100021F00702F2E802C1914609E00FFA8CFCA4
:103420004FEAEC71042A03D14FFA8CFC4FEAEC719D
:10343000002907DA0A460021DCF1000C61EB0201E9
:103440002D2202E0220504D52B228DF80420012232
:1034500003E0E20701D02022F7E7904659E00A2175
:1034600002E010220DE010214FF0000A00910BE065
:1034700010224FF0000A44F004040827009203E0F1
:1034800008224FF0000A0092C4F30252022A05D02B
:1034900059F804CB0021032A08D009E009F10701FB
:1034A00021F00702F2E802C1914605E01FFA8CFC08
:1034B000042A01D10CF0FF0C4FF00008220728D598
:1034C000702806D0009B83F0100353EA0A0305D04E
:1034D0000EE040228DF80420012208E05CEA01029F
:1034E00006D030228DF804208DF805000222904687
:1034F000009B83F0080353EA0A030AD15CEA010245
:1035000001D1620705D530228DF804204FF0010863
:103510007F1E582804D034A003900EA802900DE01E
:1035200036A0F9E753466046009AFFF789FB8446C8
:103530000398825C0298401E029002705CEA0100CF
:10354000F0D1029806A9081A00F1200A600702D5F6
:1035500024F4803400E00127574502DDA7EB0A0080
:1035600000E0002000EB0A01009005984144401A59
:103570000590E00306D45B462146179A059800F0B3
:10358000B3F90544002706E001A85A46C05D179923
:1035900090476D1C7F1C4745F6DBE0030CD55B466E
:1035A0002146179A059800F09FF9054404E0302061
:1035B0005A46179990476D1C0099481E00900029A3
:1035C000F5DC08E0029802995A460078491C0291FD
:1035D000179990476D1CBAF10001AAF1010AF1DCBC
:1035E00065E10000092801003031323334353637C7
:1035F000383961626364656600000000303132333F
:1036000034353637383941424344454600000000DE
:1036100000F058F90544761C307800287FF4ECADB2
:1036200019B02846BDE8F08F620700D4062709F1DB
:10363000070222F0070CFCE80223E14603F00048F1
:103640005FEA080C02D00FF2702C0DE05FEA045C18
:1036500002D50FF2682C07E05FEAC47C02D00FF2BB
:10366000602C01E0AFF2700C4FF0FF3823F0004304
:10367000CDF850C065280CD006DC452809D0462876
:103680001DD047283DD13DE0662818D067287ED15F
:1036900038E00021112F01DB112000E0781CCDE97A
:1036A000000106A90EA8FFF7DDFCDDE90F010E9A67
:1036B00003910021009207F1010A04914DE04FF0BF
:1036C00000400097CDE9011006A90EA8FFF7CAFC3B
:1036D000DDE90F0203920E9B11990022DDF80CA088
:1036E0000093049211B9791C00EB010AB7EB0A00B0
:1036F00004D4C0F1FF3007F1010A0490AAEB0700DF
:10370000019044E0012F00DA01270021112F01DD93
:10371000112000E03846CDE9000106A90EA8FFF708
:10372000A1FCDDE90F010E9A0391002104910092A2
:10373000BA4621070CD40399514500DA8A46BAF1FA
:10374000010F05DD009AAAF10101515C302908D072
:10375000B84202DA10F1040F06DA0121CDE90110B6
:1037600015E0AAF10101E9E7002805DC049901440C
:103770000491AAEB000102E0411C514500DD8A469C
:103780000499401A401C01904FF00040029020071D
:1037900004D40198504501DBCDF8048000208DF859
:1037A0004F0002980DF14F07B0F1004F25D02B20AC
:1037B0000E9002984FF0020800280CDA4042029066
:1037C0002D200E9007E00A210298FFF723FA3031EE
:1037D000029007F8011DB8F10001A8F10108F2DC20
:1037E00002980028EFD1791E0E980870307800F00A
:1037F000200040F0450007F8020D12A8C01B00F1A0
:1038000007081498007800B1012000EB0A01019824
:1038100001EBE07105984144401A401E0590E00319
:1038200006D45B462146179A059800F05DF80544DA
:103830001498007818B15A46179990476D1CE00308
:1038400024D55B462146179A059800F04DF80544AB
:103850001CE00498002807DBDDE90301884203DD52
:103860000098405C179901E0179930205A4690471C
:10387000049805F10105401C04900198401E019038
:1038800004D12E205A46179990476D1CBAF10001B9
:10389000AAF1010ADDDC05E017F8010B5A46179979
:1038A00090476D1CB8F10001A8F10108F4DC5B46FB
:1038B0002146179A0598ABE62D0000002B0000006A
:1038C000200000002DE9F041044600251E46174661
:1038D000880404D405E039462020B0476D1C641EDE
:1038E000F9D52846BDE8F0812DE9F04104460025D0
:1038F0001E469046C80301D5302700E020278804E3
:1039000004D505E041463846B0476D1C641EF9D524
:103910002846BDE8F0810A68531C0B6010707047A0
:1039200040390008000000208400000044300008F6
:10393000C4390008840000205424000054300008DA
:1039400000A24A040000000000000000010203047D
:10395000060708090204060800000000010203042B
:1039600001020304060708090000FFFFFF00000032
:103970000000000000000000000000000000000047
:103980000000000002000002000000000000010131
:10399000010D000000000000000000000000000019
:1039A0000000000000000000000000000101000015
:1039B0000001000101000000000101000000000002
:0439C0000000000003
:04000005080000ED02
:00000001FF
