:020000040800F2
:10000000E06500209D01000859310008B92F000863
:100010005531000839160008BD39000800000000FD
:10002000000000000000000000000000B5320008E1
:100030002B170008000000007D310008093300087C
:10004000B7010008B7010008B7010008B7010008B0
:10005000B7010008B7010008B7010008B7010008A0
:10006000B7010008B7010008B7010008B701000890
:10007000B7010008B7010008B7010008B701000880
:10008000B7010008B7010008B7010008B701000870
:10009000B7010008B7010008B70100082D170008D4
:1000A000B7010008B7010008B7010008B701000850
:1000B000B7010008E5330008B7010008B7010008E0
:1000C000B7010008B7010008B7010008B701000830
:1000D000B7010008AD390008B7010008B7010008F2
:1000E000B7010008B7010008B7010008B701000810
:1000F000B7010008B7010008B7010008B701000800
:10010000B7010008B7010008B7010008B7010008EF
:10011000B7010008B7010008B7010008B7010008DF
:10012000B7010008B7010008B7010008B7010008CF
:10013000B7010008B7010008B7010008B7010008BF
:10014000B7010008B7010008B7010008B7010008AF
:10015000B7010008B70100083D160008B701000804
:10016000B7010008B7010008B7010008B70100088F
:10017000B7010008B7010008B7010008000000003F
:10018000B7010008B7010008DFF80CD000F046FF07
:1001900000480047BD430008E0650020064880474E
:1001A00006480047FEE7FEE7FEE7FEE7FEE7FEE75C
:1001B000FEE7FEE7FEE7FEE7C93300088901000815
:1001C0002DE9F00F6FF003042DED0C8B5FEAD30ADD
:1001D000D0E901C7B0F8009004EB89040CEB0408E7
:1001E0009FEDFE9A18BF4FEAD90B00F0C18100BF06
:1001F00091ED000AB0EE493A88ED000A91ED010A4E
:10020000F0EE430A88ED010A91ED020AB0EE431ABE
:1002100088ED020A91ED030AF0EE431A88ED030A15
:1002200091ED040AB0EE432A88ED040A91ED050A27
:10023000F0EE432A88ED050A91ED060AF0EE433A06
:1002400088ED060A91ED070A203188ED070ADCEDFA
:10025000007A9CED017ADCED026A9CED036ADCED2C
:10026000045A9CED055ADCED064AB0EE434A3D4681
:100270000CF11C0408F120085FEA0B0600F026814F
:10028000D5ED008A94ED008A26EE280A65EEA89A3C
:1002900025EE28AA27EEA8BA64EEA8AA67EE28BA27
:1002A00026EEA8CA68EE28CAD5ED018A32EE000A09
:1002B00032EEA92A73EE0A2A30EE8BBA33EEAA3A4E
:1002C000D5ED020A74EE2C3A71EE8C1AD4ED017A57
:1002D00031EE2B1A27EE28DA26EEA8CA66EE28BAE7
:1002E00025EEA84A65EE289A24EEA8AA68EE28AA68
:1002F00067EEA8CA94ED027A7BEE0D8A31EE0C1AF5
:1003000071EEAB1A30EE040A32EE292A72EE8A2A16
:1003100033EE2A3A73EEAC3A66EEA0CA66EE20BA25
:1003200065EEA09A25EE20AA24EEA04A68EE20AA47
:1003300027EEA0BA27EE20CAD5ED030AD4ED036A52
:1003400030EE0A0A32EE042A78EEAC8A31EE2B1A2D
:1003500071EEA91A72EEAA2A33EE0B3A73EE8C3ABA
:1003600066EE20CA65EEA0BA65EE209A24EEA04A99
:1003700028EE20AA67EEA0AA27EE20BA26EEA0CA91
:10038000D5ED040A78EEAC8A31EE2B1A71EEA91A7B
:1003900030EE040A32EE0A2A72EEAA2A33EE0B3A43
:1003A00073EE8C3A65EEA0CA94ED046A65EE20BA4D
:1003B00024EEA0BA28EE204A67EEA09A27EE20AAE3
:1003C00066EEA0AA26EE20CAD5ED050AD4ED055AA0
:1003D00031EE2B1A71EE8B1A78EEAC8A30EE040AED
:1003E00032EE292A72EE8A2A33EE2A3A73EE8C3ADA
:1003F00065EE20CA24EEA0BA68EE20BA27EEA04A25
:1004000067EE209A26EEA0AA66EE20AA25EEA0CAE4
:10041000D5ED060A30EE040A32EE292A27EE204AEC
:1004200094ED065A72EE8A2A66EEA09A78EEAC8AAD
:1004300031EE0B1A71EEAB1A33EE2A3A73EE8C3AA8
:1004400026EE20AA65EEA0AA64EEA0BA28EE20CA85
:1004500027EEA0BA65EE20CAD5ED070A30EE040AF1
:1004600032EE294A72EE8A9A33EE2AAAD4ED074A6E
:1004700031EE0C1A78EEAB8A28EE20CA71EE8B1A98
:1004800073EEACAA66EE202A67EEA0BA27EE20BA79
:1004900026EEA02A25EEA03A65EE203A24EEA08AA8
:1004A00074EE222A78EE8C0A31EE2B1A71EE8B1A3A
:1004B00030EE022A39EE833A7AEE233A3AEE884A4F
:1004C00020342035761E7FF4DBAE00BF19F007061E
:1004D00036D000BF95ED008A94ED000A241D67EE2A
:1004E000889A67EE088A26EE88AA66EE08AA25EEA4
:1004F00088BA65EE08BA24EE88CA20EE088AF0EEC3
:10050000477AB0EE667AF0EE466AB0EE656AF0EED3
:10051000455A70EEA90A31EE281A71EE8A1A32EEA7
:100520002A2A72EE8B2A33EE2B3A73EE8C3A34EE93
:10053000084AB0EE645A2D1DF0EE404A761EC9D12D
:10054000C2ED000A82ED011AC2ED021A82ED032A01
:10055000C2ED042A82ED053AC2ED063A82ED074A61
:100560002032BAF1010A0CF1200C7FF441AE00BF39
:1005700013F0070A43D000BFB1EC010A3E1D0CF195
:100580000404B9F10103A8EC010ADCED000A97EDBF
:10059000001AB0EE490A00EE810A29D0B3F1004FEB
:1005A0007DD2002B24DD251F341F13F0010F07D04F
:1005B000D5ED010A94ED011A241D2D1D00EE810ACE
:1005C0005B1015D0D5ED010A94ED011A00EE810AF9
:1005D000D5ED020A94ED021A02E0000000000000CE
:1005E00000EE810A5B1E04F1080405F10805E9D15B
:1005F000A2EC010ABAF1010A0CF1040CBCD140686A
:10060000A9F10104A3081FD0B3F1004F54D2002B6D
:100610001ADD624601461D4692ED000A81ED000A90
:1006200092ED010A81ED010A92ED020A81ED020AC2
:1006300092ED030A103281ED030A10316D1EEBD1E9
:100640000CEB031C00EB031014F0030202BFBDEC23
:100650000C8BBDE8F00F7047B2F1004F42D2002A78
:100660001ADD001FACF1040112F0010F05D091ED6D
:10067000010A80ED010A001D091D52080CD000BFBF
:1006800091ED010A80ED010A91ED020A083180ED39
:10069000020A0830521EF3D1BDEC0C8B00E002E0E0
:1006A000BDE8F00F7047F4EC010A5B1EB6EC011ACE
:1006B00000EE810AF7D19BE79CED000A80ED000A6D
:1006C0009CED010A80ED010A9CED020A80ED020A10
:1006D0009CED030A0CF1100C80ED030A10305B1E38
:1006E000EAD1B1E7BCEC010A521EA0EC010AF9D133
:1006F000D2E770B504460498218008448000011FA9
:100700001D461846A26000F09DF9656070BD0000AE
:1007100070B44FF0000CB0EC010A4E1E6446B508F0
:1007200032D000BFD0ED000A90ED011A0830B4EECF
:10073000E00AF1EE10FA3CBFB0EE600A0CF10104E1
:10074000B4EEC10AF1EE10FA3CBFB0EE410A0CF172
:100750000204D0ED000A90ED011A0830B4EEE00A70
:10076000F1EE10FA3CBFB0EE600A0CF10304B4EEF7
:10077000C10AF1EE10FA3CBFB0EE410A0CF10404DC
:100780006D1E0CF1040CCDD116F0030C18D0BCF189
:10079000004F1AD2BCF1000FC4BF002566460FDD22
:1007A000D0ED000AF4EEC00AF1EE10FA04DD4C19A7
:1007B000B0EE600AA4EB0C04001D6D1C761EEFD198
:1007C00082ED000A1C6070BC7047F0EC010AB4EEC8
:1007D000E00AF1EE10FA3CBFB0EE600AA1EB0C04A7
:1007E000BCF1010CF1D1EBE79FED220A8B0812D08E
:1007F00090ED002A90ED011AD0ED020A30EE020AC7
:10080000D0ED031A10305B1E30EE010A30EE200AE4
:1008100030EE210AECD111F003031AD0B3F1004FEE
:1008200020D2002B15DD001F13F0010F04D0D0EDF6
:10083000010A001D30EE800A5B080AD0D0ED010AE3
:1008400030EE800AD0ED020A08305B1E30EE800ADE
:10085000F4D100EE901AF8EE600A80EE201A82EDD4
:10086000001A7047F0EC010A5B1E30EE800AF9D1E5
:10087000EFE700000000000070B44FF0000CB0EC97
:10088000010A4E1E6446B50832D000BFD0ED000A02
:1008900090ED011A0830B4EEE00AF1EE10FAC4BF90
:1008A000B0EE600A0CF10104B4EEC10AF1EE10FAE8
:1008B000C4BFB0EE410A0CF10204D0ED000A90ED85
:1008C000011A0830B4EEE00AF1EE10FAC4BFB0EE3F
:1008D000600A0CF10304B4EEC10AF1EE10FAC4BFD1
:1008E000B0EE410A0CF104046D1E0CF1040CCDD1E4
:1008F00016F0030C18D0BCF1004F1AD2BCF1000F57
:10090000C4BF002566460FDDD0ED000AF4EEC00A34
:10091000F1EE10FA04D24C19B0EE600AA4EB0C040C
:10092000001D6D1C761EEFD182ED000A1C6070BCAC
:100930007047F0EC010AB4EEE00AF1EE10FAC4BF21
:10094000B0EE600AA1EB0C04BCF1010CF1D1EBE7B5
:10095000930813D0D0ED001A90ED011AD0ED020AE1
:1009600090ED030AC1ED001A81ED011AC1ED020AF2
:1009700081ED030A103010315B1EEBD112F003023F
:1009800008BF7047B2F1004F1DD2002AD8BF704790
:10099000001F091F12F0010F05D090ED010A001D84
:1009A00081ED010A091D520808BF704790ED010A48
:1009B00081ED010A90ED020A083081ED020A08314A
:1009C000521EF3D17047B0EC010A521EA1EC010A8D
:1009D000F9D170472DE9F05F0546002092469B460D
:1009E00088460646814640241BE028464146474645
:1009F000224600F02CFA53465A46C01A914110D3B1
:100A000011461846224600F013FA2D1A67EB01082A
:100A10004F4622460120002100F00AFA17EB000998
:100A20004E41201EA4F10104DFDC484631462A462F
:100A30004346BDE8F09FD2B201E000F8012B491E09
:100A4000FBD270470022F6E710B513460A4604466B
:100A50001946FFF7F0FF204610BD2DE9FE4F8046F6
:100A600081EA0300C00F0C46009021F0004123F002
:100A70000045B8EB0200A94105D240462146904608
:100A80001C460B46024623F00040104347D0270D7A
:100A9000C7F30A00C3F30A510290401A019040289C
:100AA0006BDAC3F3130040F4801B0098924620B128
:100AB0000023D2EB030A63EB0B0B01985946C0F1FC
:100AC0004002504600F0B4F906460D4650465946DD
:100AD000019A00F0CCF910EB08006141002487EA8C
:100AE000115284EAE7731A4340D0009A62B3019A24
:100AF000012A4FEA075215DC001B61EB02014FF09F
:100B0000004202EA0752CDE90042001C41F5801183
:100B100032462B4600F003FA03B0BDE8F08F4046A2
:100B20002146F9E7001B61EB0201001C41F580132F
:100B300000185B412018A2F5001747EB030140EABB
:100B4000D570B6196D4111E06D084FEA360645EAD9
:100B5000C0754FEA0752001B61EB0201001C41F512
:100B6000801149084FEA30000019514132462B46A6
:100B700003B0BDE8F04F00F0C3B900980122400077
:100B80000023D0EB020263EBE073009821464FEAAA
:100B9000E074B8EB000061EB0401E9E783F0004387
:100BA0005BE781F0004158E72DE9FE4F81EA03043D
:100BB00004F0004421F0004100944FF0000B23F0BA
:100BC000004350EA01045ED052EA03045BD0C3F351
:100BD0000A54C1F30A552C44A4F2F3340194A0FB47
:100BE0000254C1F3130141F48011C3F3130343F41E
:100BF000801301FB024400FB034E840A970A44EA77
:100C0000815447EA8357A4FB076802958D0A05FBC8
:100C100007854FEA932C04FB0C542705029D4FEAED
:100C2000065847EA1637B5EB08056EEB070C870E3A
:100C3000920E47EA811742EA8312A7FB0201B6EB44
:100C40000B0164EB00042B0D43EA0C335E1844EBFC
:100C50001C50DA465146E7FB0201C5F313044FEA84
:100C60000B3343EA14534FEA0432019C43EA060370
:100C7000A4F10C040294009CCDE900B400F04FF9FB
:100C800003B0BDE8F08F00200146F9E72DE9F04DF3
:100C900081EA030404F0004B21F0004514464FF0B4
:100CA000000A23F0004150EA050220D054EA010274
:100CB0001DD0C5F30A570246C5F31303C1F3130051
:100CC000C1F30A5640F4801543F48013A7EB0608DD
:100CD000101BD64608F2FD3873EB050002D308F16D
:100CE000010801E092185B41B8F1000F03DA00201F
:100CF0000146BDE8F08D00204FF480110646844681
:100D00000EE0171B73EB050705D3121B63EB0503FE
:100D100006434CEA010C49084FEA300092185B4147
:100D200050EA0107EDD152EA030012D082EA040032
:100D300083EA0501084305D0101BAB4106D201220E
:100D4000002306E000224FF0004302E06FF00102B2
:100D500053101AEB06004CEB085110EB0A0041EB64
:100D60000B01BDE8F04D00F0CBB80EB5C10F80EA25
:100D7000E0700844CA07002140F233438DE80E00BA
:100D80000A460B4600F0CBF803B000BD0EB540F2AA
:100D9000334102910021CDE900110A460B4600F0D3
:100DA000BEF803B000BD00F0004230F000400AD0B1
:100DB000C10D01F56071C0F3160042EA0151C2088D
:100DC00040071143704700200146704701F000437F
:100DD00030B421F0004150EA010206D00A0DA2F51C
:100DE0006072C1F31301002A02DC30BC002070479E
:100DF000440F44EAC104C100E01830BC00EBC2500B
:100E000000F047B830B50B460146002020220124EF
:100E100009E021FA02F59D4205D303FA02F5491BC8
:100E200004FA02F52844151EA2F10102F1DC30BDDE
:100E3000202A04DB203A00FA02F10020704791409A
:100E4000C2F1200320FA03F3194390407047202A8F
:100E500004DB203A21FA02F00021704721FA02F364
:100E6000D040C2F120029140084319467047202A21
:100E700006DBCB17203A41FA02F043EAE07306E0C2
:100E800041FA02F3D040C2F12002914008431946D2
:100E900070470029A8BF7047401C490008BF20F0D8
:100EA0000100704710B4B0FA80FC00FA0CF050EA70
:100EB000010404BF10BC704749B1CCF1200421FAF1
:100EC00004F411FA0CF118BF012121430843A3EBEC
:100ED0000C01CB1D4FEA00614FEA102042BF0020F9
:100EE00010BC704700EBC35010440029A4BF10BCD5
:100EF0007047401C490008BF20F0010010BC70473B
:100F000010B5141E73F1000408DA401C41F1000111
:100F100092185B411A4301D120F0010010BD2DE968
:100F2000F04D92469B4611B1B1FA81F202E0B0FA5F
:100F300080F220329046FFF77BFF04460F4640EADE
:100F40000A0041EA0B0153465A46084313D01146A2
:100F500053EA010019D0C8F140025046FFF777FF6D
:100F600005460E46504659464246FFF761FF084384
:100F700005D0012004E020463946BDE8F08D002070
:100F8000054346EAE0762C4337430A986305E40AB2
:100F9000A0EB08000022FD0A44EA47540A3002D5BB
:100FA00000200146E9E7010510196941DDE908451E
:100FB00000196941BDE8F04DA2E7C1F30A52C1F33F
:100FC000130140F2FF3341F480119A4202DA00200B
:100FD0000146704740F233439A42A2F2334202DCA8
:100FE0005242FFF734BFFFF723BF000030B5041EA5
:100FF00071F1000404DB4FF00044404264EB010156
:10100000141E73F1000405DB1C464FF000435242EE
:1010100063EB0403994208BF904230BD064C074D74
:1010200006E0E06840F0010394E8070098471034B8
:10103000AC42F6D3FFF7ACF8C04B0008E04B000819
:1010400010B5172000F040FF01200249086000F0B1
:101050001DF810BDB082404210B5002400200849A0
:1010600008710120074988700749887000F0E0F98D
:1010700000B101240A2000F065FD204610BD0000EB
:101080006100002066000020690000203EB51120AC
:1010900000F084F9642000F055FD062000F07EF990
:1010A0004FF47A7000F04EFD112000F077F96420C3
:1010B00000F048FD6A460C21202000F02DFA08A01F
:1010C00002F07EFC002407E01DF80420214609A060
:1010D00002F076FC601CC4B20C2CF5DB3EBD0000B7
:1010E000726561642064656661756C742052454761
:1010F0003A0D0A0025642025780D0A0070B50446D3
:10110000002009490860002506E0002000F040F9B1
:101110002070641C681CC5B2092DF6DB0120024951
:101120000860002070BD0000B082404273208F49EB
:10113000087000204870084640788D4909780843B7
:101140008A49487000208870084680788949097863
:1011500040EA811085498870084680788549497839
:1011600040EA411081498870084680788149897831
:1011700040EA01107D498870084680787D49C97829
:1011800040EAC10079498870084680787949097930
:1011900040EA4100754988700846807840F0810037
:1011A00088701020C87000200871084600797249C4
:1011B000097840EAC1106D490871084600796E4906
:1011C000497840EA011069490871084600796A497E
:1011D00089780843654908710020487108464079BC
:1011E0006649097840EAC11060494871084640796B
:1011F0006249497840EA01105C49487108464079E3
:101200005E49897808435949487100208871084629
:1012100080795B49097840EA411054498871084651
:1012200080795749497840EA011050498871084649
:1012300080795349897840EAC1004C498871084651
:1012400080794F49C97840EA810048498871084649
:1012500080794B49097940EA410044498871084640
:10126000807947494979084340498871084680791F
:1012700040F0C00088710020C8710846C07941491B
:10128000097840EA41103949C8710846C0793D499A
:10129000497840EA01103549C8710846C079394992
:1012A000897840EAC1003149C8710846C07935499A
:1012B000C97840EA81002D49C8710846C079314992
:1012C000097940EA41002949C8710846C0792D4989
:1012D000497908432549C8710020087248720846B8
:1012E000407A2949097840EAC110204948720846E5
:1012F000407A2549497840EA81101C4948720846DD
:10130000407A2149897840EA8100184948720846A4
:10131000407A1D49C9780843144948720846407A02
:1013200040F002004872002088720846807A17490F
:10133000097840EAC1100D4988720846807A13493D
:10134000497840EA8100094988720846807A0F4945
:10135000897840EA4100054988720846807A40F061
:10136000010088720C20C87270470000F45D0020F4
:10137000600000206100002066000020690000205D
:101380006C00002072000020780000207C0000200B
:1013900010B50446204601F0F3FE10BD10B504461A
:1013A000002008490860642002F0C8FF2046FFF7CB
:1013B000EFFF642002F0C2FF01200349C1F8B00230
:1013C00010BD0000B08240420080404210B50024B1
:1013D000002007490871074988700749887000F0A4
:1013E00027F800B101240A2000F0ACFB204610BD14
:1013F00061000020660000206900002010B5002474
:10140000012008490871052007498870074988703C
:1014100000F00EF800B101240A2000F093FB2046F2
:1014200010BD00006100002066000020690000205F
:101430003EB50025FFF77AFE244A0B21412000F03B
:101440006BF80A2000F07EFB6A460C21202000F099
:1014500063F80A2000F076FB1DA002F0B1FA002428
:1014600008E01A48401E025D21461DA002F0A8FABD
:10147000601CC4B20C2CF4DB1BA002F0A1FA002407
:1014800017E01248401E005D1DF80410884207D086
:101490002CB1082C03D00B2C01D0012500E006E074
:1014A0001DF8042021460EA002F08AFA00BF601C3D
:1014B000C4B20C2CE5DB1DB90EA002F081FA02E0EB
:1014C00011A002F07DFA28463EBD0000F55D002027
:1014D0005752495445205245473A0D0A0000000032
:1014E00025642025780D0A00524541442052454785
:1014F0003A0D0A005245472077726974652073756A
:1015000063636573730D0A005245472077726974EF
:1015100065206572720D0A002DE9F04107460E46FE
:10152000154600201A490860642002F007FF38467B
:10153000FFF72EFF642002F001FF711EC8B2FFF713
:1015400027FF07F0400068B1002408E0642002F0A3
:10155000F5FE2878FFF71CFF6D1C601CC4B2B44276
:10156000F4DB0DE0002409E0642002F0E7FE002037
:10157000FFF70EFF28706D1C601CC4B2B442F3DB91
:10158000642002F0DBFE012001490860BDE8F08123
:10159000B08240422DE9F0472DED048B06460C4603
:1015A0001546B1462746A8461C4B1D4A4FF4FA6122
:1015B0004846FFF7ADF81B4B1B4A4FF4FA6148460B
:1015C000FFF75AF9164890ED000A1748D0ED000AC7
:1015D00030EE600A10EE101A0846FFF7E4FB41EC0B
:1015E000190B53EC192B9FED110B51EC100BFFF75E
:1015F0004DFB41EC180BFFF7E9FB3860D7ED000A13
:10160000074890ED001A9FED0B0A00EEC10A88ED25
:10161000000ABDEC048BBDE8F087000084000020C8
:10162000800000208C0000208800002000000000C6
:101630000080664000005C4300BFFEE710B5024832
:1016400000F0EAF810BD0000945D00200146087823
:1016500010381823B0FBF3F20848805CC865032AF1
:1016600005D908686FF30900001D886503E0086864
:101670006FF309008865886D70470000604A0008B4
:10168000014600208A6A8B69CBB932B1012A0DD09C
:10169000022A03D0032A10D10EE000BFCB6A03F068
:1016A0008073B3F1807F00D1012007E0CB6AB3F1F2
:1016B000C07F00D1012001E000E000BF34E08B6971
:1016C000B3F5005F1AD132B1012A07D0022A03D044
:1016D000032A11D10AE000BF01200EE0CB6A03F01B
:1016E0008073B3F1807F00D1012006E0CB6AB3F1B3
:1016F000C07F00D1012000E000BF15E032B1012A17
:1017000005D0022A04D0032A0CD103E000BF00BF99
:10171000012008E0CB6A03F08073B3F1807F00D131
:10172000012000E000BF00BF7047704710B54FF4C4
:10173000807000F029FA10BD704700002DE9F041DB
:101740000746884644E026480078002840D02548CF
:10175000C07800042349097940EA012021494979E8
:1017600040EA01061F48807900041E49C97940EA11
:1017700001201C49097A40EA0105284602F018FEBA
:101780000446304602F014FE034625461E4600EE8F
:10179000105AB8EE400A1448006807EB800080ED4C
:1017A000000A00EE106AB8EE400A0F48006808EB25
:1017B000800080ED000A0D480068401C0B4908605D
:1017C00009480068401C0849086000200449087066
:1017D00006480068B0F5FA6FB5DBBDE8F08100009F
:1017E0007F000020005E0020940000209000002078
:1017F000014691F83500022803D080204865012079
:101800007047052081F835000868006820F0010065
:101810000A6810600020F3E7F8B504460020009045
:101820008C4800684FF41651B0FBF1F7A56D2E6897
:1018300094F85C1008208840304098B12068006817
:1018400000F0040070B12068006820F004002168F6
:10185000086094F85C1008208840A860606D40F033
:101860000100606594F85C1001208840304068B148
:101870002068406900F0800040B194F85C100120BD
:101880008840A860606D40F00200606594F85C10CC
:1018900004208840304068B12068006800F00200F1
:1018A00040B194F85C1004208840A860606D40F05E
:1018B0000400606594F85C1010208840304078B3D4
:1018C0002068006800F0080050B394F85C10102005
:1018D0008840A8602068006800F4802080B12068FB
:1018E000006800F4002028B9206CC8B12046216CA3
:1018F000884715E0A06C98B12046A16C88470FE09E
:101900002068006800F4807028B92068006820F022
:10191000080021680860206C10B12046216C8847BF
:1019200094F85C10202088403040002865D0206862
:10193000006800F0100000285FD094F85C102020B0
:101940008840A86094F83500052828D120680068F0
:1019500020F01600216808602068406920F08000AF
:1019600021684861206C08B9A06C28B12068006823
:1019700020F008002168086094F85C103F2088403F
:10198000A86000BF002084F8340000BF012084F864
:101990003500206D10B12046216D8847F8BD2068C4
:1019A000006800F4802080B12068006800F4002006
:1019B00028B9606C10B12046616C88471DE0E06B6F
:1019C000D8B12046E16B884717E02068006800F432
:1019D000807068B92068006820F0100021680860F5
:1019E00000BF002084F8340000BF012084F83500D7
:1019F000E06B10B12046E16B8847606D38B3606DD5
:101A000000F00100F0B1052084F83500206800687E
:101A100020F001002168086000BF0098401C009081
:101A2000B84200D905E02068006800F001000028F5
:101A3000F3D100BF00BF002084F8340000BF0120B4
:101A400084F83500E06C10B12046E16C884700BF97
:101A5000A4E700005C0000202DE9F04104460025C9
:101A600000F0A6F9074614B90120BDE8F081606ACC
:101A700000B100BF00BF002084F8340000BF022086
:101A800084F835002068006820F0010021680860B3
:101A90000AE000F08DF9C01B052805D920206065FB
:101AA000032084F83500E0E72068006800F00100BA
:101AB0000028EED12068056821480540D4E90101DD
:101AC0000843E16808432169084361690843A16943
:101AD0000843E1690843216A08430543606A042812
:101AE00003D1D4E90B010843054320680560206851
:101AF000456925F00705606A0543606A04280DD131
:101B0000A06A0543E06A48B12046FFF7B9FD28B155
:101B100040206065012084F83500A6E72068456113
:101B20002046FFF793FD064694F85C103F2088405E
:101B3000B06000206065012084F83500002094E743
:101B40003F8010F070B5044600F032F90646254695
:101B5000681C10B104480078054400BF00F028F963
:101B6000801BA842FAD370BD5800002010B504466F
:101B7000B4F5807F04D10348006808B901F0EEFA9B
:101B800010BD00002002404210B504460448006821
:101B9000204020B1024804602046FFF7E7FF10BD57
:101BA000143C0140F8B502460B46002500240020F5
:101BB0000021DCE0012606FA01F51E6806EA0504AC
:101BC000AC4273D15E68012E08D05E68022E05D04B
:101BD0005E68112E02D05E68122E13D190684F00FD
:101BE0000326BE40B0434F00DE68BE4030439060E5
:101BF000506801268E40B0431E79C6F300168E4011
:101C000030435060D0684F000326BE40B0434F00C1
:101C10009E68BE403043D0605E68022E02D05E688F
:101C2000122E13D1CF0802F1200656F827004E07D6
:101C3000F70E0F26BE40B0434F07FF0E1E69BE4091
:101C40003043CF0802F1200646F8270010684F0005
:101C50000326BE40B0431E7906F003064F00BE4087
:101C6000304310605E6806F08056B6F1805F7DD12B
:101C700000BF00260096404E366846F480463E4F30
:101C80003E603E46366806F48046009600BF00BFC0
:101C90003A4E8F0856F827008E07370F0F26BE40A2
:101CA000B043374EB24202D1002624E05EE0354E0A
:101CB000B24201D101261EE0334EB24201D10226CA
:101CC00019E0324EB24201D1032614E0304EB24246
:101CD00001D104260FE02F4EB24201D105260AE0C1
:101CE0002D4EB24201D1062605E02C4EB24201D162
:101CF000072600E008268F073F0FBE4030431F4EE7
:101D00008F0846F82700264E3068A0435E6806F428
:101D10008036B6F5803F00D12043214E3060361D1D
:101D20003068A0435E6806F40036B6F5003F00D187
:101D300020431B4E361D3060361D3068A0435E6860
:101D400006F48016B6F5801F00D12043144E0836E5
:101D50003060361D3068A0435E6806F40016B6F5A4
:101D6000001F00D120430E4E0C363060491C102954
:101D7000FFF420AFF8BD00004438024008380140AD
:101D8000000002400004024000080240000C024033
:101D9000001002400014024000180240001C0240E3
:101DA000003C01400AB1816101E00B04836170478E
:101DB0000148006870470000500000200348006898
:101DC0000349097808440149086070475000002021
:101DD0005800002010B50D48006840F400700B4911
:101DE00008600846006840F48060086008460068A3
:101DF00040F480700860032000F0D6F8002000F066
:101E000007F800F02BF8002010BD0000003C024055
:101E100070B504460E4800784FF47A71B1FBF0F0CB
:101E20000C490968B1FBF0F5284600F014FE08B132
:101E3000012070BD102C07D200222146501E00F058
:101E400075F80548046001E00120F2E70020F0E7A2
:101E5000580000205C0000205400002008B500BF9E
:101E6000002000900E48006840F480400C49086053
:101E70000846006800F48040009000BF00BF00BF2B
:101E800000200090081F006840F08050091F086083
:101E90000846006800F08050009000BF00BF08BDF9
:101EA0004438024010B501460846002807DB00F020
:101EB0001F0301229A40034B440943F8242000BF2A
:101EC00010BD000080E200E010B501460846002881
:101ED00017DB00F01F0301229A400B4B440943F823
:101EE000242000BF00BF00BFBFF34F8F00BF00BF63
:101EF00000BF00BF00BF00BFBFF36F8F00BF00BFB8
:101F000000BF00BF10BD000080E100E001460846B0
:101F1000002809DB00F01F0301229A4043099B00BF
:101F200003F1E023C3F8002100BF70472DE9F05F03
:101F300080460D461646002701F052FD07463946F9
:101F40002A46334601F00700C0F1070ABAF1040F30
:101F500002D94FF0040A01E0C0F1070AD14600F1AE
:101F6000040ABAF1070F02D24FF0000A01E0A0F113
:101F7000030AD4464FF0010A0AFA09FAAAF1010A43
:101F80000AEA020A0AFA0CFA4FF0010B0BFA0CFBF0
:101F9000ABF1010B0BEA030B4AEA0B042146404666
:101FA00001F026FDBDE8F09F00BF00F00702064BE0
:101FB00019684FF6FF031940044B0B4343EA022113
:101FC000014B196000BF70470CED00E00000FA05FE
:101FD00070B504460D460CB9012070BD5848006824
:101FE00000F00F00A84209D255490D70084600685C
:101FF00000F00F00A84201D00120EEE7207800F0A9
:10200000020002281DD1207800F00400042805D128
:102010004C48006840F4E0504A490860207800F0DD
:102020000800082805D14748006840F46040454949
:1020300008604448006820F0F000A1680843414966
:102040000860207800F00100A8B36068012807D17B
:102050003C4808380068C0F34040B8B90120BCE7EC
:102060006068022802D06068032807D13548083824
:102070000068C0F3406048B90120AEE73148083835
:102080000068C0F3400008B90120A6E72D480068A9
:1020900020F00300616808432A490860FFF788FEC2
:1020A000064609E0FFF784FE801B41F28831884232
:1020B00002D9032091E707E02248006800F00C00F5
:1020C0006168B0EB810FEDD11D48006800F00F0092
:1020D000A84209D91A490D700846006800F00F009F
:1020E000A84201D0012078E7207800F004000428FD
:1020F00007D11448006820F4E050E1680843114912
:102100000860207800F00800082808D10D48006811
:1021100020F46040216940EAC1000A49086000F0EB
:102120003FF808490968C1F30311074A515CC840E8
:102130000649086006480068FFF76AFE00204CE781
:10214000003C024008380240684A00085C00002059
:102150005400002001480068704700005C00002027
:1021600000B5FFF7F7FF04490968C1F38221034A6C
:10217000515CC84000BD000008380240784A0008A1
:1021800000B5FFF7E7FF04490968C1F34231034A8C
:10219000515CC84000BD000008380240784A000881
:1021A0002DE9F047002400250026A14625480068B7
:1021B00000F00C0020B1042805D008283AD105E031
:1021C000DFF8849039E0DFF8849036E01D48001F86
:1021D000006800F03F041B48001F006800F4800006
:1021E00078B11A481749091F0968C1F38811A0FB83
:1021F00001700146224600233846FEF7EBFB0546F8
:102200000EE011480F49091F0968C1F38811A0FBAE
:1022100001700146224600233846FEF7DBFB0546E7
:102220000848001F0068C0F30140401C4600B5FB91
:10223000F6F902E0DFF8109000BF00BF4846BDE8A5
:10224000F0870000083802400024F40000127A00F1
:10225000F8B504460CB90120F8BD207800F0010063
:10226000002874D0F948006800F00C0004280DD054
:10227000F648006800F00C00082813D1F348001F4E
:10228000006800F48000B0F5800F0BD1EF480838EB
:102290000068C0F34040002859D06068002856D13B
:1022A0000120D9E700BF6068B0F5803F08D1E7485A
:1022B0000838006840F48030E449083908601EE0BE
:1022C0006068B0F5A02F0DD1E0480838006840F4F0
:1022D0008020DE49083908600846006840F48030F4
:1022E00008600CE0D9480838006820F48030D749ED
:1022F000083908600846006820F48020086000BFA4
:10230000606890B1FFF754FD054606E0FFF750FD09
:10231000401B642801D903209EE7CC480838006898
:10232000C0F340400028F1D011E0FFF741FD054621
:1023300006E0FFF73DFD401B642801D903208BE731
:10234000C24808380068C0F340400028F1D1207826
:1023500000F0020002285FD1BC48006800F00C00C9
:1023600058B1BA48006800F00C0008281CD1B748E2
:10237000001F006800F48000B0B9B4480838006855
:10238000C0F3400020B1E068012801D0012063E7DC
:10239000AE480838006820F0F800216940EAC10022
:1023A000AA490839086037E0E06800B30120A8496D
:1023B0000860FFF7FDFC054606E0FFF7F9FC401B4F
:1023C000022801D9032047E7A04808380068C0F375
:1023D00040000028F1D09D480838006820F0F8003F
:1023E000216940EAC10099490839086014E00020D9
:1023F00097490860FFF7DCFC054606E0FFF7D8FCCC
:10240000401B022801D9032026E7904808380068BD
:10241000C0F340000028F1D1207800F0080008281F
:102420002CD16069A8B101208A490860FFF7C0FC7F
:10243000054606E0FFF7BCFC401B022801D903203B
:102440000AE782486C300068C0F340000028F1D0F1
:1024500014E000207F490860FFF7AAFC054606E06B
:10246000FFF7A6FC401B022801D90320F4E67748B9
:102470006C300068C0F340000028F1D1207800F0F3
:102480000400042870D1002770483830006800F03C
:10249000805090B900BF002000906C483830006830
:1024A00040F080506949383108600846006800F003
:1024B0008050009000BF00BF01276748006800F40B
:1024C0008070B0B96448006840F480706249086068
:1024D000FFF76EFC054606E0FFF76AFC401B02288A
:1024E00001D90320B8E65C48006800F48070002839
:1024F000F2D000BFA068012808D1544868300068B5
:1025000040F001005149683108601DE0A0680528CD
:102510000DD14E486830006840F004004B496831E6
:1025200008600846006840F0010008600CE0474879
:102530006830006820F001004449683108600846AE
:10254000006820F00400086000BFA068A8B1FFF791
:102550002FFC054609E0FFF72BFC401B41F28831B8
:10256000884202D9032077E626E0384868300068C0
:10257000C0F340000028EED013E0FFF719FC054639
:1025800008E0FFF715FC401B41F28831884201D971
:10259000032061E62D4868300068C0F34000002841
:1025A000EFD1012F07D129483830006820F0805042
:1025B00026493831086000BFA069002845D023486B
:1025C000006800F00C0008285DD0A069022845D101
:1025D00000201F490866FFF7EBFB054606E0FFF702
:1025E000E7FB401B022801D9032035E617480838CD
:1025F0000068C0F340600028F1D1D4E90701084326
:10260000616A40EA81110122A06AC2EB500041EAEE
:1026100000412C20005D41EA00600C49091F086060
:1026200001200B490866FFF7C3FB054606E0FFF7EC
:10263000BFFB401B022801D903200DE603480838E0
:102640000068C0F340600028F1D03FE00838024045
:1026500000004742800E47420070004000201C49A5
:102660000866FFF7A5FB054606E0FFF7A1FB401B48
:10267000022801D90320EFE516480068C0F3406046
:102680000028F2D122E0A069012800D1E4E5114838
:10269000001D066806F48001E069814214D106F04D
:1026A0003F01206A81420FD147F6C0703040616A15
:1026B000884209D106F44031A06A814204D106F073
:1026C0007061E06A814201D00120C5E50020C3E5C8
:1026D000000047420038024010B504460CB9012002
:1026E00010BD606A00B900BF0021A16294F85100DA
:1026F00028B9002084F85000204600F033F802206A
:1027000084F851002068006820F0400021680860CB
:10271000D4E901010843E16808432169084361697C
:102720000843218B01F400710843E1690843216AE1
:102730000843A16A0843216808600421A06901EAEE
:102740001040616A0843216848602068C06920F42D
:1027500000602168C86100206065012084F8510094
:102760000020BDE710B586B00446142101A8FEF78D
:1027700069F92A49206888424DD100BF00200090A5
:102780002748006840F480402549086008460068F2
:1027900000F48040009000BF00BF00BF0020009008
:1027A0001F481038006840F004001D4910390860C7
:1027B0000846006800F00400009000BF00BF00BFA2
:1027C000002000900846006840F0020008600846BB
:1027D000006800F00200009000BF00BF0C200190D4
:1027E0000220029000200390032004900520059011
:1027F00001A90C48FFF7D6F94FF480600190022040
:10280000029000200390032004900520059001A968
:102810000548FFF7C7F906B010BD000000380040BA
:102820004038024000080240000402402DE9FF5FEA
:102830000446884691461D460E9E012002900020C7
:10284000019000BF94F85000012803D1022004B089
:10285000BDE8F09F012084F8500000BFFFF7A8FA00
:10286000074694F851B060680390AA46BBF1010F87
:102870000BD00398B0F5827F04D1A06810B9BBF1EA
:10288000040F02D002200190DBE0B8F1000F03D06A
:10289000B9F1000F00D015B901200190D1E094F8F2
:1028A0005100042802D0052084F851000020606502
:1028B000C4F83890E587A587C4F83080E586A586FA
:1028C000206460642068006800F04000402805D063
:1028D0002068006840F0400021680860E068B0F5BA
:1028E000006F4AD1606810B1BAF1010F09D1206BB5
:1028F00000882168C860206B801C2063E08E401E29
:10290000E08633E02068806800F00200022810D1E1
:10291000E08E70B1029801280BD1206B00882168ED
:10292000C860206B801C2063E08E401EE086002083
:1029300002902068806800F0010068B1E08F58B113
:102940002068C068A16B0880A06B801CA063E08F2A
:10295000401EE08701200290FFF72AFAC01BB04218
:1029600004D3701C10B1032001906AE0E08E0028AF
:10297000C8D1E08F0028C5D14AE0606810B1BAF133
:10298000010F09D1206B007821680873206B401C6F
:102990002063E08E401EE08634E02068806800F00E
:1029A0000200022810D1E08E70B1029801280BD1EC
:1029B000206B007821680873206B401C2063E08E38
:1029C000401EE086002002902068806800F0010030
:1029D00068B1E08F58B12068C068A16B0870A06B27
:1029E000401CA063E08F401EE08701200290FFF7AB
:1029F000DFF9C01BB04201D3701C00B916B9032027
:102A000001901EE0E08E0028C7D1E08F0028C4D1DD
:102A10003A463146204600F0C3FB20B10120019028
:102A2000202060650DE0A06850B900BF0020009034
:102A30002068C068009020688068009000BF00BFD8
:102A400000BF012084F8510000BF002084F850002E
:102A500000BF0198FBE670B504462546681EB0F13C
:102A6000807F01D301200FE0681E4FF0E021486114
:102A70000F214FF0FF3000F0BBFF00204FF0E021AE
:102A8000886107200861002070BD7047704770475B
:102A900010B5044620680069C0F34000D8B1206832
:102AA000C068C0F34000B0B16FF002002168086157
:102AB000012020772068806900F0030018B12046CB
:102AC000FFF7E5FF05E0204600F0ADF8204600F0F6
:102AD000ABF80020207720680069C0F38000D8B1EF
:102AE0002068C068C0F38000B0B16FF004002168B6
:102AF0000861022020772068806900F4407018B1D6
:102B00002046FFF7C4FF05E0204600F08CF8204681
:102B100000F08AF80020207720680069C0F3C00028
:102B2000D8B12068C068C0F3C000B0B16FF0080031
:102B300021680861042020772068C06900F0030044
:102B400018B12046FFF7A3FF05E0204600F06BF820
:102B5000204600F069F80020207720680069C0F363
:102B60000010D8B12068C068C0F30010B0B16FF099
:102B7000100021680861082020772068C06900F4EF
:102B8000407018B12046FFF782FF05E0204600F0B4
:102B90004AF8204600F048F80020207720680069B5
:102BA00000F0010058B12068C06800F0010030B1A9
:102BB0006FF0010021680861204600F036F82068B7
:102BC0000069C0F3C01058B12068C068C0F3C010DD
:102BD00030B16FF08000216808612046FFF755FF93
:102BE00020680069C0F3801058B12068C068C0F345
:102BF000801030B16FF0400021680861204600F07D
:102C000015F820680069C0F3401058B12068C0680A
:102C1000C0F3401030B16FF02000216808612046F9
:102C2000FFF734FF10BD704770477047704770471B
:102C30002DE9F0470446206805682068C6682068CA
:102C400047694FF00008C14605F00F08B8F1000FC2
:102C50000AD105F0200038B106F0200020B120464E
:102C600000F0F2FBBDE8F087B8F1000F72D007F07A
:102C7000010018B906F4907000286BD005F001002F
:102C800030B106F4807018B1E06B40F00100E063F1
:102C900005F0040030B107F0010018B1E06B40F01E
:102CA0000200E06305F0020030B107F0010018B146
:102CB000E06B40F00400E06305F0080048B106F066
:102CC000200010B907F0010018B1E06B40F00800D7
:102CD000E063E06B70B305F0200028B106F020003F
:102CE00010B1204600F0B0FB20684069C0F38019A5
:102CF000E06B00F0080010B9B9F1000F23D02046B6
:102D000000F082FB2068406900F04000402816D1A6
:102D10002068406920F0400021684861606B50B134
:102D20001748616B0865606BFEF762FD10B1606B60
:102D3000016D88470CE02046FFF779FF08E0204648
:102D4000FFF775FF04E02046FFF771FF0020E06306
:102D500088E7FFE705F0800030B106F0800018B189
:102D6000204600F0B9FD7DE705F0400030B106F0E7
:102D7000400018B1204600F057FB73E700BF71E731
:102D8000F533000810B504460CB9012010BDA06948
:102D900000B100E000BF94F8390028B9002084F8A1
:102DA0003800204600F028F8242084F839002068F4
:102DB000C06820F400502168C860204600F098FBED
:102DC0002068006920F4904021680861206840690B
:102DD00020F02A00216848612068C06840F4005053
:102DE0002168C8600020E063202084F8390084F85E
:102DF0003A000020CAE7000010B586B0044614214E
:102E000001A8FDF71FFE30492068884259D100BF54
:102E1000002000902D48006840F010002B49086009
:102E20000846006800F01000009000BF00BF00BF1F
:102E30000020009025481438006840F00100234924
:102E4000143908600846006800F00100009000BFD7
:102E500000BF4FF4C0600190022002900020039058
:102E6000032004900720059001A91948FEF79AFE57
:102E70001848194908604FF0006048604021164822
:102E800081600021C1604FF48061016100214161D6
:102E90008161C1614FF48031016200214162FEF71E
:102EA000DBFD08B1FEF748FC00BF0B4820638463DC
:102EB00000BF002211462520FFF738F82520FFF734
:102EC00025F806B010BD0000001001404438024053
:102ED00000000240B8640240945D002070472DE974
:102EE000F84304460D4616461F464FF0000994F875
:102EF000390020285DD105B116B90120BDE8F8835D
:102F000000BF94F83800012801D10220F6E7012023
:102F100084F8380000BF0020E063212084F83900E5
:102F2000FEF746FF8146A684E68400BF002084F8B1
:102F3000380000BF2BE0E08C401EE084A068B0F5B4
:102F4000805F16D14B46002280212046009700F07A
:102F5000F7FC08B10320D1E7A846B8F80000C0F399
:102F6000080021684860206908B9AD1C0FE06D1C9D
:102F70000DE04B46002280212046009700F0E0FC47
:102F800008B10320BAE715F8010B21684860E08C0E
:102F90000028D0D14B46002240212046009700F067
:102FA000CFFC08B10320A9E7202084F839000020D5
:102FB000A4E70220A2E7704700BFFEE708B500BF04
:102FC000002000900A48006840F48000084908602A
:102FD0000846006800F48000009000BF00BF002297
:102FE00011464620FEF7A2FF4620FEF78FFF08BDE0
:102FF0003038024000B587B0142102A8FDF722FD49
:1030000000BF002001903048006840F080002E4949
:1030100008600846006800F08000019000BF00BF13
:1030200000BF002001900846006840F004000860DE
:103030000846006800F00400019000BF00BF00BF18
:10304000002001900846006840F002000860084631
:10305000006800F00200019000BF00BF00BF002028
:1030600001900846006840F00100086008460068CA
:1030700000F00100019000BF00BF00228914134836
:10308000FEF790FE4FF48050029001200390002044
:1030900004900220059002A90C48FEF783FD4FF42E
:1030A000807002900A4803900220049002A9094807
:1030B000FEF778FD002211461720FEF737FF172094
:1030C000FEF724FF07B000BD303802400004024084
:1030D000000021100000024010B50E480E490860A3
:1030E0004FF48270486000210B488160C16001612B
:1030F00001214161490281611021C1610021016208
:10310000416281620A21C162FFF7E6FA08B1FEF767
:1031100013FB10BD00380040BC5C002010B50B480C
:103120000B4908604FF47A304860002108488160FC
:10313000C16001610C21416100218161C161FFF722
:1031400021FE08B1FEF7F8FA10BD000000100140A2
:10315000545D002000BFFEE77047000010B5172047
:10316000FEF7A0FE0348FDF7C9FF012002490870E1
:1031700010BD0000005E00207F00002070470000AE
:1031800001B582B04FF6FF70012301AA02A9009099
:103190000248FFF74BFB9DF804000EBDBC5C00200D
:1031A0007CB504460D461646164800681821B0FB4B
:1031B000F1F01549B0FBF1F04FF47A7148430190FA
:1031C0006068B0F5827F0DD12B4600228021204619
:1031D000009600F01BF898B1606D40F0200060652B
:1031E00003207CBD00BF019800B908E00198401E93
:1031F000019020688068C0F3C0100028F3D100BFA0
:103200000020EEE75C00002040420F002DE9F04175
:1032100004460E4617461D46DDF818803EE0681C41
:10322000D8B3FEF7C5FDA0EB0800A84200D2A5BBAD
:103230002068406820F0E000216848606068B0F5D0
:10324000827F0DD1A068B0F5004F03D0A068B0F523
:10325000806F05D12068006820F040002168086078
:10326000A06AB0F5005F0DD100BF2068006820F4AF
:103270000050216808602068006840F40050216810
:10328000086000BF012084F8510000BF002084F8CE
:10329000500000BF0320BDE8F081FFE72068806890
:1032A0003040B04201D1012000E00020B842B6D148
:1032B0000020F0E7704770B505460A20FEF742FC93
:1032C00025B1012D06D0022D0CD107E0FEF77EF8C6
:1032D000044607E0FEF792F8044603E0FDF7BCFE63
:1032E000044600BF00BF0CB1012070BD1020FEF7E6
:1032F00055F80A20FEF726FC0820FEF74FF80A20B2
:10330000FEF720FC0020F0E710B5FEF757FD10BDDA
:1033100000B593B0302107A8FDF794FB142102A853
:10332000FDF790FB00BF002001902548006840F0A9
:103330008050234908600846006800F080500190E2
:1033400000BF00BF00BF002001901E48006840F48D
:1033500080401C4908600846006800F480400190E5
:1033600000BF00BF0220079001200A9010200B90A0
:1033700002200D9000210E9108210F91A82110919B
:10338000022111910421129107A8FEF761FF08B1F3
:10339000FEF7D2F90F200290022003900020049043
:1033A0004FF4A05005904FF480500690052102A8DC
:1033B000FEF70EFE08B1FEF7BFF913B000BD000026
:1033C00040380240007000400548006840F470003A
:1033D000034908604FF00060014980390860704778
:1033E00088ED00E010B50248FFF752FB10BD000069
:1033F000145D002070B50546AC6B0020E085E084CC
:103400002046FFF714FC70BD0168C96821F4907173
:103410000268D1600168496921F0010102685161C7
:10342000202180F83A10704710B504462068C06823
:1034300020F040002168C860202084F83900204630
:10344000FFF7B9FD002010BD70B5044694F83A00AE
:1034500022284AD1A068B0F5805F13D1A56A2069FF
:1034600040B920684068C0F308002880A06A801C2A
:10347000A06219E020684068C0B22880A06A401CA1
:10348000A06211E0206938B920684068C1B2A26A20
:10349000501CA062117007E02068406800F07F01B6
:1034A000A26A501CA0621170E08D401E80B2E085BF
:1034B000C8B92068C06820F020002168C860206872
:1034C000C06820F480702168C8602068406920F0DE
:1034D000010021684861202084F83A002046FFF767
:1034E000FDFC002070BD0020FCE70220FAE7000090
:1034F0002DE9F84F04462068006920F44050E16847
:103500000843216808612169A0680843616908438C
:10351000E169084300902068C06849F20C61884363
:10352000009908432168C8602068406920F4407011
:10353000A169084321684861E069B0F5004F75D181
:10354000E3492068884203D0E249206888426FD16D
:10355000FEF716FE814602206168A0FB01510B4672
:103560001920A9FB00712A463846FDF733FA642179
:10357000B0FBF1F04FEA001A02206168A0FB015194
:103580000B461920A9FB00712A463846FDF722FA9E
:10359000074602206168A0FB01510B461920A9FBD8
:1035A00000B12A465846FDF715FA6421B0FBF1F048
:1035B00000EBC00101EB0010A7EB8000322101EB12
:1035C000C0006421B0FBF1F000F0F8000AEB400A03
:1035D00002206168A0FB01510B461920A9FB007174
:1035E0002A463846FDF7F6F9074602206168A0FB37
:1035F00001510B461920A9FB00B12A465846FDF798
:10360000E9F96421B0FBF1F000EBC00101EB00101F
:10361000A7EB8000322101EBC0006421B0FBF1F088
:1036200000F007005044216888604FE16EE0FFE73A
:10363000FEF796FD814602206168A0FB01510B4612
:103640001920A9FB00712A463846FDF7C3F9642109
:10365000B0FBF1F04FEA001A02206168A0FB0151B3
:103660000B461920A9FB00712A463846FDF7B2F92E
:10367000074602206168A0FB01510B461920A9FBF7
:1036800000B12A465846FDF7A5F96421B0FBF1F0D8
:1036900000EBC00101EB0010A7EB8000322101EB31
:1036A000C0006421B0FBF1F000F0F8000AEB400A22
:1036B00002206168A0FB01510B461920A9FB007193
:1036C0002A463846FDF786F9074602206168A0FBC6
:1036D000015003461920A9FB00B12A465846FDF7C0
:1036E00079F96421B0FBF1F000EBC00101EB0010AF
:1036F000A7EB8000322101EBC0006421B0FBF1F0A8
:1037000000F00700504421688860DFE070492068BD
:10371000884203D06F49206888426BD1FEF730FDA4
:10372000814604206168A0FB01510B461920A9FBCA
:1037300000712A463846FDF74DF98246042061683B
:10374000A0FB01510B461920A9FB00712A463846FF
:10375000FDF740F96421B0FBF1F000EBC00101EB93
:103760000010AAEB8000322101EB00106421B0FBB5
:10377000F1F000F0F00A04206168A0FB015003465C
:103780001920A9FB00712A463846FDF723F9642168
:10379000B0FBF1F00AEB001A04206168A0FB0151B4
:1037A0000B461920A9FB00712A463846FDF712F98D
:1037B000074604206168A0FB015003461920A9FBBD
:1037C00000B12A465846FDF705F96421B0FBF1F037
:1037D00000EBC00101EB0010A7EB8000322101EBF0
:1037E00000106421B0FBF1F000F00F00504421689C
:1037F00088606BE0FEF7B4FC814604206168A0FBA2
:10380000015003461920A9FB00712A463846FDF7EE
:10381000E1F8824604206168A0FB015003461920AC
:10382000A9FB00712A463846FDF7D4F86421B0FBA5
:10383000F1F000EBC00101EB0010AAEB8000322197
:1038400001EB00106421B0FBF1F000F0F00A04205D
:103850006168A0FB015003461920A9FB00712A46AC
:103860003846FDF7B7F86421B0FBF1F00AEB001A17
:1038700004206168A0FB017003461920A9FB0050D9
:1038800001463A462846FDF7A5F807460420616838
:10389000A0FB015003461920A9FB00B12A46584657
:1038A000FDF798F86421B0FBF1F000EBC00101EBEB
:1038B0000010A7EB8000322101EB00106421B0FB67
:1038C000F1F000F00F00504421688860BDE8F88FE7
:1038D0000010014000140140014691F839002128F0
:1038E0002CD18868B0F5805F0FD10A6A1088C0F3C8
:1038F00008000B685860086918B9086A801C0862DB
:1039000009E0086A401C086205E00B6A581C08625E
:1039100018780B685860C88C401E80B2C88458B9AB
:103920000868C06820F080000B68D8600868C0682C
:1039300040F040000B68D860002070470220FCE790
:103940002DE9F04104460D4617469846069E21E0B3
:10395000701CF8B12EB1FEF72BFAA0EB0800B042B4
:1039600018D92068C06820F4D0702168C860206829
:10397000406920F0010021684861202084F8390066
:1039800084F83A0000BF002084F8380000BF03200C
:10399000BDE8F081206800682840A84201D10120DC
:1039A00000E00020B842D3D00020F1E710B5024873
:1039B000FFF73EF910BD0000545D002000BFFEE798
:1039C0000FB4054B10B503A9044A029800F0F6F8AD
:1039D00010BC5DF814FB000095430008A80000200F
:1039E00002480068C0F30220704700000CED00E0C0
:1039F00010B5002804DB0A07130E054A135406E02D
:103A00000A07140E034A00F00F031B1FD45410BD05
:103A100000E400E018ED00E002E008C8121F08C151
:103A2000002AFAD170477047002001E001C1121F3F
:103A3000002AFBD1704700002DE9FF5F82B0002112
:103A4000DDE90430020DDDF840B0034318D044F640
:103A50001050A2F2FF3242431514119801281FD0D2
:103A6000A5EB0B00401C5FEA000A4FF000064E4F2A
:103A7000DFF83891B046504615D5CAF1000413E07E
:103A8000119801244AA3012801D16FEA0B01029881
:103A9000119AC0E90031C0E9024206B0BDE8F09FCA
:103AA000CBF10000DFE704460021404A491842EB11
:103AB0000450CDE9001012E0E00707D032463B4643
:103AC00040464946FDF770F88046894632463B46F7
:103AD00010461946FDF768F806460F466410002C9C
:103AE000EAD1DDE90401DDE90023BAF1000F06DACD
:103AF000FDF75AF842464B46FDF756F805E0FDF74C
:103B0000C5F842464B46FDF7C1F804460E46002272
:103B1000284BFDF76BFA03D84FF0FF30014607E062
:103B20000022254B20463146FCF797FFFDF745FA6A
:103B3000102409E0002C0ADB0A220023FCF74AFFCC
:103B4000039B30321A55641E50EA0102F2D1641C04
:103B5000039AC4F111031444119A012A03D00122DB
:103B600008430DD10AE0084304D000204FF0110BA8
:103B7000119072E7A3EB0B056D1E0DE05B4504DDB4
:103B80004FF0000205F1010504E003DA4FF00002F6
:103B9000A5F10105002AECD002981199C0E9023183
:103BA000C0E9004579E70000000014400000F03F44
:103BB000300000000000F0430000E03F2DE9FF4F1F
:103BC00095B09B468946064600250FE2252877D109
:103BD00000242746F84A0121059400E0044316F822
:103BE000013F203B01FA03F01042F7D130782A2838
:103BF00011D06FF02F033078A0F13002092A16D8C7
:103C0000059A44F0020402EB820203EB42021044E4
:103C1000761C0590EFE759F8042B0592002A03DA89
:103C2000504244F40054059044F00204761C30786D
:103C30002E2816D116F8010F44F004042A280DD0BE
:103C40006FF02F023078A0F13003092B09D807EB71
:103C5000870302EB4303C718761CF3E759F8047B8C
:103C6000761C30786C280FD006DC4C2817D06828DA
:103C70000DD06A2814D104E0742810D07A280FD10E
:103C80000DE044F400140AE044F4801401E044F42C
:103C900040147278824202D104F58014761C761C9E
:103CA000307866280BD013DC582877D009DC002840
:103CB00075D04528F6D04628F4D047281AD19DE182
:103CC00018E0632835D0642879D0652812D195E1B1
:103CD000702873D008DC6728F1D069286FD06E286F
:103CE0000DD06F2806D1B5E073282CD0752875D07B
:103CF000782874D05A46179990476D1C75E1C4F323
:103D00000250022809D003280DD0D9F80010042849
:103D10000DD00D6009F1040967E1D9F80010EA1728
:103D2000C1E90052F6E7D9F800100D80F2E70D70F6
:103D3000F0E719F8041B8DF8001000208DF8010041
:103D4000EA46012003E059F804AB4FF0FF30610769
:103D50004FF0000102D40DE008F101018846B9429C
:103D60000FDA8045F8DB1AF808100029F4D108E0D2
:103D700008F1010188468142FADB1AF8081000298F
:103D8000F6D105985B46A0EB080721463846179AFE
:103D900000F094FA284400EB080507E04DE029E123
:103DA0000DE01AF8010B5A4617999047B8F101082F
:103DB000F7D25B4621463846179A13E142E00A22C1
:103DC0000092C4F302524FF0000A022A08D059F8B8
:103DD00004CB032A4FEAEC710AD00DE029E02AE077
:103DE00009F1070121F00702F2E802C1914609E05A
:103DF0000FFA8CFC4FEAEC71042A03D14FFA8CFCC9
:103E00004FEAEC71002907DA0A460021DCF1000CC8
:103E100061EB02012D2202E0220504D52B228DF850
:103E20000420012203E0E20701D02022F7E79046B8
:103E300059E00A2102E010220DE010214FF0000AA3
:103E400000910BE010224FF0000A44F00404082710
:103E5000009203E008224FF0000A0092C4F30252DD
:103E6000022A05D059F804CB0021032A08D009E022
:103E700009F1070121F00702F2E802C1914605E0CD
:103E80001FFA8CFC042A01D10CF0FF0C4FF0000843
:103E9000220728D5702806D0009B83F0100353EA30
:103EA0000A0305D00EE040228DF80420012208E02C
:103EB0005CEA010206D030228DF804208DF805005E
:103EC00002229046009B83F0080353EA0A030AD1BA
:103ED0005CEA010201D1620705D530228DF8042089
:103EE0004FF001087F1E582804D034A003900EA87C
:103EF00002900DE036A0F9E753466046009AFCF7C1
:103F000069FD84460398825C0298401E029002700C
:103F10005CEA0100F0D1029806A9081A00F1200A13
:103F2000600702D524F4803400E00127574502DD04
:103F3000A7EB0A0000E0002000EB0A0100900598C2
:103F40004144401A0590E00306D45B462146179A87
:103F5000059800F0B3F90544002706E001A85A4689
:103F6000C05D179990476D1C7F1C4745F6DBE00349
:103F70000CD55B462146179A059800F09FF9054439
:103F800004E030205A46179990476D1C0099481E4E
:103F900000900029F5DC08E0029802995A46007862
:103FA000491C0291179990476D1CBAF10001AAF1C2
:103FB000010AF1DC65E100000928010030313233EB
:103FC0003435363738396162636465660000000055
:103FD000303132333435363738394142434445463F
:103FE0000000000000F058F90544761C30780028E5
:103FF0007FF4ECAD19B02846BDE8F08F620700D41D
:10400000062709F1070222F0070CFCE80223E1462B
:1040100003F000485FEA080C02D00FF2702C0DE0AC
:104020005FEA045C02D50FF2682C07E05FEAC47C0B
:1040300002D00FF2602C01E0AFF2700C4FF0FF38AD
:1040400023F00043CDF850C065280CD006DC45288D
:1040500009D046281DD047283DD13DE0662818D01C
:1040600067287ED138E00021112F01DB112000E00C
:10407000781CCDE9000106A90EA8FFF7DDFCDDE9FB
:104080000F010E9A03910021009207F1010A049199
:104090004DE04FF000400097CDE9011006A90EA8B1
:1040A000FFF7CAFCDDE90F0203920E9B1199002273
:1040B000DDF80CA00093049211B9791C00EB010A01
:1040C000B7EB0A0004D4C0F1FF3007F1010A0490F5
:1040D000AAEB0700019044E0012F00DA012700213C
:1040E000112F01DD112000E03846CDE9000106A9BD
:1040F0000EA8FFF7A1FCDDE90F010E9A0391002144
:1041000004910092BA4621070CD40399514500DA74
:104110008A46BAF1010F05DD009AAAF10101515C4E
:10412000302908D0B84202DA10F1040F06DA012172
:10413000CDE9011015E0AAF10101E9E7002805DC4D
:10414000049901440491AAEB000102E0411C51458D
:1041500000DD8A460499401A401C01904FF000404F
:104160000290200704D40198504501DBCDF804806B
:1041700000208DF84F0002980DF14F07B0F1004F6D
:1041800025D02B200E9002984FF0020800280CDA60
:10419000404202902D200E9007E00A210298FCF781
:1041A00031FE3031029007F8011DB8F10001A8F18D
:1041B0000108F2DC02980028EFD1791E0E980870F1
:1041C000307800F0200040F0450007F8020D12A8FA
:1041D000C01B00F107081498007800B1012000EB23
:1041E0000A01019801EBE07105984144401A401E14
:1041F0000590E00306D45B462146179A059800F027
:104200005DF805441498007818B15A4617999047FC
:104210006D1CE00324D55B462146179A059800F0F3
:104220004DF805441CE00498002807DBDDE9030194
:10423000884203DD0098405C179901E0179930200F
:104240005A469047049805F10105401C04900198D6
:10425000401E019004D12E205A46179990476D1C9C
:10426000BAF10001AAF1010ADDDC05E017F8010B43
:104270005A46179990476D1CB8F10001A8F1010842
:10428000F4DC5B462146179A0598ABE62D0000004A
:104290002B000000200000002DE9F041044600251D
:1042A0001E461746880404D405E039462020B0474E
:1042B0006D1C641EF9D52846BDE8F0812DE9F0415A
:1042C000044600251E469046C80301D5302700E06D
:1042D0002027880404D505E041463846B0476D1CC8
:1042E000641EF9D52846BDE8F081000008B50548F0
:1042F0000068054B054A312100900548FCF7F9F9A3
:1043000008BD0000A000002000600020FC4A00085A
:10431000D06100202DE9F04104460D4626462F4687
:1043200004483A46314603680348FBF749FFBDE8B5
:10433000F0810000A0000020D06100202DE9F041B4
:1043400080464FF0E0208569FDF732FD0746542096
:1043500008FB00F6AE420ED900BFFDF729FDB842BA
:10436000FBD00B482844841B00BF4FF0E02080693D
:10437000A042FAD80AE0AC1B00BF4FF0E0208069F1
:10438000A04203D9FDF714FDB842F6D0BDE8F08194
:104390002048010013B50C464FF6FF730122694611
:1043A0000248FEF79CFD00981CBD0000545D0020F3
:1043B0000146084600020012704700002DED108BE8
:1043C00086B000BFFDF706FDFEF7A2FFFEF712FE66
:1043D000FEF7F4FDFEF780FEFEF7A0FEFCF730FED0
:1043E0000A20FDF7AFFB02E0F9A0FFF7E9FA002091
:1043F000FEF761FF0028F7D1FBA0FFF7E1FA1720D5
:10440000FDF784FDFD49FE48FDF798F9FD4BFE4A96
:104410004FF4FA61F948FCF72FFA002525E0FA4835
:104420000068FCF7C0FC41EC1B0B9FEDF80B53EC54
:10443000102BFCF7B9FB41EC190BF04800EB8500A1
:1044400090ED000A10EE101A0846FCF7ACFC41ECA7
:104450001A0B53EC192BFCF7A1FB41EC180BFCF7E2
:10446000B5FCE64941F825006D1CB5F5FA6FD6DBC1
:10447000E84AE949E248FDF78DF8E84AE849DF48AB
:10448000FDF788F8FFF732FF40E2E64800780028A1
:10449000FAD0E548C0780004E349097940EA0120F0
:1044A000E149497908430490DF4880790004DE49F6
:1044B000C97940EA0120DC49097A0843059004984B
:1044C000FFF776FF02900598FFF772FF03900298BE
:1044D0000490039805909DED050AF8EE400ACE4839
:1044E00090ED001ACB4890ED000A00EE810ACF480B
:1044F00080ED000AC9480068FCF755FC41EC190B37
:10450000C7480068FCF74FFC41EC1B0BBE48006835
:10451000FCF749FC41EC1F0B9FEDBC0B53EC102B3F
:10452000FCF742FB41EC1D0B0498FCF72FFC41EC1F
:104530001E0B53EC1D2BFCF731FB41EC1C0B53EC19
:104540001B2BFCF731FB41EC1A0B53EC192BFCF73E
:1045500084FA41EC180BFCF739FCB5490860B34804
:1045600090ED000AB348B449098800EB810080ED62
:10457000000AAF4890ED000AB04800EB860080EDDD
:10458000000AAA4890ED000ABDEEC00AAC4880EDD2
:10459000000A0068AB49AC4A128841F82200A648DC
:1045A0000088401CA4490880A7480088401CA649F0
:1045B0000880761C242E6DD1A44A24219F48FCF744
:1045C00013F9A24890ED000ABDEEC00A10EE100AE1
:1045D0009F49A04A128841F822009E480088401C4A
:1045E0009C49088099480068FCF7DDFB41EC180BFA
:1045F00053EC182B98A0FFF7E3F900F023FA954845
:1046000000887D2845D1002092490880B9207D236B
:104610008F4A95490090954800F084F992490968BD
:10462000491E924A52F821208F490968891E8F4BF2
:1046300053F82110501AFCF798FB41EC1B0B53EC7C
:104640001B2B9FED8B0B51EC100BFCF71FFB41EC70
:104650001A0B9FED890B53EC102BFCF7A5FA41ECDC
:10466000190B9FED870B53EC102BFCF70FFB41EC64
:10467000180BFCF7ABFB84490860084690ED000A74
:10468000BDEEC00A10EE101A80A0FFF799F900F0F5
:10469000D9F90026684800881C286CD11220664988
:1046A00008807D496348FFF735FE002456E07B48CB
:1046B0000068C0B9784901EBC40090ED000A784861
:1046C0007849098800EB810080ED000A7548008870
:1046D000401C74490880084600887D283DD101208F
:1046E0006E49086039E06D480068012835D17C22A8
:1046F0006D496B48001DFCF72BF9674901EBC400BD
:1047000090ED000A684880ED7C0A7D22114600F099
:104710006FF9664880ED000A5F4A02EBC40090ED35
:10472000000A6248D0ED000A30EE600ADFED600A50
:1047300030EE200A10EE101A0846FCF734FB41EC6C
:10474000180B53EC182B5BA0FFF73AF900F07AF93D
:104750007D2253495448FCF7FBF8641C052CA6DB6A
:104760001222584933482830FCF7F2F81222314916
:104770005448FCF7EDF834480088B0F5966F25DD15
:10478000002031490880A5204FF496632D4A4E49F8
:1047900000904E4800F0C6F84B490968491E4B4A44
:1047A00052F8212048490968891E484B53F82110C6
:1047B000501AFCF7DAFA41EC1A0B53EC1A2B9FED66
:1047C0002C0B51EC100BFCF761FA81E09AE0000031
:1047D00031323932BCC4B4E6C6F7C9E8D6C3CAA779
:1047E000B0DC0D0A00000000BCC4B4E6C6F7C9E89E
:1047F000D6C3B3C9B9A60D0A000000007C3D002055
:104800003C1E00203C0000203800002066666666E2
:104810006666EE3F200000201800002024000020E3
:104820001C0000207F000020005E0020040000200B
:1048300008000020AC00002040000020A40200205E
:104840000C0000201C07002042000020280000204F
:10485000340300204600002061646420332C302C97
:1048600025302E660000000014000020001E0020ED
:104870000000000000004E400000000000B07C403E
:104880000000000000004240340000206E312E760F
:10489000616C3D25640000008401002000000020C0
:1048A000DC19002048000020D01B00202C00002034
:1048B0000000C84261646420322C302C25302E6602
:1048C000000000003C01002010000020C41D00205A
:1048D00041EC190B1FED180B53EC102BFCF764F98E
:1048E00041EC180BFCF772FA09490860084690ED94
:1048F000000ABDEEC00A10EE101A06A0FFF760F81D
:1049000000F0A0F800200649087000BFBDE50000D7
:10491000300000206E302E76616C3D256400000072
:104920007F000020F0B505461C46059E01200027AB
:104930000F6030E052F82070B7422BDD52F820C0F3
:10494000471E52F82770BC4524DD012300E05B1CA4
:10495000C718A74207DA52F8207000EB030C52F890
:104960002CC06745F3D052F8207000EB030C52F8CE
:104970002CC067450CDD0F680F2F09DAD1F800C095
:104980000CF101070F6045F82C005F1C384402E071
:10499000184400E0401C671E8742CBDCF0BD10B518
:1049A0000B46012220E000EB820494ED000A114640
:1049B00009E04C1E00EB8404D4ED000A00EB8104F6
:1049C000C4ED000A491E002909DD4C1E00EB8404D9
:1049D000D4ED000AF4EEC00AF1EE10FAE9DC00EBC7
:1049E000810484ED000A521C9A42DCDB10BD0000F9
:1049F0002DE9F0412DED028B06460C461746B046D8
:104A0000002513E008EB85003A460D49FBF7A0FFAF
:104A100021460B48FFF7C3FF601C00EBD071491023
:104A2000074A02EB810191ED008A6D1CE01B401CDE
:104A3000A842E7DCB0EE480ABDEC028BBDE8F0818D
:104A40000C5E002010B54FF6FF73032202490348A5
:104A5000FEF745FA10BD000098000020545D0020CC
:104A600000061016000610160000000000000000EE
:104A70000102030406070809000000000102030404
:104A80001D000000484D9A3B3EE0B33B5C01FB3B00
:104A90005222373CB363823CB090B13C14E6E63C12
:104AA000E4E20F3DD3A52C3D383C483D812F613DCC
:104AB0007928763DF501833D17F2873D549F893D66
:104AC00017F2873DF501833D7928763D812F613DC1
:104AD000383C483DD3A52C3DE4E20F3D14E6E63CCE
:104AE000B090B13CB363823C5222373C5C01FB3B4B
:104AF0003EE0B33B484D9A3B31000000F3BA7BBA2D
:104B0000512642BADB87B4B9814FAB3935B3AD3AE0
:104B10007F77283BCD6C783BA156943B115F8A3B55
:104B2000D9731C3BFC429DBA7263CEBB2A3246BC91
:104B300054278DBC6D7BA3BC194497BCD9D338BC1A
:104B40005B7B193B0C34B53C37F33E3DC741963D8A
:104B50007126CB3DEF44F73DBB440A3EB4640F3EA3
:104B6000BB440A3EEF44F73D7126CB3DC741963D1D
:104B700037F33E3D0C34B53C5B7B193BD9D338BC95
:104B8000194497BC6D7BA3BC54278DBC2A3246BC0C
:104B90007263CEBBFC429DBAD9731C3B115F8A3B4A
:104BA000A156943BCD6C783B7F77283B35B3AD3A2B
:104BB000814FAB39DB87B4B9512642BAF3BA7BBA1D
:104BC000E04B000800000020AC000000183A00088C
:104BD0008C4C0008AC00002034650000283A000826
:104BE00000000000000000000000000000000000C5
:104BF00000000000000000000000000000000000B5
:104C000000000000000000000000000000000000A4
:104C10000000000000000000000000000000000094
:104C20000000000000000000000000000000000084
:104C30000000000010000000010000000024F4004B
:104C4000020101000000000200000000010001015B
:104C5000000000000101000001010D000000010042
:104C60000000000000000000000000000000000044
:104C70000000000000000000FFFFFF000000000037
:0C4C80000A00000001000000000000001D
:040000050800018965
:00000001FF
