:020000040800F2
:10000000801A00209D01000883260008272500088B
:1000100081260008B5110008712B000800000000BF
:10002000000000000000000000000000B5270008EC
:100030004112000800000000A52600080128000861
:10004000B7010008B7010008B7010008B7010008B0
:10005000B7010008B7010008B7010008B7010008A0
:10006000B7010008B7010008B7010008B701000890
:10007000B7010008B7010008B7010008B701000880
:10008000B7010008B7010008B7010008B701000870
:10009000B7010008B7010008B701000843120008C3
:1000A000B7010008B7010008B7010008B701000850
:1000B000B7010008A5280008B7010008B70100082B
:1000C000B7010008B7010008B7010008B701000830
:1000D000B7010008652B0008B7010008B701000848
:1000E000B7010008B7010008B7010008B701000810
:1000F000B7010008B7010008B7010008B701000800
:10010000B7010008B7010008B7010008B7010008EF
:10011000B7010008B7010008B7010008B7010008DF
:10012000B7010008B7010008B7010008B7010008CF
:10013000B7010008B7010008B7010008B7010008BF
:10014000B7010008B7010008B7010008B7010008AF
:10015000B7010008B7010008B9110008B70100088D
:10016000B7010008B7010008B7010008B70100088F
:10017000B7010008B7010008B7010008000000003F
:10018000B7010008B7010008DFF80CD000F024FE2A
:100190000048004721350008801A002006488047A3
:1001A00006480047FEE7FEE7FEE7FEE7FEE7FEE75C
:1001B000FEE7FEE7FEE7FEE7892800088901000860
:1001C0002DE9F00F6FF003042DED0C8B5FEAD30ADD
:1001D000D0E901C7B0F8009004EB89040CEB0408E7
:1001E0009FEDFE9A18BF4FEAD90B00F0C18100BF06
:1001F00091ED000AB0EE493A88ED000A91ED010A4E
:10020000F0EE430A88ED010A91ED020AB0EE431ABE
:1002100088ED020A91ED030AF0EE431A88ED030A15
:1002200091ED040AB0EE432A88ED040A91ED050A27
:10023000F0EE432A88ED050A91ED060AF0EE433A06
:1002400088ED060A91ED070A203188ED070ADCEDFA
:10025000007A9CED017ADCED026A9CED036ADCED2C
:10026000045A9CED055ADCED064AB0EE434A3D4681
:100270000CF11C0408F120085FEA0B0600F026814F
:10028000D5ED008A94ED008A26EE280A65EEA89A3C
:1002900025EE28AA27EEA8BA64EEA8AA67EE28BA27
:1002A00026EEA8CA68EE28CAD5ED018A32EE000A09
:1002B00032EEA92A73EE0A2A30EE8BBA33EEAA3A4E
:1002C000D5ED020A74EE2C3A71EE8C1AD4ED017A57
:1002D00031EE2B1A27EE28DA26EEA8CA66EE28BAE7
:1002E00025EEA84A65EE289A24EEA8AA68EE28AA68
:1002F00067EEA8CA94ED027A7BEE0D8A31EE0C1AF5
:1003000071EEAB1A30EE040A32EE292A72EE8A2A16
:1003100033EE2A3A73EEAC3A66EEA0CA66EE20BA25
:1003200065EEA09A25EE20AA24EEA04A68EE20AA47
:1003300027EEA0BA27EE20CAD5ED030AD4ED036A52
:1003400030EE0A0A32EE042A78EEAC8A31EE2B1A2D
:1003500071EEA91A72EEAA2A33EE0B3A73EE8C3ABA
:1003600066EE20CA65EEA0BA65EE209A24EEA04A99
:1003700028EE20AA67EEA0AA27EE20BA26EEA0CA91
:10038000D5ED040A78EEAC8A31EE2B1A71EEA91A7B
:1003900030EE040A32EE0A2A72EEAA2A33EE0B3A43
:1003A00073EE8C3A65EEA0CA94ED046A65EE20BA4D
:1003B00024EEA0BA28EE204A67EEA09A27EE20AAE3
:1003C00066EEA0AA26EE20CAD5ED050AD4ED055AA0
:1003D00031EE2B1A71EE8B1A78EEAC8A30EE040AED
:1003E00032EE292A72EE8A2A33EE2A3A73EE8C3ADA
:1003F00065EE20CA24EEA0BA68EE20BA27EEA04A25
:1004000067EE209A26EEA0AA66EE20AA25EEA0CAE4
:10041000D5ED060A30EE040A32EE292A27EE204AEC
:1004200094ED065A72EE8A2A66EEA09A78EEAC8AAD
:1004300031EE0B1A71EEAB1A33EE2A3A73EE8C3AA8
:1004400026EE20AA65EEA0AA64EEA0BA28EE20CA85
:1004500027EEA0BA65EE20CAD5ED070A30EE040AF1
:1004600032EE294A72EE8A9A33EE2AAAD4ED074A6E
:1004700031EE0C1A78EEAB8A28EE20CA71EE8B1A98
:1004800073EEACAA66EE202A67EEA0BA27EE20BA79
:1004900026EEA02A25EEA03A65EE203A24EEA08AA8
:1004A00074EE222A78EE8C0A31EE2B1A71EE8B1A3A
:1004B00030EE022A39EE833A7AEE233A3AEE884A4F
:1004C00020342035761E7FF4DBAE00BF19F007061E
:1004D00036D000BF95ED008A94ED000A241D67EE2A
:1004E000889A67EE088A26EE88AA66EE08AA25EEA4
:1004F00088BA65EE08BA24EE88CA20EE088AF0EEC3
:10050000477AB0EE667AF0EE466AB0EE656AF0EED3
:10051000455A70EEA90A31EE281A71EE8A1A32EEA7
:100520002A2A72EE8B2A33EE2B3A73EE8C3A34EE93
:10053000084AB0EE645A2D1DF0EE404A761EC9D12D
:10054000C2ED000A82ED011AC2ED021A82ED032A01
:10055000C2ED042A82ED053AC2ED063A82ED074A61
:100560002032BAF1010A0CF1200C7FF441AE00BF39
:1005700013F0070A43D000BFB1EC010A3E1D0CF195
:100580000404B9F10103A8EC010ADCED000A97EDBF
:10059000001AB0EE490A00EE810A29D0B3F1004FEB
:1005A0007DD2002B24DD251F341F13F0010F07D04F
:1005B000D5ED010A94ED011A241D2D1D00EE810ACE
:1005C0005B1015D0D5ED010A94ED011A00EE810AF9
:1005D000D5ED020A94ED021A02E0000000000000CE
:1005E00000EE810A5B1E04F1080405F10805E9D15B
:1005F000A2EC010ABAF1010A0CF1040CBCD140686A
:10060000A9F10104A3081FD0B3F1004F54D2002B6D
:100610001ADD624601461D4692ED000A81ED000A90
:1006200092ED010A81ED010A92ED020A81ED020AC2
:1006300092ED030A103281ED030A10316D1EEBD1E9
:100640000CEB031C00EB031014F0030202BFBDEC23
:100650000C8BBDE8F00F7047B2F1004F42D2002A78
:100660001ADD001FACF1040112F0010F05D091ED6D
:10067000010A80ED010A001D091D52080CD000BFBF
:1006800091ED010A80ED010A91ED020A083180ED39
:10069000020A0830521EF3D1BDEC0C8B00E002E0E0
:1006A000BDE8F00F7047F4EC010A5B1EB6EC011ACE
:1006B00000EE810AF7D19BE79CED000A80ED000A6D
:1006C0009CED010A80ED010A9CED020A80ED020A10
:1006D0009CED030A0CF1100C80ED030A10305B1E38
:1006E000EAD1B1E7BCEC010A521EA0EC010AF9D133
:1006F000D2E770B504460498218008448000011FA9
:100700001D461846A26000F07CF8656070BD930835
:1007100013D0D0ED001A90ED011AD0ED020A90ED41
:10072000030AC1ED001A81ED011AC1ED020A81ED43
:10073000030A103010315B1EEBD112F0030208BF28
:100740007047B2F1004F1DD2002AD8BF7047001F7A
:10075000091F12F0010F05D090ED010A001D81ED77
:10076000010A091D520808BF704790ED010A81ED8A
:10077000010A90ED020A083081ED020A0831521E8A
:10078000F3D17047B0EC010A521EA1EC010AF9D175
:1007900070472DE9F05F0546002092469B4688464B
:1007A0000646814640241BE02846414647462246ED
:1007B00000F02CFA53465A46C01A914110D3114604
:1007C0001846224600F013FA2D1A67EB01084F462F
:1007D00022460120002100F00AFA17EB00094E41E1
:1007E000201EA4F10104DFDC484631462A46434678
:1007F000BDE8F09FD2B201E000F8012B491EFBD208
:1008000070470022F6E710B513460A46044619461B
:10081000FFF7F0FF204610BD2DE9FE4F804681EA2C
:100820000300C00F0C46009021F0004123F000456A
:10083000B8EB0200A94105D24046214690461C462D
:100840000B46024623F00040104347D0270DC7F364
:100850000A00C3F30A510290401A019040286BDA53
:10086000C3F3130040F4801B0098924620B100238C
:10087000D2EB030A63EB0B0B01985946C0F140021F
:10088000504600F0B4F906460D4650465946019AC6
:1008900000F0CCF910EB08006141002487EA115206
:1008A00084EAE7731A4340D0009A62B3019A012A9E
:1008B0004FEA075215DC001B61EB02014FF00042CA
:1008C00002EA0752CDE90042001C41F58011324690
:1008D0002B4600F003FA03B0BDE8F08F40462146F6
:1008E000F9E7001B61EB0201001C41F580130018C1
:1008F0005B412018A2F5001747EB030140EAD570D1
:10090000B6196D4111E06D084FEA360645EAC0752B
:100910004FEA0752001B61EB0201001C41F58011F8
:1009200049084FEA30000019514132462B4603B0C6
:10093000BDE8F04F00F0C3B9009801224000002349
:10094000D0EB020263EBE073009821464FEAE074BB
:10095000B8EB000061EB0401E9E783F000435BE7DB
:1009600081F0004158E72DE9FE4F81EA030404F0CD
:10097000004421F0004100944FF0000B23F00043AD
:1009800050EA01045ED052EA03045BD0C3F30A5478
:10099000C1F30A552C44A4F2F3340194A0FB025491
:1009A000C1F3130141F48011C3F3130343F4801323
:1009B00001FB024400FB034E840A970A44EA815477
:1009C00047EA8357A4FB076802958D0A05FB078554
:1009D0004FEA932C04FB0C542705029D4FEA06585E
:1009E00047EA1637B5EB08056EEB070C870E920E3B
:1009F00047EA811742EA8312A7FB0201B6EB0B011B
:100A000064EB00042B0D43EA0C335E1844EB1C50DE
:100A1000DA465146E7FB0201C5F313044FEA0B33F4
:100A200043EA14534FEA0432019C43EA0603A4F15B
:100A30000C040294009CCDE900B400F04FF903B01F
:100A4000BDE8F08F00200146F9E72DE9F04D81EA7D
:100A5000030404F0004B21F0004514464FF0000A57
:100A600023F0004150EA050220D054EA01021DD0D3
:100A7000C5F30A570246C5F31303C1F31300C1F3CC
:100A80000A5640F4801543F48013A7EB0608101BA8
:100A9000D64608F2FD3873EB050002D308F10108D1
:100AA00001E092185B41B8F1000F03DA0020014623
:100AB000BDE8F08D00204FF48011064684460EE01C
:100AC000171B73EB050705D3121B63EB05030643E6
:100AD0004CEA010C49084FEA300092185B4150EA99
:100AE0000107EDD152EA030012D082EA040083EA42
:100AF0000501084305D0101BAB4106D2012200239B
:100B000006E000224FF0004302E06FF001025310B4
:100B10001AEB06004CEB085110EB0A0041EB0B01FD
:100B2000BDE8F04D00F0CBB80EB5C10F80EAE07023
:100B30000844CA07002140F233438DE80E000A46FC
:100B40000B4600F0CBF803B000BD0EB540F23341C8
:100B500002910021CDE900110A460B4600F0BEF8D3
:100B600003B000BD00F0004230F000400AD0C10DDB
:100B700001F56071C0F3160042EA0151C208400756
:100B80001143704700200146704701F0004330B424
:100B900021F0004150EA010206D00A0DA2F5607270
:100BA000C1F31301002A02DC30BC00207047440F5F
:100BB00044EAC104C100E01830BC00EBC25000F0B0
:100BC00047B830B50B46014600202022012409E039
:100BD00021FA02F59D4205D303FA02F5491B04FAF6
:100BE00002F52844151EA2F10102F1DC30BD202AD5
:100BF00004DB203A00FA02F1002070479140C2F174
:100C0000200320FA03F3194390407047202A04DBA5
:100C1000203A21FA02F00021704721FA02F3D04075
:100C2000C2F120029140084319467047202A06DB92
:100C3000CB17203A41FA02F043EAE07306E041FAAA
:100C400002F3D040C2F12002914008431946704798
:100C50000029A8BF7047401C490008BF20F00100D0
:100C6000704710B4B0FA80FC00FA0CF050EA0104AE
:100C700004BF10BC704749B1CCF1200421FA04F440
:100C800011FA0CF118BF012121430843A3EB0C0119
:100C9000CB1D4FEA00614FEA102042BF002010BC7C
:100CA000704700EBC35010440029A4BF10BC70472C
:100CB000401C490008BF20F0010010BC704710B56F
:100CC000141E73F1000408DA401C41F1000192186F
:100CD0005B411A4301D120F0010010BD2DE9F04D18
:100CE00092469B4611B1B1FA81F202E0B0FA80F26D
:100CF00020329046FFF77BFF04460F4640EA0A0089
:100D000041EA0B0153465A46084313D0114653EAB1
:100D1000010019D0C8F140025046FFF777FF0546A1
:100D20000E46504659464246FFF761FF084305D03C
:100D3000012004E020463946BDE8F08D002005433F
:100D400046EAE0762C4337430A986305E40AA0EBB1
:100D500008000022FD0A44EA47540A3002D5002068
:100D60000146E9E7010510196941DDE90845001967
:100D70006941BDE8F04DA2E7C1F30A52C1F3130186
:100D800040F2FF3341F480119A4202DA002001461A
:100D9000704740F233439A42A2F2334202DC52429D
:100DA000FFF734BFFFF723BF30B5041E71F1000415
:100DB00004DB4FF00044404264EB0101141E73F168
:100DC000000405DB1C464FF00043524263EB040372
:100DD000994208BF904230BD064C074D06E0E068DE
:100DE00040F0010394E8070098471034AC42F6D372
:100DF000FFF7CEF93C3800085C38000810B5172022
:100E000000F0EBFC03490120C1F8B002BDE810403E
:100E100000F016B80080404210B5084900240120B7
:100E20000C710D398870C91C887000F01DF900B173
:100E300001240A2000F056FB204610BD330000209C
:100E40003EB5112000F0D0F8642000F04BFB0620E6
:100E500000F0CAF84FF47A7000F044FB112000F063
:100E6000C3F8642000F03EFB6A460C21202000F00D
:100E700063F907A001F07EFE00246D4621462A5D3D
:100E800008A001F077FE641CE4B20C2CF6D33EBD42
:100E9000726561642064656661756C7420524547B3
:100EA0003A0D0A0025642025780D0A0070B50A4E17
:100EB00005460020C6F8B0020446002000F092F873
:100EC000641CE4B205F8010B092CF6D30120C6F826
:100ED000B002002070BD0000008040423F4810B5C5
:100EE0003F4A73210170127842703D4A00210F324F
:100EF0001378547841EA831343EA4413947843EA1D
:100F00000413D478127943EAC40343EA420242F05C
:100F10008102334B827010229B1CC2701A785C785D
:100F200041EAC2129B7842EA04121A432C4B027126
:100F30005B1D1A785C7841EAC2129B7842EA04127F
:100F40001A434271264A14321378547841EA431303
:100F500043EA0413947843EAC403D47843EA84034D
:100F60001479527943EA4403134343F0C002827177
:100F70001B4A1A321378547841EA431343EA0413A4
:100F8000947843EAC403D47843EA84031479527909
:100F900043EA44031343C371114B01720B331A78B4
:100FA0005C7841EAC21242EA84129C78DB7842EA19
:100FB00084021A4342F002024272094A083213784C
:100FC00041EAC3115378927841EA830141EA420130
:100FD00041F0010181720C21C17210BD94150020F5
:100FE0002400002001F060BB70B5094D04460020CC
:100FF000C5F8B002642005F52C7502F05FFA2046B2
:1010000001F052FB642002F059FA0120286070BD03
:101010000080404210B5084900240C710D398C70D5
:10102000C91C8C7000F020F800B101240A2000F0E7
:1010300059FA204610BD000033000020094910B5C0
:10104000012008710D3905208870C91C00248870A2
:1010500000F00AF800B101240A2000F043FA20460B
:1010600010BD000033000020FEB50026FFF736FF5C
:101070001E4D0B216A1C412000F05EF80A2000F092
:1010800031FA6A460C21202000F056F80A2000F0C0
:1010900029FA17A001F06EFD002421462A5D18A050
:1010A00001F068FD641CE4B20C2CF6D316A001F02C
:1010B00061FD00246F46285D3A5D904205D044B141
:1010C000082C06D00B2C04D0012621460CA001F0E0
:1010D00051FD641CE4B20C2CEDD32EB10DA000BF69
:1010E00001F048FD3046FEBD0EA0F9E79415002042
:1010F0005752495445205245473A0D0A0000000016
:1011000025642025780D0A00524541442052454768
:101110003A0D0A005245472077726974652065725E
:10112000720D0A0052454720777269746520737505
:1011300063636573730D0A002DE9F0411C4F064689
:10114000002014460D46C7F8B002642002F0B6F93C
:10115000304601F0A9FA642002F0B0F9681EC0B26E
:1011600001F0A2FA70064FF0000609D415E06420E1
:1011700002F0A4F9207801F097FA761CF6B2641C0C
:10118000AE42F4D30BE0642002F098F90020FFF7A0
:1011900029FF761C04F8010BF6B2AE42F3D36420AB
:1011A00002F08CF90120C7F8B002BDE8F081000020
:1011B00000804042FEE70000014800F059B80000FE
:1011C0003415002001681823CAB2103AB2FBF3F2BA
:1011D000054B6FF30901032A9B5CC36500D9091D08
:1011E0008165084670470000A837000810B5014621
:1011F00000208B698A6A4FF0C07453B1B3F5005F69
:1012000015D072B1012A0CD0022A0AD0032A09D1C2
:1012100004E01AB1012A06D0022A03D1C96AC90121
:1012200000D5012010BDC96AA142FAD010BD002A24
:10123000F7D0012AF2D0022AF3D0032AF3D010BD4E
:1012400070474FF4807000F06DB9704790F835101A
:10125000022903D08021416501207047052180F8D3
:1012600035100068016821F001010160002070471D
:101270002DE9F84304464FF00009CDF8009063488B
:101280004FF41651A56D0068B0FBF1F72E6894F885
:101290005C10082000FA01F131420FD021680A6881
:1012A00052070BD50A6822F004020A6094F85C1019
:1012B0008840A860606D40F00100606594F85C10A3
:1012C0004FF0010808FA01F0304208D0216849695E
:1012D000090604D5A860606D40F00200606594F8CE
:1012E0005C1004208840304208D0216809688907D2
:1012F00004D5A860606D40F00400606594F85C104F
:1013000010208840304218D021680968090714D598
:10131000A86020680168490304D50068000308D567
:10132000A16C07E00168C90503D4016821F0080138
:101330000160216C09B12046884794F85C10202098
:101340008840304231D021680968C9062DD5A8608F
:1013500094F8350005282068016806D0490347D570
:10136000006800031DD4616C1CE021F016010160CF
:101370002068416921F080014161206C08B9A06CAE
:1013800020B12068016821F00801016094F85C1028
:101390003F208840A86084F8349084F83580216D1F
:1013A0001FE0E16B09B120468847606D00282BD013
:1013B000606DC00714D0052084F8350020680168EE
:1013C00021F0010101600098401C0090B84203D850
:1013D00020680068C007F6D184F8349084F835801E
:1013E000E16C002910D001B02046BDE8F043084769
:1013F0000168C905D5D4016821F01001016084F8A5
:10140000349084F83580CCE7BDE8F88320000020D4
:101410002DE9F041044600F073F906465CB1002561
:1014200084F83450022084F835002068016821F0E7
:10143000010101600DE00120BDE8F08100F060F9DC
:10144000801B052805D920206065032084F835001D
:10145000F2E720680068C007F0D1226811682048D0
:101460000140D4E901031843D4E903363343184358
:1014700063691843A3691843E3691843236A18434F
:101480000843616A042903D1D4E90B1319430843C3
:10149000106020684069666A20F0070130460E43FC
:1014A000012704280CD1A06A0643E06A40B1204617
:1014B000FFF79CFE20B14020606584F83570BAE7E4
:1014C000206846612046FFF77DFE94F85C203F21AE
:1014D00091408160656584F835700020ACE70000BC
:1014E0003F8010F070B5044600F00AF90546601C14
:1014F00002D004480078044400F002F9401BA042E6
:10150000FAD370BD14000020B0F5807F06D10448E6
:10151000D0F82002002801D101F0B4B870470000D3
:1015200000004042044910B50A68024202D0086037
:10153000FFF7EAFF10BD0000143C01402DE9F84F11
:1015400000224FF0010803254FF00F0E0B6808FA38
:1015500002F42340A3426ED14E68012E05D0022E24
:1015600003D0112E01D0122E12D186684FEA420C00
:1015700005FA0CF7BE43CF6807FA0CF737438760CC
:101580004668A6430C79C4F3001494403443446085
:10159000C668570005FA07FC8C6826EA0C06BC40B2
:1015A0003443C4604C68022C01D0122C13D1D408EF
:1015B00000EB8404A346D4F8209054074FEAD46A81
:1015C0000EFA0AF629EA06090E6906FA0AF646EA4A
:1015D0000906CBF8206006680C7926EA0C0604F0B0
:1015E0000304BC40344304604C68E40065D5364CC9
:1015F000266846F480462660246822F0030604F438
:1016000080440094314C3444A446D4F808489607EA
:10161000370F0EFA07F6B4432D4EB04201D1002623
:1016200024E02C4EB04201D101261FE02A4EB042E8
:1016300002D102261AE040E0284EB04201D1032632
:1016400014E0274EB04201D104260FE0254EB042EF
:1016500001D105260AE0244EB04201D1062605E05C
:10166000224EB04201D1072600E00826BE402643A4
:10167000CCF808681E4E34684F689C43FF0300D5C1
:101680001C4334601A4C241D26684F689E43BF03D8
:1016900000D51E432660164E083634684F689C43BA
:1016A000FF0200D51C433460114E0C3634684F687D
:1016B0009C43BF0200D51C433460521C102AFFF427
:1016C00045AFBDE8F88F00004438024000300140CB
:1016D000000002400004024000080240000C0240EA
:1016E000001002400014024000180240001C02409A
:1016F000003C01400AB1816170470904FBE700002A
:10170000014880687047000014000020024881688A
:101710000278114481607047140000200B4810B516
:10172000016841F400710160016841F48061016069
:10173000016841F480710160032000F08DF8002001
:1017400000F006F800F024F8002010BD003C024034
:1017500070B50D4D04464FF47A712878B1FBF0F066
:101760000A490968B1FBF0F000F099FC48B9102C67
:1017700007D200222146501E00F04EF800206C6077
:1017800070BD012070BD000014000020200000206A
:101790000A4808B5016841F480410160006800F41E
:1017A000804000900548001F016841F080510160B1
:1017B000006800F08050009008BD000044380240EE
:1017C000002809DB00F01F02012191404009800040
:1017D00000F1E020C0F88012704700280DDB00F017
:1017E0001F02012191404009800000F1E020C0F873
:1017F0008011BFF34F8FBFF36F8F7047002809DB55
:1018000000F01F02012191404009800000F1E0201A
:10181000C0F8001170470000F0B40E4B1B680C4676
:10182000C3F30223C3F10705042D00D90425191DB4
:10183000072901D2002300E0DB1E012606FA05F18C
:10184000491E214099409E40761E16403143F0BC0F
:1018500001F0A0B90CED00E0064900F007020868AD
:101860004FF6FF03184040EA0220034A1043086085
:10187000704700000CED00E00000FA052DE9F0478C
:101880000E46050065D0DFF81481D8F80000F7B2E5
:1018900000F00F00B04207D288F80070D8F80000BE
:1018A00000F00F00B04254D128683D4C810712D59A
:1018B000400703D5206840F4E050206028780007F6
:1018C00003D5206840F4604020602068A96820F0BB
:1018D000F000084320602878C0072DD030496868A0
:1018E0000839012812D0022813D0032811D0096822
:1018F000890700292DDA216821F0030101432160C5
:10190000FFF7FEFE814641F2883A0EE0096889033E
:10191000EFE709688901ECE7FFF7F2FEA0EB0901A8
:10192000514502D90320BDE8F0872068696800F0BE
:101930000C00B0EB810FEFD1D8F80010404601F059
:101940000F01B14207D90770006800F00F00B042E4
:1019500001D00120E7E72878400705D52068E9682D
:1019600020F4E050084320602878000706D520685E
:10197000296920F4604040EAC100206000F038F896
:101980002168084AC1F30311515CC8400649086048
:1019900006480068FFF7DCFE0020C4E7003C024078
:1019A00008380240B037000820000020180000204E
:1019B0000448054900680968044AC1F38221515C62
:1019C000C84070472000002008380240C037000897
:1019D0000448054900680968044AC1F34231515C72
:1019E000C84070472000002008380240C037000877
:1019F000154810B5006810F00C02144813D04110BF
:101A0000042A0FD0082A0ED10F4C241F2268236805
:101A100002F03F025B0207D52068C0F38810A0FBEC
:101A2000010106E0084610BD2168C1F38811A1FB41
:101A300000010023FEF7ADFE2168C1F30141491CFE
:101A40004900B0FBF1F010BD083802400024F4005A
:101A50002DE9F84F04006ED02078DFF83C93C007E2
:101A6000A9F104054AD009F104000168C1F381011C
:101A7000012908D00068C0F3810002280AD1D9F8F2
:101A80000000400206D52868800337D5606800282A
:101A9000E1D033E06068B0F5803F10D0B0F5A02F02
:101AA000286810D020F480302860286820F4802036
:101AB00028606068A8B1FFF723FE06460DE028689D
:101AC00040F48030F4E740F480202860F7E700BF5E
:101AD000FFF716FE801B642873D828688003F7D5AB
:101AE0000CE0FFF70DFE064605E000BFFFF708FE1D
:101AF000801B6428F0D828688003F7D42078DFF8AA
:101B00009C8280074FF0000A3ED5A348001D016863
:101B100011F00C0F08D00068C0F3810002280BD12F
:101B2000D9F80000400207D42868800716D5E0687D
:101B3000012800D112E02BE1E068B8B10120C8F81B
:101B40000000FFF7DDFD064605E000BFFFF7D8FD0A
:101B5000801B0228C0D828688007F7D5286821692B
:101B600020F0F80040EAC10028600DE0C8F800A0AD
:101B7000FFF7C6FD064604E0FFF7C2FD801B022802
:101B80001FD828688007F7D42078000722D5824E16
:101B900083486169703671B101210160FFF7B0FDC2
:101BA000074604E0FFF7ACFDC01B022809D83068E7
:101BB0008007F7D50EE0C0F800A0FFF7A1FD0746AB
:101BC00005E082E0FFF79CFDC01B02287DD830684D
:101BD0008007F7D42078400768D5DFF8BCB100272C
:101BE0000BF13C0BDBF80000C0000BD4DBF800105D
:101BF00041F08051CBF80010DBF80000012700F025
:101C000080500090674E3068C00510D4306840F4B2
:101C100080703060FFF774FD009005E0FFF770FD05
:101C20000099401A022850D83068C005F6D55A4E9F
:101C3000A0686C3601280FD00528306810D020F03D
:101C400001003060306820F004003060A068B8B156
:101C5000FFF756FD00900FE0306840F00100F4E718
:101C600040F004003060F7E7FFF74AFD0099411AA1
:101C700041F28830814266D830688007F4D50EE0A2
:101C8000FFF73EFD009007E0FFF73AFD0099411A8B
:101C900041F28830814256D830688007F4D42FB1A1
:101CA000DBF8001021F08051CBF80010A069C8B318
:101CB0003949091D0968C1F3810102294AD0022866
:101CC000504607D0C8F8600000E03CE0FFF718FD80
:101CD00004463BE04746C8F86000FFF711FD0646A2
:101CE00005E000BFFFF70CFD801B02282BD82868F9
:101CF0008001F7D4D4E907010843A16A2A4A4908B8
:101D000002EB0141626A41EA8211084394F82C1007
:101D100040EA0161C9F8001001203866FFF7F0FCC5
:101D2000044606E036E000BFFFF7EAFC001B02288D
:101D300009D828688001F7D52CE000BFFFF7E0FC48
:101D4000001B022802D90320BDE8F88F2868800113
:101D5000F4D41FE00128F7D0D9F80000E26900F4BC
:101D60008001914214D1226A00F03F0191420FD1CB
:101D700047F6C071626A0140914209D1A26A00F43B
:101D80004031914204D1E16A00F07060884201D094
:101D90000120D9E70020D7E704380240000047427D
:101DA000800E4742007000400000FFFF70B5040045
:101DB00005D00025A56294F8510010B106E001207D
:101DC00070BD84F85050204600F030F8022084F8AE
:101DD00051002068016821F040010160D4E901014F
:101DE0000843D4E903121143084361690843218B76
:101DF00001F400710843E1690843216A0843A16ABC
:101E0000084321680860A069042101EA1040616A62
:101E10000843216848602068C16921F40061C161FC
:101E20006565012084F85100002070BDF0B587B0D1
:101E3000044614216846FEF7E4FC1C4920688842E9
:101E400032D11B480024016841F4804101600068E0
:101E500000F48040059016481038016841F00401F4
:101E60000160016801F004010591016841F002017F
:101E700001600068022500F0020005900C20CDE909
:101E8000000502AA0326052782E8D0006946094812
:101E9000FFF754FB6802CDE9000502AA694682E813
:101EA000D0000548FFF74AFB07B0F0BD00380040FE
:101EB0004038024000080240000402402DE9F84F7B
:101EC000044690F8500000270A9E1D4692468B4615
:101ED0004FF0010901280ED0012084F85000FFF7CF
:101EE0000FFC804694F85100616801280CD0B1F5D0
:101EF000827F07D102E00220BDE8F88FA16809B90E
:101F0000042801D00227C2E0BBF1000F27D0BAF1AC
:101F1000000F24D01DB394F85100042802D00520EE
:101F200084F8510000206065C4F838A0E587A587D3
:101F3000C4F830B0E586A586206460642068016836
:101F4000490603D4016841F040010160E068B0F542
:101F5000006F606805D0E8B3012D46D07FE001270F
:101F600095E008B1012D39D1206B21680088C86047
:101F7000206B801C2063E08E401EE0862EE02068EF
:101F8000816889070FD5E18E69B1B9F1010F0AD1D6
:101F9000216B0988C160206B801C2063E08E401E8D
:101FA000E0864FF0000920688168C9070CD0E18FF6
:101FB00051B1C068A16B0880A06B801CA063E08F4A
:101FC000401EE0874FF00109FFF79AFBA0EB0800E5
:101FD000B04200E009E001D3701C50D1E08E00282F
:101FE000CDD1E08F0028CAD13FE0206B2168007876
:101FF0000873206B401C2063E08E401EE0862EE0BC
:102000002068816889070FD5E18E69B1B9F1010FA8
:102010000AD1216B09780173206B401C2063E08E8C
:10202000401EE0864FF0000920688168C9070CD087
:10203000E18F51B1C068A16B0870A06B401CA06318
:10204000E08F401EE0874FF00109FFF759FBA0EB3E
:102050000800B04202D3701C01D010E07EB1E08EC7
:102060000028CDD1E08F0028CAD142463146204613
:1020700000F02AFB28B101272020606507E0032734
:1020800005E0A06818B92068C16880680090012048
:1020900084F85100002084F8500038462CE710B531
:1020A000401EB0F1807F01D3012010BD4FF0E0242D
:1020B00060610F21601700F06DFD0020A061072016
:1020C0002061002010BD70477047704770B504460E
:1020D000006801694FF00005C943890715D4C1683C
:1020E000C943890711D4E91E0161012020772068C6
:1020F00080698007204602D0FFF7E7FF04E000F088
:1021000098F8204600F096F8257720680169C943C1
:10211000490717D4C168C943490713D46FF00401B4
:102120000161022020772068806910F4407F2046FA
:1021300002D0FFF7CAFF04E000F07BF8204600F071
:1021400079F8257720680169C943090716D4C16861
:10215000C943090712D46FF00801016104202077F8
:102160002068C0698007204602D0FFF7AEFF04E078
:1021700000F05FF8204600F05DF8257720680169DF
:10218000C943C90617D4C168C943C90613D46FF03F
:1021900010010161082020772068C06910F4407F99
:1021A000204602D0FFF791FF04E000F042F82046FD
:1021B00000F040F8257720680169C943C90708D1B4
:1021C000C168C943C90704D1891E0161204600F0D6
:1021D00032F820680169C943090609D4C168C943B6
:1021E000090605D46FF0800101612046FFF76BFFFF
:1021F00020680169C943490609D4C168C943490631
:1022000005D46FF040010161204600F015F8206808
:102210000169C94389060BD4C168C943890607D43B
:102220006FF0200101612046BDE87040FFF74CBF10
:1022300070BD7047704770477047704770B502684F
:1022400004461068D168536910F00F0F52D003F0A4
:10225000010501F490762E435FD0C20705D0CA0570
:1022600003D5E26B42F00102E263420705D5DA07CB
:1022700003D0E26B42F00202E263820705D5DA077F
:1022800003D0E26B42F00402E263020707D501F0DB
:1022900020022A4303D0E26B42F00802E263E26BC1
:1022A000002A33D0800604D5880602D5204600F0E7
:1022B00015FB20684069E16BC0F38010090700D46A
:1022C00028B3204600F0FCFA2068416949061AD577
:1022D000416921F040014161606BA0B11B4901657A
:1022E000606BFEF7B3FF002810D0606B016DBDE896
:1022F00070400847830610D58B060ED52046BDE8F2
:10230000704000F0EBBA2046FFF797FF70BD204603
:10231000FFF793FF0020E06370BD030606D50B06B0
:1023200004D52046BDE8704000F0B8BB4006F3D5A8
:102330004806F1D5D168204621F04001D160202126
:1023400084F8391000F0EEF870BD0000B1280008E4
:1023500070B5040004D094F83900002510B106E0EF
:10236000012070BD84F83850204600F023F8242066
:1023700084F839002068C16821F40051C16020460A
:1023800000F0F8FA2068016921F4904101612068A9
:10239000416921F02A0141612068C16841F400517E
:1023A000C160E563202084F8390084F83A000020F9
:1023B00070BD000070B586B0064614216846FEF771
:1023C00020FA24493068884242D123480025016818
:1023D00041F010010160006800F0100005901E48F7
:1023E0001438016841F0010101600068694600F09D
:1023F000010005904FF4C06000900220CDE9010576
:1024000003200390072004901448FFF797F8154C19
:10241000134820604FF0006060604020C4E902056E
:102420000001C4E904058001A561C4E90750204604
:102430006562FEF7EDFF08B1FEF707FF3463002287
:1024400011462520A663FFF7E7F92520FFF7D6F907
:1024500006B070BD00100140443802400000024048
:10246000B86402403415002070472DE9F843044653
:1024700090F839001F4616460D46202850D1B5B1B8
:10248000AEB194F8380001284AD0012084F8380011
:102490004FF00008C4F83C80212084F83900FFF791
:1024A0002FF9A6848146E68484F8388026E001204E
:1024B000BDE8F883E08C401EE084A0684B46B0F590
:1024C000805F4FF000024FF080012046009703D05C
:1024D00000F015FBE8B90DE000F011FBC8B9288841
:1024E0002168C0F308004860206908B16D1C05E050
:1024F000AD1C03E0216815F8010B4860E08C002852
:10250000D8D14B46002240212046009700F0F7FA30
:1025100008B10320CCE7202084F839000020C7E769
:102520000220C5E77047FEE7094808B5016841F495
:10253000800101600068002200F4800000901146D4
:102540004620FFF769F9BDE808404620FFF756B975
:102550003038024070B586B014216846FEF751F954
:1025600023480025016841F080010160016801F005
:1025700080010591016841F004010160016801F0EA
:1025800004010591016841F002010160016801F058
:1025900002010591016841F0010101600068154EDA
:1025A00000F001004FF4805405900022214630468F
:1025B000FFF7A0F80120CDE900400224CDE9025444
:1025C00069463046FEF7BAFFE00100900A48CDE9BF
:1025D000010469460948FEF7B1FF002211461720A1
:1025E000FFF71AF91720FFF709F906B070BD0000D0
:1025F0003038024000040240000021100000024078
:10260000104810B50E4901604FF4827141600021FD
:1026100081600122C160C0E904125202826110226D
:10262000C0E90721416281620A21C162FFF7BEFB56
:10263000002803D0BDE81040FEF707BE10BD000023
:10264000003800405C1400200C4810B50A490160B5
:102650004FF4E1314160002181600C22C160C0E98A
:1026600004128161C161FFF773FE002803D0BDE849
:102670001040FEF7EABD10BD00100140F414002028
:10268000FEE7704710B51720FFF79AF80348FEF7EA
:102690000DFC03490120487010BD0000A01500206A
:1026A000240000207047000001B582B04FF6FF7093
:1026B0000090012301AA02A90248FFF7FFFB9DF841
:1026C00004000EBD5C14002038B504461248134BBC
:1026D0000068B0FBF3F04FF47A73584300906068E1
:1026E000B0F5827F0DD10B4600920022802120465A
:1026F00000F016F870B1606D40F0200060650320B6
:1027000038BD009830B1401E009020688068C043FA
:102710000006F6D5002038BD2000002000366E01EE
:102720002DE9F0411D4617460E460446DDF8188097
:1027300008E0681C06D0FEF7E3FFA0EB0800A84203
:102740000BD255B12068806836EA000030D00020F6
:10275000B842EED10020BDE8F0812068416821F048
:10276000E00141606068B0F5827F0BD1A068B0F5F0
:10277000004F02D0B0F5806F04D12068016821F0CD
:1027800040010160A06AB0F5005F09D120680168CE
:1027900021F4005101602068016841F4005101609A
:1027A000012084F85100002084F850000320D2E773
:1027B0000120CDE7704770B505460A20FEF792FE6E
:1027C00025B1012D05D0022D06D108E0FEF722FC2F
:1027D00001E0FEF733FC044624B1012070BDFEF792
:1027E0001BFBF8E71020FEF7FFFB0A20FEF77AFE3E
:1027F0000820FEF7F9FB0A20FEF774FE002070BDEA
:10280000FEF784BF30B593B030216846FDF7F9FF7D
:1028100014210CA8FDF7F5FF19480025016841F0C7
:1028200080510160006800F08050119015480168E7
:1028300041F4804101600068022400F4804011905E
:102840000120039010200490009406940820CDE904
:102850000750A820CDE9090404200B906846FFF733
:10286000F7F80CA90F2081E831004FF4A0500F9029
:10287000E002109005210CA8FFF700F813B030BD5E
:1028800040380240007000400548016841F4700182
:10289000016003494FF00060803908607047000014
:1028A00088ED00E00148FFF711BC0000B4140020DF
:1028B00010B5806B0021C185C184FFF7BEFC10BD3F
:1028C0000168CA6822F49072CA6001684A6922F0FD
:1028D00001024A61202180F83A10704710B590F843
:1028E0003A10222901D0022010BD8168B1F5805F25
:1028F00011D00169002901681FD0496801F07F03E8
:10290000816A4A1C82620B70C18D491E0904090C40
:10291000C18518D02BE00269816A002A02685268DA
:1029200005D0D2B20A80816A491C8162ECE7C2F309
:1029300008020A80816A891CF7E74A68816A4B1C91
:1029400083620A70E0E70168CA6822F02002CA6068
:102950000168CA6822F48072CA6001684A6922F07C
:1029600001024A61202180F83A10FFF77DFD002026
:1029700010BD00002DE9F041044600680169E268DD
:1029800021F44051114301612169A068E2690843C3
:102990006169114308432168CA6849F20C639A438C
:1029A0000243CA6020684169A26921F44071114361
:1029B0004161E069192764253226B0F5004F354A98
:1029C000354920684FF0000806D0884201D0904277
:1029D00036D1FEF7FDFF35E0884201D0904202D1AA
:1029E000FEF7F6FF01E0FEF7E3FF61684A18A0FB7F
:1029F000070148EB0803FDF7CCFE0146B0FBF5F0FC
:102A00000201B1FBF5F06FF01803584301EB8000B1
:102A100006EBC000B0FBF5F000F0F80002EB40025E
:102A2000B1FBF5F0584301EB800006EBC000B0FBB2
:102A3000F5F000F00700216810448860BDE8F081DF
:102A4000FEF7B6FF61688B0F8A00A0FB0701FDF758
:102A5000A0FE0146B0FBF5F06FF01802504301EB09
:102A6000800006EB0010B0FBF5F000F0F002B1FBC7
:102A7000F5F002EB0012B1FBF5F06FF018035843CC
:102A800001EB800006EB0010B0FBF5F000F00F004A
:102A9000D1E70000001401400010014090F8391007
:102AA000212901D0022070478168B1F5805F016A59
:102AB0000BD04A1C0262026809785160C18C491E21
:102AC0000904090CC1840ED017E009880268C1F31B
:102AD0000801516001690029016A02D0491C0162A4
:102AE000ECE7891CFBE70168CA6822F08002CA6033
:102AF0000068C16841F04001C160002070472DE9C5
:102B0000F041984617460E460446069D1DE0681C97
:102B10001BD02DB1FEF7F4FDA0EB0800A84214D99C
:102B20002068C16821F4D071C1602068416921F03A
:102B300001014161202084F8390084F83A00002026
:102B400084F838000320BDE8F0812068006836EA88
:102B5000000004D00020B842D9D00020F3E70120C3
:102B6000F9E700000148FFF769BB0000F4140020FA
:102B7000FEE700000FB4054B10B503A9044A029804
:102B800000F0EAF810BC5DF814FB000009350008FD
:102B90004C0000200907090E002804DB00F1E020AA
:102BA00080F80014704700F00F0000F1E02080F87A
:102BB000141D704702E008C8121F08C1002AFAD18C
:102BC00070477047002001E001C1121F002AFBD1AD
:102BD000704700002DE9FF5F82B00021DDE904307D
:102BE000020DDDF840B0034318D044F61050A2F2B5
:102BF000FF3242431514119801281FD0A5EB0B009A
:102C0000401C5FEA000A4FF000064E4FDFF8389193
:102C1000B046504615D5CAF1000413E011980124BE
:102C20004AA3012801D16FEA0B010298119AC0E969
:102C30000031C0E9024206B0BDE8F09FCBF10000D0
:102C4000DFE704460021404A491842EB0450CDE931
:102C5000001012E0E00707D032463B4640464946A6
:102C6000FDF781FE8046894632463B4610461946AE
:102C7000FDF779FE06460F466410002CEAD1DDE927
:102C80000401DDE90023BAF1000F06DAFDF76BFE5F
:102C900042464B46FDF767FE05E0FDF7D6FE42468D
:102CA0004B46FDF7D2FE04460E460022284BFEF7A7
:102CB0007BF803D84FF0FF30014607E00022254B98
:102CC00020463146FDF7A8FDFEF756F8102409E02E
:102CD000002C0ADB0A220023FDF75BFD039B303248
:102CE0001A55641E50EA0102F2D1641C039AC4F121
:102CF00011031444119A012A03D0012208430DD173
:102D00000AE0084304D000204FF0110B119072E745
:102D1000A3EB0B056D1E0DE05B4504DD4FF00002DB
:102D200005F1010504E003DA4FF00002A5F1010509
:102D3000002AECD002981199C0E90231C0E900459F
:102D400079E70000000014400000F03F3000000070
:102D50000000F0430000E03F2DE9FF4F95B09B4697
:102D60008946064600250FE2252877D1002427460C
:102D7000F84A0121059400E0044316F8013F203B86
:102D800001FA03F01042F7D130782A2811D06FF001
:102D90002F033078A0F13002092A16D8059A44F0A2
:102DA000020402EB820203EB42021044761C0590FF
:102DB000EFE759F8042B0592002A03DA504244F455
:102DC0000054059044F00204761C30782E2816D169
:102DD00016F8010F44F004042A280DD06FF02F02DA
:102DE0003078A0F13003092B09D807EB870302EBF9
:102DF0004303C718761CF3E759F8047B761C307838
:102E00006C280FD006DC4C2817D068280DD06A2813
:102E100014D104E0742810D07A280FD10DE044F4C6
:102E200000140AE044F4801401E044F44014727881
:102E3000824202D104F58014761C761C3078662814
:102E40000BD013DC582877D009DC002875D0452832
:102E5000F6D04628F4D047281AD19DE118E063281F
:102E600035D0642879D0652812D195E1702873D0C7
:102E700008DC6728F1D069286FD06E280DD06F2844
:102E800006D1B5E073282CD0752875D0782874D079
:102E90005A46179990476D1C75E1C4F302500228F9
:102EA00009D003280DD0D9F8001004280DD00D60EA
:102EB00009F1040967E1D9F80010EA17C1E90052E5
:102EC000F6E7D9F800100D80F2E70D70F0E719F879
:102ED000041B8DF8001000208DF80100EA46012047
:102EE00003E059F804AB4FF0FF3061074FF00001E9
:102EF00002D40DE008F101018846B9420FDA80459D
:102F0000F8DB1AF808100029F4D108E008F10101F3
:102F100088468142FADB1AF808100029F6D1059894
:102F20005B46A0EB080721463846179A00F094FA52
:102F3000284400EB080507E04DE029E10DE01AF810
:102F4000010B5A4617999047B8F10108F7D25B4632
:102F500021463846179A13E142E00A220092C4F350
:102F600002524FF0000A022A08D059F804CB032A73
:102F70004FEAEC710AD00DE029E02AE009F10701DF
:102F800021F00702F2E802C1914609E00FFA8CFC39
:102F90004FEAEC71042A03D14FFA8CFC4FEAEC7132
:102FA000002907DA0A460021DCF1000C61EB02017E
:102FB0002D2202E0220504D52B228DF804200122C7
:102FC00003E0E20701D02022F7E7904659E00A210A
:102FD00002E010220DE010214FF0000A00910BE0FA
:102FE00010224FF0000A44F004040827009203E086
:102FF00008224FF0000A0092C4F30252022A05D0C0
:1030000059F804CB0021032A08D009E009F107018F
:1030100021F00702F2E802C1914605E01FFA8CFC9C
:10302000042A01D10CF0FF0C4FF00008220728D52C
:10303000702806D0009B83F0100353EA0A0305D0E2
:103040000EE040228DF80420012208E05CEA010233
:1030500006D030228DF804208DF80500022290461B
:10306000009B83F0080353EA0A030AD15CEA0102D9
:1030700001D1620705D530228DF804204FF00108F8
:103080007F1E582804D034A003900EA802900DE0B3
:1030900036A0F9E753466046009AFDF77AFB84466E
:1030A0000398825C0298401E029002705CEA010064
:1030B000F0D1029806A9081A00F1200A600702D58B
:1030C00024F4803400E00127574502DDA7EB0A0015
:1030D00000E0002000EB0A01009005984144401AEE
:1030E0000590E00306D45B462146179A059800F048
:1030F000B3F90544002706E001A85A46C05D1799B8
:1031000090476D1C7F1C4745F6DBE0030CD55B4602
:103110002146179A059800F09FF9054404E03020F5
:103120005A46179990476D1C0099481E0090002937
:10313000F5DC08E0029802995A460078491C029191
:10314000179990476D1CBAF10001AAF1010AF1DC50
:1031500065E100000928010030313233343536375B
:1031600038396162636465660000000030313233D3
:103170003435363738394142434445460000000073
:1031800000F058F90544761C307800287FF4ECAD47
:1031900019B02846BDE8F08F620700D4062709F170
:1031A000070222F0070CFCE80223E14603F0004886
:1031B0005FEA080C02D00FF2702C0DE05FEA045CAD
:1031C00002D50FF2682C07E05FEAC47C02D00FF250
:1031D000602C01E0AFF2700C4FF0FF3823F0004399
:1031E000CDF850C065280CD006DC452809D046280B
:1031F0001DD047283DD13DE0662818D067287ED1F4
:1032000038E00021112F01DB112000E0781CCDE90E
:10321000000106A90EA8FFF7DDFCDDE90F010E9AFB
:1032200003910021009207F1010A04914DE04FF053
:1032300000400097CDE9011006A90EA8FFF7CAFCCF
:10324000DDE90F0203920E9B11990022DDF80CA01C
:103250000093049211B9791C00EB010AB7EB0A0044
:1032600004D4C0F1FF3007F1010A0490AAEB070073
:10327000019044E0012F00DA01270021112F01DD28
:10328000112000E03846CDE9000106A90EA8FFF79D
:10329000A1FCDDE90F010E9A039100210491009237
:1032A000BA4621070CD40399514500DA8A46BAF18F
:1032B000010F05DD009AAAF10101515C302908D007
:1032C000B84202DA10F1040F06DA0121CDE901104B
:1032D00015E0AAF10101E9E7002805DC04990144A1
:1032E0000491AAEB000102E0411C514500DD8A4631
:1032F0000499401A401C01904FF0004002902007B2
:1033000004D40198504501DBCDF8048000208DF8ED
:103310004F0002980DF14F07B0F1004F25D02B2040
:103320000E9002984FF0020800280CDA40420290FA
:103330002D200E9007E00A210298FDF742FC303163
:10334000029007F8011DB8F10001A8F10108F2DCB4
:1033500002980028EFD1791E0E980870307800F09E
:10336000200040F0450007F8020D12A8C01B00F134
:1033700007081498007800B1012000EB0A010198B9
:1033800001EBE07105984144401A401E0590E003AE
:1033900006D45B462146179A059800F05DF805446F
:1033A0001498007818B15A46179990476D1CE0039D
:1033B00024D55B462146179A059800F04DF8054440
:1033C0001CE00498002807DBDDE90301884203DDE7
:1033D0000098405C179901E0179930205A469047B1
:1033E000049805F10105401C04900198401E0190CD
:1033F00004D12E205A46179990476D1CBAF100014E
:10340000AAF1010ADDDC05E017F8010B5A4617990D
:1034100090476D1CB8F10001A8F10108F4DC5B468F
:103420002146179A0598ABE62D0000002B000000FE
:10343000200000002DE9F041044600251E461746F5
:10344000880404D405E039462020B0476D1C641E72
:10345000F9D52846BDE8F0812DE9F0410446002564
:103460001E469046C80301D5302700E02027880477
:1034700004D505E041463846B0476D1C641EF9D5B9
:103480002846BDE8F08100007FB5094E04460D4690
:1034900030680090074B084A1D2101A8FDF729F963
:1034A0002A46214601A83368FCF78AFE7FBD00004A
:1034B00048000020AC150020C83700082DE9F04175
:1034C0004FF0E0250446AF69FEF71AF9064654208E
:1034D0004443BC420CD900BFFEF712F9B042FBD006
:1034E0000849381B0844A9698142FCD8BDE8F0812D
:1034F0003C1BA869A042F9D9FEF702F9B042F8D006
:10350000F4E700002048010013B54FF6FF730122D5
:1035100069460248FEF7A9FF00981CBDF41400207C
:1035200008B5FEF7FBF8FFF76DF9FFF713F8FEF7A4
:10353000FBFFFFF765F8FFF787F8FDF75FFC0A2050
:10354000FDF7D0FF02E057A0FFF714FB0020FFF7C4
:1035500032F90028F7D159A0FFF70CFB1720FEF72E
:103560004DF95B4C5B4E4FF496690027307800288C
:10357000FCD05949C878087948798879CA79000413
:10358000097A40EA0220084300020012FDF7DDFA42
:103590009FED521B53EC112BFDF7E5F99FED511BED
:1035A00053EC112BFDF7D9F9FDF7EFFA00EE100AF5
:1035B0004E4884ED010A21884D4B00EB8100491CE7
:1035C00080ED000ABDEEC00A89B210EE102AA2609A
:1035D000608843F82020401C21806080192928D170
:1035E00012202080A3F164014048FFF74DFFDFF86F
:1035F00000811225A8F1640858F82500FDF7B2FAF9
:1036000041EC100B3BA053EC102BFFF7B3FA00F08A
:10361000BFF86D1C192DEFDB344912226431A1F182
:103620004800FDF774F83149122201F16400FDF7FA
:103630006EF860884B46984231D96780AF202C4A9B
:10364000234900900C3102F5965000F06BF82D489C
:10365000E16800EB8100083803C8081AFDF764FA36
:1036600041EC100B53EC102B9FED270B51EC100B82
:10367000FDF7EBF99FED261B53EC112BFDF773F9CA
:10368000FDF783FA00EE100A23A084ED040ABDEED4
:10369000C00A10EE101AFFF76DFA00F079F83770D3
:1036A00064E7000031323932BCC4B4E6C6F7C9E879
:1036B000D6C3CAA7B0DC0D0A00000000BCC4B4E643
:1036C000C6F7C9E8D6C3B3C9B9A60D0A0000000001
:1036D0000000002025000020A01500203BDF4F8DBA
:1036E000976E823F0000000000408540500000209F
:1036F0006001002061646420332C302C25302E665C
:1037000000000000201400200000000000004E40D7
:1037100000000000000074406E302E76616C3D2584
:10372000640000002DE9F043814600240120DDF80B
:103730001C805E1E0C6026E052F82070474521DD9B
:1037400002EB800454F8044CA7421BDD012500E085
:103750006D1C44199C4203DA52F824C06745F7D027
:10376000054452F82550AF420ADD0D680F2D07DAE7
:103770004FEA850C6D1C0D6049F80C00601C02E0DE
:10378000204600E0401CB042D6DBBDE8F0830000DC
:103790004FF6FF73032202490248FEF766BE00009F
:1037A00044000020F4140020000610160006101635
:1037B00000000000000000000102030406070809E1
:1037C00000000000010203041274C53AB672123BF5
:1037D00076AA313B9C15EB3A28FA02BBF95A14BC85
:1037E000B0548DBC6BF8B0BC71DD7FBC56D0C03B13
:1037F00028F9323DC666BD3D25EB103E8D3E363E76
:10380000520B443E8D3E363E25EB103EC666BD3D16
:1038100028F9323D56D0C03B71DD7FBC6BF8B0BC9F
:10382000B0548DBCF95A14BC28FA02BB9C15EB3A73
:1038300076AA313BB672123B1274C53A5C38000866
:103840000000002050000000B42B0008AC38000835
:1038500050000020301A0000C42B000800000000B7
:103860000000000000000000000000000000000058
:103870000100000010000000000000000024F4001F
:10388000020000020000000000000101010D000123
:103890000100000001000101000000000101000022
:0C38A000FFFFFF00190000000000000006
:040000050800018965
:00000001FF
