:020000040800F2
:10000000102500209D010008BB230008F1210008F5
:10001000B9230008650B00086D2A000800000000E5
:10002000000000000000000000000000ED240008B7
:10003000190C000800000000DD2300083925000825
:10004000B7010008B7010008B7010008B7010008B0
:10005000B7010008B7010008B7010008B7010008A0
:10006000B7010008B7010008B7010008B701000890
:10007000B7010008B7010008B7010008B701000880
:10008000B7010008B7010008B7010008B701000870
:10009000B7010008B7010008B70100081B0C0008F1
:1000A000B7010008B7010008B7010008B701000850
:1000B000B7010008DD250008B7010008B7010008F6
:1000C000B7010008B7010008B7010008B701000830
:1000D000B7010008612A0008B7010008B70100084D
:1000E000B7010008B7010008B7010008B701000810
:1000F000B7010008B7010008B7010008B701000800
:10010000B7010008B7010008B7010008B7010008EF
:10011000B7010008B7010008B7010008B7010008DF
:10012000B7010008B7010008B7010008B7010008CF
:10013000B7010008B7010008B7010008B7010008BF
:10014000B7010008B7010008B7010008B7010008AF
:10015000B7010008B7010008690B0008B7010008E3
:10016000B7010008B7010008B7010008B70100088F
:10017000B7010008B7010008B7010008000000003F
:10018000B7010008B7010008DFF80CD000F0FCFA56
:1001900000480047F52D000810250020064880473C
:1001A00006480047FEE7FEE7FEE7FEE7FEE7FEE75C
:1001B000FEE7FEE7FEE7FEE7C1250008890100082B
:1001C0002DE9F05F0546002092469B46884606468C
:1001D000814640241BE0284641464746224600F01F
:1001E0001CFA53465A46C01A914110D3114618467C
:1001F000224600F003FA2D1A67EB01084F4622460B
:100200000120002100F0FAF917EB00094E41201EF1
:10021000A4F10104DFDC484631462A464346BDE8E6
:10022000F09FD2B201E000F8012B491EFBD27047CB
:100230000022F6E710B513460A4604461946FFF7B2
:10024000F0FF204610BD2DE9FE4F804681EA0300F5
:10025000C00F0C46009021F0004123F00045B8EBA0
:100260000200A94105D24046214690461C460B4655
:10027000024623F00040104347D0270DC7F30A0081
:10028000C3F30A510290401A019040286BDAC3F37D
:10029000130040F4801B0098924620B10023D2EB5B
:1002A000030A63EB0B0B01985946C0F1400250461C
:1002B00000F0A4F906460D4650465946019A00F052
:1002C000BCF910EB08006141002487EA115284EA6E
:1002D000E7731A4340D0009A62B3019A012A4FEAA9
:1002E000075215DC001B61EB02014FF0004202EAED
:1002F0000752CDE90042001C41F5801132462B46E1
:1003000000F0F3F903B0BDE8F08F40462146F9E76D
:10031000001B61EB0201001C41F5801300185B41DA
:100320002018A2F5001747EB030140EAD570B61973
:100330006D4111E06D084FEA360645EAC0754FEA97
:100340000752001B61EB0201001C41F580114908B6
:100350004FEA30000019514132462B4603B0BDE848
:10036000F04F00F0B3B90098012240000023D0EB19
:10037000020263EBE073009821464FEAE074B8EBA9
:10038000000061EB0401E9E783F000435BE781F0E3
:10039000004158E72DE9FE4F81EA030404F00044D0
:1003A00021F0004100944FF0000B23F0004350EA8D
:1003B00001045ED052EA03045BD0C3F30A54C1F3D4
:1003C0000A552C44A4F2F3340194A0FB0254C1F367
:1003D000130141F48011C3F3130343F4801301FBB1
:1003E000024400FB034E840A970A44EA815447EA18
:1003F0008357A4FB076802958D0A05FB07854FEA22
:10040000932C04FB0C542705029D4FEA065847EA3B
:100410001637B5EB08056EEB070C870E920E47EA10
:10042000811742EA8312A7FB0201B6EB0B0164EBD2
:1004300000042B0D43EA0C335E1844EB1C50DA46E3
:100440005146E7FB0201C5F313044FEA0B3343EABD
:1004500014534FEA0432019C43EA0603A4F10C044E
:100460000294009CCDE900B400F03FF903B0BDE870
:10047000F08F00200146F9E72DE9F04D81EA0304F1
:1004800004F0004B21F0004514464FF0000A23F021
:10049000004150EA050220D054EA01021DD0C5F304
:1004A0000A570246C5F31303C1F31300C1F30A56FA
:1004B00040F4801543F48013A7EB0608101BD646C2
:1004C00008F2FD3873EB050002D308F1010801E0E2
:1004D00092185B41B8F1000F03DA00200146BDE835
:1004E000F08D00204FF48011064684460EE0171B65
:1004F00073EB050705D3121B63EB050306434CEAB8
:10050000010C49084FEA300092185B4150EA01079C
:10051000EDD152EA030012D082EA040083EA050119
:10052000084305D0101BAB4106D20122002306E090
:1005300000224FF0004302E06FF0010253101AEB6B
:1005400006004CEB085110EB0A0041EB0B01BDE833
:10055000F04D00F0BBB80EB5C10F80EAE070084462
:10056000CA07002140F233438DE80E000A460B46CD
:1005700000F0BBF803B000BD0EB540F2334102916C
:100580000021CDE900110A460B4600F0AEF803B099
:1005900000BDC1F30A5210B5C1F3130140F2FF339D
:1005A00041F480119A4201DA002010BD40F2334339
:1005B0009A42A2F2334203DC524200F02EF810BD00
:1005C000904010BD01F0004330B421F0004150EAEA
:1005D000010206D00A0DA2F56072C1F31301002AD0
:1005E00002DC30BC00207047440F44EAC104C10063
:1005F000E01830BC00EBC25000F031B8202A04DB18
:10060000203A00FA02F1002070479140C2F1200325
:1006100020FA03F3194390407047202A04DB203A64
:1006200021FA02F00021704721FA02F3D040C2F112
:1006300020029140084319467047202A06DBCB1759
:10064000203A41FA02F043EAE07306E041FA02F38D
:10065000D040C2F12002914008431946704700295A
:10066000A8BF7047401C490008BF20F00100704738
:1006700010B4B0FA80FC00FA0CF050EA010404BF98
:1006800010BC704749B1CCF1200421FA04F411FAEE
:100690000CF118BF012121430843A3EB0C01CB1D32
:1006A0004FEA00614FEA102042BF002010BC7047A3
:1006B00000EBC35010440029A4BF10BC7047401C7D
:1006C000490008BF20F0010010BC704710B5141E8F
:1006D00073F1000408DA401C41F1000192185B41FB
:1006E0001A4301D120F0010010BD2DE9F04D9246D2
:1006F0009B4611B1B1FA81F202E0B0FA80F22032E9
:100700009046FFF77BFF04460F4640EA0A0041EAA5
:100710000B0153465A46084313D0114653EA0100D1
:1007200019D0C8F140025046FFF777FF05460E4644
:10073000504659464246FFF761FF084305D0012065
:1007400004E020463946BDE8F08D0020054346EA26
:10075000E0762C4337430A986305E40AA0EB0800CF
:100760000022FD0A44EA47540A3002D5002001461F
:10077000E9E7010510196941DDE9084500196941FA
:10078000BDE8F04DA2E70000064C074D06E0E0682A
:1007900040F0010394E8070098471034AC42F6D3C8
:1007A000FFF7F6FC603000088030000810B5172015
:1007B00000F037FD03490120C1F8B002BDE8104048
:1007C00000F016B80080404210B50849002401200E
:1007D0000C710D398870C91C887000F01DF900B1CA
:1007E00001240A2000F0A2FB204610BD2F000020AB
:1007F0003EB5112000F0D0F8642000F097FB0620F1
:1008000000F0CAF84FF47A7000F090FB112000F06D
:10081000C3F8642000F08AFB6A460C21202000F017
:1008200063F907A002F024F900246D4621462A5DF1
:1008300008A002F01DF9641CE4B20C2CF6D33EBDF6
:10084000726561642064656661756C742052454709
:100850003A0D0A0025642025780D0A0070B50A4E6D
:1008600005460020C6F8B0020446002000F092F8C9
:10087000641CE4B205F8010B092CF6D30120C6F87C
:10088000B002002070BD0000008040423F4810B51B
:100890003F4A73210170127842703D4A00210F32A5
:1008A0001378547841EA831343EA4413947843EA73
:1008B0000413D478127943EAC40343EA420242F0B3
:1008C0008102334B827010229B1CC2701A785C78B4
:1008D00041EAC2129B7842EA04121A432C4B02717D
:1008E0005B1D1A785C7841EAC2129B7842EA0412D6
:1008F0001A434271264A14321378547841EA43135A
:1009000043EA0413947843EAC403D47843EA8403A3
:100910001479527943EA4403134343F0C0028271CD
:100920001B4A1A321378547841EA431343EA0413FA
:10093000947843EAC403D47843EA8403147952795F
:1009400043EA44031343C371114B01720B331A780A
:100950005C7841EAC21242EA84129C78DB7842EA6F
:1009600084021A4342F002024272094A08321378A2
:1009700041EAC3115378927841EA830141EA420186
:1009800041F0010181720C21C17210BDF8200020DC
:100990002000002001F024BD70B5094D0446002060
:1009A000C5F8B002642005F52C7502F0F1F9204677
:1009B00001F016FD642002F0EBF90120286070BD03
:1009C0000080404210B5084900240C710D398C702C
:1009D000C91C8C7000F020F800B101240A2000F03E
:1009E000A5FA204610BD00002F000020094910B5CF
:1009F000012008710D3905208870C91C00248870F9
:100A000000F00AF800B101240A2000F08FFA204615
:100A100010BD00002F000020FEB50026FFF736FFB6
:100A20001E4D0B216A1C412000F05EF80A2000F0E8
:100A30007DFA6A460C21202000F056F80A2000F0CA
:100A400075FA17A002F014F8002421462A5D18A0B8
:100A500002F00EF8641CE4B20C2CF6D316A002F0DF
:100A600007F800246F46285D3A5D904205D044B1F6
:100A7000082C06D00B2C04D0012621460CA001F036
:100A8000F7FF641CE4B20C2CEDD32EB10DA000BF17
:100A900001F0EEFF3046FEBD0EA0F9E7F820002081
:100AA0005752495445205245473A0D0A000000006C
:100AB00025642025780D0A005245414420524547BF
:100AC0003A0D0A00524547207772697465206572B5
:100AD000720D0A005245472077726974652073755C
:100AE00063636573730D0A002DE9F0411C4F0646E0
:100AF000002014460D46C7F8B002642002F048F901
:100B0000304601F06DFC642002F042F9681EC0B26C
:100B100001F066FC70064FF0000609D415E0642071
:100B200002F036F9207801F05BFC761CF6B2641C0A
:100B3000AE42F4D30BE0642002F02AF90020FFF764
:100B400029FF761C04F8010BF6B2AE42F3D3642001
:100B500002F01EF90120C7F8B002BDE8F0810000E4
:100B600000804042FEE70000014800F06DB8000040
:100B70009820002001681823CAB2103AB2FBF3F2A1
:100B8000054B6FF30901032A9B5CC36500D9091D5E
:100B900081650846704700003E30000810B50146E8
:100BA00000208B698A6A4FF0C07453B1B3F5005FBF
:100BB00015D072B1012A0CD0022A0AD0032A09D119
:100BC00004E01AB1012A06D0022A03D1C96AC90178
:100BD00000D5012010BDC96AA142FAD010BD002A7B
:100BE000F7D0012AF2D0022AF3D0032AF3D010BDA5
:100BF00030B50468256825F48025256004686360A5
:100C00008368402B036803D099600068C26030BDE0
:100C10009A600068C16030BD70474FF4807000F08A
:100C2000A5B9704790F83510022903D0802141659D
:100C300001207047052180F835100068016821F017
:100C400001010160002070472DE9F84304464FF090
:100C50000009CDF8009063484FF41651A56D006867
:100C6000B0FBF1F72E6894F85C10082000FA01F14F
:100C700031420FD021680A6852070BD50A6822F06A
:100C800004020A6094F85C108840A860606D40F02F
:100C90000100606594F85C104FF0010808FA01F05B
:100CA000304208D021684969090604D5A860606D02
:100CB00040F00200606594F85C10042088403042E7
:100CC00008D021680968890704D5A860606D40F0E4
:100CD0000400606594F85C1010208840304218D001
:100CE00021680968090714D5A860206801684903CC
:100CF00004D50068000308D5A16C07E00168C905A8
:100D000003D4016821F008010160216C09B120467B
:100D1000884794F85C1020208840304231D0216808
:100D20000968C9062DD5A86094F835000528206803
:100D3000016806D0490347D5006800031DD4616CE3
:100D40001CE021F0160101602068416921F080015A
:100D50004161206C08B9A06C20B12068016821F0C5
:100D60000801016094F85C103F208840A86084F876
:100D7000349084F83580216D1FE0E16B09B1204685
:100D80008847606D00282BD0606DC00714D0052007
:100D900084F835002068016821F0010101600098A5
:100DA000401C0090B84203D820680068C007F6D104
:100DB00084F8349084F83580E16C002910D001B0BB
:100DC0002046BDE8F04308470168C905D5D401684D
:100DD00021F01001016084F8349084F83580CCE76C
:100DE000BDE8F8831C0000202DE9F041044600F026
:100DF000ABF906465CB1002584F83450022084F833
:100E000035002068016821F0010101600DE001203A
:100E1000BDE8F08100F098F9801B052805D9202055
:100E20006065032084F83500F2E720680068C00799
:100E3000F0D12268116820480140D4E90103184329
:100E4000D4E903363343184363691843A36918434D
:100E5000E3691843236A18430843616A042903D1EC
:100E6000D4E90B1319430843106020684069666A8F
:100E700020F0070130460E43012704280CD1A06A58
:100E80000643E06A40B12046FFF788FE20B14020CB
:100E9000606584F83570BAE7206846612046FFF740
:100EA00069FE94F85C203F2191408160656584F87B
:100EB00035700020ACE700003F8010F02DE9F041D4
:100EC0000446866D90F83400002501280DD00120DD
:100ED00084F8340094F835700020012F07D084F88E
:100EE000340002252846BDE8F0810220FBE70227F6
:100EF00084F8357060652046FFF77AFE94F85C1040
:100F00003F208840B0602068016841F01601016010
:100F1000206C20B12068016841F008010160206860
:100F2000016841F001010160DCE7000070B5044692
:100F300000F00AF90546601C02D004480078044419
:100F400000F002F9401BA042FAD370BD100000204F
:100F5000B0F5807F06D10448D0F82002002801D1E6
:100F600001F02CBA7047000000004042044910B55F
:100F70000A68024202D00860FFF7EAFF10BD0000D5
:100F8000143C01402DE9F84F00224FF001080325E1
:100F90004FF00F0E0B6808FA02F42340A3426ED103
:100FA0004E68012E05D0022E03D0112E01D0122E34
:100FB00012D186684FEA420C05FA0CF7BE43CF689F
:100FC00007FA0CF7374387604668A6430C79C4F3E9
:100FD0000014944034434460C668570005FA07FC87
:100FE0008C6826EA0C06BC403443C4604C68022C72
:100FF00001D0122C13D1D40800EB8404A346D4F8FA
:10100000209054074FEAD46A0EFA0AF629EA060934
:101010000E6906FA0AF646EA0906CBF82060066869
:101020000C7926EA0C0604F00304BC403443046047
:101030004C68E40065D5364C266846F48046266048
:10104000246822F0030604F480440094314C3444B4
:10105000A446D4F808489607370F0EFA07F6B443AB
:101060002D4EB04201D1002624E02C4EB04201D1D9
:1010700001261FE02A4EB04202D102261AE040E0CB
:10108000284EB04201D1032614E0274EB04201D1D0
:1010900004260FE0254EB04201D105260AE0244E79
:1010A000B04201D1062605E0224EB04201D107260A
:1010B00000E00826BE402643CCF808681E4E34687F
:1010C0004F689C43FF0300D51C4334601A4C241D19
:1010D00026684F689E43BF0300D51E432660164E08
:1010E000083634684F689C43FF0200D51C433460C7
:1010F000114E0C3634684F689C43BF0200D51C4328
:101100003460521C102AFFF445AFBDE8F88F000090
:101110004438024000300140000002400004024018
:1011200000080240000C024000100240001402407F
:1011300000180240001C0240003C01400AB18161DD
:1011400070470904FBE70000014880687047000011
:1011500010000020024881680278114481607047C5
:10116000100000200B4810B5016841F400710160C7
:10117000016841F480610160016841F4807101609F
:10118000032000F08DF8002000F006F800F024F8AD
:10119000002010BD003C024070B50D4D04464FF4D8
:1011A0007A712878B1FBF0F00A490968B1FBF0F0D8
:1011B00000F099FC48B9102C07D200222146501E9D
:1011C00000F04EF800206C6070BD012070BD000082
:1011D000100000201C0000200A4808B5016841F4F6
:1011E00080410160006800F4804000900548001FC5
:1011F000016841F080510160006800F0805000906B
:1012000008BD000044380240002809DB00F01F023E
:10121000012191404009800000F1E020C0F88012D7
:10122000704700280DDB00F01F02012191404009AA
:10123000800000F1E020C0F88011BFF34F8FBFF3B2
:101240006F8F7047002809DB00F01F0201219140D9
:101250004009800000F1E020C0F800117047000054
:10126000F0B40E4B1B680C46C3F30223C3F1070511
:10127000042D00D90425191D072901D2002300E0FF
:10128000DB1E012606FA05F1491E214099409E40C9
:10129000761E16403143F0BC01F0FABB0CED00E0C5
:1012A000064900F0070208684FF6FF03184040EABD
:1012B0000220034A10430860704700000CED00E074
:1012C0000000FA052DE9F0470E46050065D0DFF86D
:1012D0001481D8F80000F7B200F00F00B04207D236
:1012E00088F80070D8F8000000F00F00B04254D128
:1012F00028683D4C810712D5400703D5206840F48B
:10130000E05020602878000703D5206840F4604052
:1013100020602068A96820F0F00008432060287849
:10132000C0072DD0304968680839012812D002283A
:1013300013D0032811D00968890700292DDA216804
:1013400021F0030101432160FFF7FEFE814641F2D7
:10135000883A0EE009688903EFE709688901ECE73C
:10136000FFF7F2FEA0EB0901514502D90320BDE8C9
:10137000F0872068696800F00C00B0EB810FEFD1B6
:10138000D8F80010404601F00F01B14207D90770AC
:10139000006800F00F00B04201D00120E7E7287894
:1013A000400705D52068E96820F4E0500843206034
:1013B0002878000706D52068296920F4604040EAB3
:1013C000C100206000F038F82168084AC1F3031119
:1013D000515CC8400649086006480068FFF7DCFE1B
:1013E0000020C4E7003C02400838024046300008B4
:1013F0001C0000201400002004480549006809680A
:10140000044AC1F38221515CC84070471C0000208F
:101410000838024056300008044805490068096849
:10142000044AC1F34231515CC84070471C0000209F
:101430000838024056300008154810B5006810F012
:101440000C02144813D04110042A0FD0082A0ED1E0
:101450000F4C241F2268236802F03F025B0207D56D
:101460002068C0F38810A0FB010106E0084610BD0B
:101470002168C1F38811A1FB00010023FEF7A0FE43
:101480002168C1F30141491C4900B0FBF1F010BDD6
:10149000083802400024F4002DE9F84F04006ED013
:1014A0002078DFF83C93C007A9F104054AD009F180
:1014B00004000168C1F38101012908D00068C0F36C
:1014C000810002280AD1D9F80000400206D5286818
:1014D000800337D560680028E1D033E06068B0F55C
:1014E000803F10D0B0F5A02F286810D020F48030B5
:1014F0002860286820F4802028606068A8B1FFF781
:1015000023FE06460DE0286840F48030F4E740F4FE
:1015100080202860F7E700BFFFF716FE801B6428D5
:1015200073D828688003F7D50CE0FFF70DFE064658
:1015300005E000BFFFF708FE801B6428F0D828688C
:101540008003F7D42078DFF89C8280074FF0000AF0
:101550003ED5A348001D016811F00C0F08D00068AB
:10156000C0F3810002280BD1D9F80000400207D453
:101570002868800716D5E068012800D112E02BE129
:10158000E068B8B10120C8F80000FFF7DDFD0646AD
:1015900005E000BFFFF7D8FD801B0228C0D82868EF
:1015A0008007F7D52868216920F0F80040EAC100DB
:1015B00028600DE0C8F800A0FFF7C6FD064604E06D
:1015C000FFF7C2FD801B02281FD828688007F7D4C8
:1015D0002078000722D5824E83486169703671B148
:1015E00001210160FFF7B0FD074604E0FFF7ACFD05
:1015F000C01B022809D830688007F7D50EE0C0F874
:1016000000A0FFF7A1FD074605E082E0FFF79CFD83
:10161000C01B02287DD830688007F7D420784007A7
:1016200068D5DFF8BCB100270BF13C0BDBF80000FC
:10163000C0000BD4DBF8001041F08051CBF8001053
:10164000DBF80000012700F080500090674E306802
:10165000C00510D4306840F480703060FFF774FD2E
:10166000009005E0FFF770FD0099401A022850D85D
:101670003068C005F6D55A4EA0686C3601280FD0E8
:101680000528306810D020F001003060306820F06C
:1016900004003060A068B8B1FFF756FD00900FE07D
:1016A000306840F00100F4E740F004003060F7E7F4
:1016B000FFF74AFD0099411A41F28830814266D80D
:1016C00030688007F4D50EE0FFF73EFD009007E09C
:1016D000FFF73AFD0099411A41F28830814256D80D
:1016E00030688007F4D42FB1DBF8001021F080516E
:1016F000CBF80010A069C8B33949091D0968C1F3C6
:10170000810102294AD00228504607D0C8F860005B
:1017100000E03CE0FFF718FD04463BE04746C8F810
:101720006000FFF711FD064605E000BFFFF70CFD66
:10173000801B02282BD828688001F7D4D4E9070140
:101740000843A16A2A4A490802EB0141626A41EA58
:101750008211084394F82C1040EA0161C9F8001086
:1017600001203866FFF7F0FC044606E036E000BFD3
:10177000FFF7EAFC001B022809D828688001F7D58A
:101780002CE000BFFFF7E0FC001B022802D9032079
:10179000BDE8F88F28688001F4D41FE00128F7D055
:1017A000D9F80000E26900F48001914214D1226A64
:1017B00000F03F0191420FD147F6C071626A0140CB
:1017C000914209D1A26A00F44031914204D1E16A08
:1017D00000F07060884201D00120D9E70020D7E7EF
:1017E0000438024000004742800E4742007000402B
:1017F0000000FFFF70B5040005D00025A56294F835
:10180000510010B106E0012070BD84F85050204610
:1018100000F030F8022084F851002068016821F0BF
:1018200040010160D4E901010843D4E903121143E6
:10183000084361690843218B01F400710843E169A1
:101840000843216A0843A16A084321680860A06927
:10185000042101EA1040616A084321684860206859
:10186000C16921F40061C1616565012084F85100FE
:10187000002070BDF0B587B0044614216846FEF71D
:10188000D7FC1C492068884232D11B4800240168DB
:1018900041F480410160006800F4804005901648E2
:1018A0001038016841F004010160016801F0040191
:1018B0000591016841F0020101600068022500F015
:1018C000020005900C20CDE9000502AA0326052799
:1018D00082E8D00069460948FFF754FB6802CDE969
:1018E000000502AA694682E8D0000548FFF74AFBD6
:1018F00007B0F0BD00380040403802400008024008
:10190000000402402DE9F84F044690F850000027EB
:101910000A9E1D4692468B464FF0010901280ED0C3
:10192000012084F85000FFF70FFC804694F8510026
:10193000616801280CD0B1F5827F07D102E0022056
:10194000BDE8F88FA16809B9042801D00227C2E0D8
:10195000BBF1000F27D0BAF1000F24D01DB394F8CB
:101960005100042802D0052084F851000020606551
:10197000C4F838A0E587A587C4F830B0E586A58609
:101980002064606420680168490603D4016841F05E
:1019900040010160E068B0F5006F606805D0E8B311
:1019A000012D46D07FE0012795E008B1012D39D106
:1019B000206B21680088C860206B801C2063E08E4B
:1019C000401EE0862EE02068816889070FD5E18EF1
:1019D00069B1B9F1010F0AD1216B0988C160206B8F
:1019E000801C2063E08E401EE0864FF000092068D6
:1019F0008168C9070CD0E18F51B1C068A16B088024
:101A0000A06B801CA063E08F401EE0874FF00109AF
:101A1000FFF79AFBA0EB0800B04200E009E001D319
:101A2000701C50D1E08E0028CDD1E08F0028CAD1A3
:101A30003FE0206B216800780873206B401C206316
:101A4000E08E401EE0862EE02068816889070FD571
:101A5000E18E69B1B9F1010F0AD1216B09780173E7
:101A6000206B401C2063E08E401EE0864FF0000992
:101A700020688168C9070CD0E18F51B1C068A16BA3
:101A80000870A06B401CA063E08F401EE0874FF001
:101A90000109FFF759FBA0EB0800B04202D3701C0C
:101AA00001D010E07EB1E08E0028CDD1E08F00287B
:101AB000CAD142463146204600F0A2FC28B1012797
:101AC0002020606507E0032705E0A06818B92068BA
:101AD000C16880680090012084F85100002084F8DB
:101AE000500038462CE710B5401EB0F1807F01D37E
:101AF000012010BD4FF0E02460610F21601700F05D
:101B0000C7FF0020A06107202061002010BD7047A2
:101B10007047000070B590F83C20012A32D00124B3
:101B200080F83C40022280F83D2003685A689D6896
:101B300022F070060A6832435A60134B02689A42D8
:101B400014D0B2F1804F11D0104B9A420ED0104BEE
:101B50009A420BD00F4B9A4208D00F4B9A4205D0B5
:101B60000E4B9A4202D00E4B9A4204D1496825F09E
:101B700080031943916080F83D40002180F83C10BB
:101B8000084670BD022070BD000001400004004006
:101B900000080040000C00400004014000400140EB
:101BA0000018004010B5040003D094F83D0010B1B7
:101BB00007E0012010BD002084F83C00204600F022
:101BC0000DF8022084F83D00211D206800F00CFD76
:101BD000012084F83D00002010BD000008B5006819
:101BE0000B49884212D10B48016841F002010160A3
:101BF0000068002200F00200009011461D20FFF74F
:101C00002FFBBDE808401D20FFF71CBB08BD0000EE
:101C100000040040403802400168CA6842F00102F6
:101C2000CA600068816801F00701062903D00168D5
:101C300041F0010101600020704770B5044690F842
:101C40003C00012817D0012584F83C50022084F87C
:101C50003D002068826822F0770222F47F42826091
:101C60000868502830D00DDC20284DD005DC98B312
:101C700010283BD148E0022070BD302844D04028D5
:101C800034D139E0602828D0702806D0B0F5805FC4
:101C90002CD0B0F5005F29D10AE0CB68D1E9012151
:101CA000206800F005FD2068816841F0770109E0B7
:101CB000CB68D1E90121206800F0FAFC2068816836
:101CC00041F48041816011E0CA684968206800F0F1
:101CD00001FD5021206807E016E0CA6849682068C5
:101CE00000F009FD6021206800F0ECFC84F83D5014
:101CF000002084F83C0070BDCA684968206800F084
:101D0000E9FC40212068EFE7226801461046EBE736
:101D1000704770B50446006801694FF00005C9437B
:101D2000890715D4C168C943890711D4E91E016127
:101D300001202077206880698007204602D0FFF7C5
:101D4000E7FF04E000F098F8204600F096F82577C9
:101D500020680169C943490717D4C168C9434907C5
:101D600013D46FF00401016102202077206880699C
:101D700010F4407F204602D0FFF7CAFF04E000F0D5
:101D80007BF8204600F079F8257720680169C9437F
:101D9000090716D4C168C943090712D46FF00801B6
:101DA0000161042020772068C0698007204602D0A6
:101DB000FFF7AEFF04E000F05FF8204600F05DF8AA
:101DC000257720680169C943C90617D4C168C9438A
:101DD000C90613D46FF01001016108202077206834
:101DE000C06910F4407F204602D0FFF791FF04E065
:101DF00000F042F8204600F040F82577206801699D
:101E0000C943C90708D1C168C943C90704D1891E9C
:101E10000161204600F032F820680169C9430906D3
:101E200009D4C168C943090605D46FF08001016176
:101E30002046FFF76CFE20680169C943490609D4B2
:101E4000C168C943490605D46FF0400101612046CD
:101E500000F015F820680169C94389060BD4C168F0
:101E6000C943890607D46FF0200101612046BDE80F
:101E70007040FFF74DBE70BD7047704770477047A8
:101E80007047000070B5026804461068D168536955
:101E900010F00F0F52D003F0010501F490762E439D
:101EA0005FD0C20705D0CA0503D5E26B42F001023C
:101EB000E263420705D5DA0703D0E26B42F0020283
:101EC000E263820705D5DA0703D0E26B42F0040231
:101ED000E263020707D501F020022A4303D0E26B38
:101EE00042F00802E263E26B002A33D0800604D598
:101EF000880602D5204600F070FC20684069E16B3E
:101F0000C0F38010090700D428B3204600F04EFC2F
:101F10002068416949061AD5416921F040014161B3
:101F2000606BA0B11B490165606BFEF77BFE00286A
:101F300010D0606B016DBDE870400847830610D576
:101F40008B060ED52046BDE8704000F046BC20460A
:101F5000FFF796FF70BD2046FFF792FF0020E06379
:101F600070BD030606D50B0604D52046BDE87040BB
:101F700000F012BD4006F3D54806F1D5D1682046E1
:101F800021F04001D160202184F8391000F02EF9B1
:101F900070BD00001B27000870B5040004D094F841
:101FA0003900002510B106E0012070BD84F83850DA
:101FB000204600F023F8242084F839002068C16806
:101FC00021F40051C160204600F052FC20680169F4
:101FD00021F4904101612068416921F02A014161A9
:101FE0002068C16841F40051C160E563202084F895
:101FF000390084F83A00002070BD000070B586B04A
:10200000064614216846FEF713F9244930688842D1
:1020100042D123480025016841F0100101600068A9
:1020200000F0100005901E481438016841F00101CD
:1020300001600068694600F0010005904FF4C0603F
:1020400000900220CDE901050320039007200490B1
:102050001448FEF797FF154C134820604FF00060BE
:1020600060604020C4E902050001C4E90405800164
:10207000A561C4E9075020466562FEF7B5FE08B1C8
:10208000FEF7CFFD3463002211462520A663FFF73B
:10209000E7F82520FFF7D6F806B070BD0010014024
:1020A0004438024000000240B864024098200020FA
:1020B00070472DE9F843044690F839001F4616464C
:1020C0000D46202850D1B5B1AEB194F838000128A2
:1020D0004AD0012084F838004FF00008C4F83C8052
:1020E000212084F83900FFF72FF8A6848146E68482
:1020F00084F8388026E00120BDE8F883E08C401E9B
:10210000E084A0684B46B0F5805F4FF000024FF0CE
:1021100080012046009703D000F06FFCE8B90DE085
:1021200000F06BFCC8B928882168C0F3080048603B
:10213000206908B16D1C05E0AD1C03E0216815F8AD
:10214000010B4860E08C0028D8D14B46002240218A
:102150002046009700F051FC08B10320CCE7202076
:1021600084F839000020C7E70220C5E770B50446AF
:1021700090F83900202830D169B362B394F8380060
:1021800001282AD0012084F838002162A284E28448
:102190000025E563212084F83900236B1048D863BB
:1021A000236B10481864236B0F48D864206B1346C8
:1021B00005652668206B321DFEF780FE21686FF0F2
:1021C0004000086084F838502068416941F080017F
:1021D0004161002070BD012070BD022070BD000073
:1021E00075270008A32700082B27000870477047B1
:1021F000FEE70000094808B5016841F4800101606C
:102200000068002200F48000009011464620FFF78D
:1022100027F8BDE808404620FFF714B830380240E0
:1022200070B586B014216846FEF702F823480025F1
:10223000016841F080010160016801F080010591B1
:10224000016841F004010160016801F00401059199
:10225000016841F002010160016801F0020105918D
:10226000016841F0010101600068154E00F00100B5
:102270004FF480540590002221463046FEF75EFF61
:102280000120CDE900400224CDE9025469463046E0
:10229000FEF778FEE00100900A48CDE901046946A6
:1022A0000948FEF76FFE002211461720FEF7D8FFFF
:1022B0001720FEF7C7FF06B070BD0000303802409F
:1022C000000402400000211000000240104810B538
:1022D0000E4901604FF4827141600021816001224A
:1022E000C160C0E90412520282611022C0E90721D4
:1022F000416281620A21C162FFF77CFA002803D0A3
:10230000BDE81040FEF78DBC10BD00000038004055
:10231000C01F002010B586B0002418480094019416
:1023200002940394049414490594016040F24731E7
:10233000C0E9011440F2E731C0E903148021816152
:10234000FFF730FC08B1FEF76CFC4FF480500090B2
:1023500069460A48FFF771FC08B1FEF762FC049475
:1023600004A906480594FFF7D5FB002801D0FEF725
:1023700058FC06B010BD00000004004018200020EA
:102380000C4810B50A4901604FF4E1314160002169
:1023900081600C22C160C0E904128161C161FFF754
:1023A000FBFD002803D0BDE81040FEF73ABC10BD8D
:1023B0000010014058200020FEE7704710B517209C
:1023C000FEF722FF0348FEF749FA0349012048704F
:1023D00010BD0000042100202000002070470000F4
:1023E00001B582B04FF6FF700090012301AA02A947
:1023F0000248FFF787FA9DF804000EBDC01F0020B9
:1024000038B504461248134B0068B0FBF3F04FF4A4
:102410007A73584300906068B0F5827F0DD10B4607
:10242000009200228021204600F016F870B1606D05
:1024300040F020006065032038BD009830B1401E98
:10244000009020688068C0430006F6D5002038BDA3
:102450001C00002000366E012DE9F0411D46174694
:102460000E460446DDF8188008E0681C06D0FEF72A
:102470006BFEA0EB0800A8420BD255B12068806823
:1024800036EA000030D00020B842EED10020BDE88E
:10249000F0812068416821F0E00141606068B0F59A
:1024A000827F0BD1A068B0F5004F02D0B0F5806FED
:1024B00004D12068016821F040010160A06AB0F5F4
:1024C000005F09D12068016821F400510160206893
:1024D000016841F400510160012084F8510000209E
:1024E00084F850000320D2E70120CDE7704770B593
:1024F00005460A20FEF71AFD25B1012D05D0022D53
:1025000006D108E0FEF75EFA01E0FEF76FFA044636
:1025100024B1012070BDFEF757F9F8E71020FEF74F
:102520003BFA0A20FEF702FD0820FEF735FA0A20E2
:10253000FEF7FCFC002070BDFEF70CBE30B593B07A
:1025400030216846FDF774FE14210CA8FDF770FEDB
:1025500019480025016841F080510160006800F0D1
:10256000805011901548016841F480410160006875
:10257000022400F480401190012003901020049068
:10258000009406940820CDE90750A820CDE909045D
:1025900004200B906846FEF77FFF0CA90F2081E80E
:1025A00031004FF4A0500F90E002109005210CA8CC
:1025B000FEF788FE13B030BD403802400070004086
:1025C0000548016841F47001016003494FF0006063
:1025D000803908607047000088ED00E00148FFF78F
:1025E00098BB000018200020F0B50268254C264D4D
:1025F000264E274F274B4FF0804CA04209D0604514
:1026000007D0A84205D0B04203D0B84201D09842CA
:1026100004D122F0700E4A6842EA0E02A0421BD09A
:10262000604519D0A84217D0B04215D0B84213D097
:10263000984211D0184DA8420ED0184DA8420BD088
:10264000174DA84208D0174DA84205D0164DA842F4
:1026500002D0164DA84203D122F44075CA682A431D
:102660004D6922F080022A4302608A68C2620A68C9
:102670008262A04201D0984201D10969016301211F
:102680004161F0BD0000014000040040000800402E
:10269000000C0040000401400040014000440140A3
:1026A0000048014000180040001C0040002000408D
:1026B00010B5846842EA032224F47F440A4322438B
:1026C000826010BD826822F070020A4342F0070166
:1026D0008160704710B5036A046A24F00104046243
:1026E000846924F0F00444EA021423F00A020A4345
:1026F0008461026210BD10B5036A23F01003036207
:102700008369046A23F4704343EA023224F0A0038D
:1027100043EA01118261016210BD10B5806B002196
:10272000C185C184FFF7ACFB10BD70B5846B206818
:10273000406994F83910C0F3C0100025212904D154
:1027400018B1E584204600F03FF82068406994F80D
:102750003A10C0F38010222904D118B1E585204633
:1027600000F024F8E06B40F01000E0632046FFF733
:1027700087FB70BD10B50146806B09680968C90503
:102780000CD40021C18401684A6922F080024A61A8
:102790000068C16841F04001C16010BDFFF726FD2F
:1027A00010BD10B5806BFFF722FD10BD0168CA682F
:1027B00022F49072CA6001684A6922F001024A61FB
:1027C000202180F83A1070470168CA6822F0C002E0
:1027D000CA60202180F83910704710B590F83A107F
:1027E000222901D0022010BD8168B1F5805F11D08F
:1027F0000169002901681FD0496801F07F03816ADF
:102800004A1C82620B70C18D491E0904090CC185E6
:1028100018D02BE00269816A002A0268526805D04C
:10282000D2B20A80816A491C8162ECE7C2F30802D5
:102830000A80816A891CF7E74A68816A4B1C8362B7
:102840000A70E0E70168CA6822F02002CA600168E5
:10285000CA6822F48072CA6001684A6922F00102E3
:102860004A61202180F83A10FFF722FC002010BDB9
:102870002DE9F041044600680169E26821F4405105
:10288000114301612169A068E2690843616911434C
:1028900008432168CA6849F20C639A430243CA603C
:1028A00020684169A26921F4407111434161E069E6
:1028B000192764253226B0F5004F354A354920687E
:1028C0004FF0000806D0884201D0904236D1FEF782
:1028D000A3FD35E0884201D0904202D1FEF79CFD75
:1028E00001E0FEF789FD61684A18A0FB070148EB8B
:1028F0000803FDF765FC0146B0FBF5F00201B1FBF2
:10290000F5F06FF01803584301EB800006EBC000B0
:10291000B0FBF5F000F0F80002EB4002B1FBF5F07F
:10292000584301EB800006EBC000B0FBF5F000F06F
:102930000700216810448860BDE8F081FEF75CFD67
:1029400061688B0F8A00A0FB0701FDF739FC014687
:10295000B0FBF5F06FF01802504301EB800006EB7E
:102960000010B0FBF5F000F0F002B1FBF5F002EB67
:102970000012B1FBF5F06FF01803584301EB800033
:1029800006EB0010B0FBF5F000F00F00D1E70000FF
:10299000001401400010014090F83910212901D0A5
:1029A000022070478168B1F5805F016A0BD04A1C34
:1029B0000262026809785160C18C491E0904090C41
:1029C000C1840ED017E009880268C1F30801516084
:1029D00001690029016A02D0491C0162ECE7891CE7
:1029E000FBE70168CA6822F08002CA600068C1681B
:1029F00041F04001C160002070472DE9F041984648
:102A000017460E460446069D1DE0681C1BD02DB1DE
:102A1000FEF79AFBA0EB0800A84214D92068C16811
:102A200021F4D071C1602068416921F00101416148
:102A3000202084F8390084F83A00002084F8380017
:102A40000320BDE8F0812068006836EA000004D069
:102A50000020B842D9D00020F3E70120F9E70000B8
:102A60000148FFF70FBA000058200020FEE70000E1
:102A70000FB4054B10B503A9044A029800F028F8DA
:102A800010BC5DF814FB0000DD2D000840000020A4
:102A90000907090E002804DB00F1E02080F800148B
:102AA000704700F00F0000F1E02080F8141D70471F
:102AB00002E008C8121F08C1002AFAD17047704707
:102AC000002001E001C1121F002AFBD17047000065
:102AD0002DE9FF4F8DB09B460F460446002606E0C9
:102AE00025280BD05A460F999047641C761C2078F5
:102AF0000028F5D111B03046BDE8F08F0025A8467A
:102B00000122984900E0054314F8013F203B02FAF6
:102B100003F00842F7D120782E2817D114F8010FBE
:102B200045F004052A280ED06FF02F022078A0F17E
:102B3000300109290AD808EB880102EB410100EBBA
:102B40000108641CF2E757F8048B641C20786C2899
:102B50000DD004DC4C2812D06A2811D104E074286E
:102B60000DD07A280CD10AE045F4001507E0617811
:102B700045F48015814202D1641C05F58015641C62
:102B80002278692A45D008DC002AB3D0582A69D0B7
:102B9000632A10D0642A08D13BE0702A67D0732AD8
:102BA00013D0752A5CD0782A5CD010465A460F990B
:102BB0009047761CD3E017F8040B8DF80000002036
:102BC0008DF80100E946012003E057F8049B4FF01F
:102BD000FF3069074FF0000501D40AE06D1C454540
:102BE0000DDA8542FADB19F805100029F6D106E066
:102BF0006D1C8542FCDB19F805100029F8D12E4424
:102C000004E019F8010B5A460F9990476D1EF8D24F
:102C1000A5E00A200021CDE90801C5F302500228F1
:102C20000DD001CFC117031E71F100030DDA4FF073
:102C3000000CD0EB0C006CEB01012D2308E0FF1D14
:102C400027F00707F7E80201EDE72B0504D52B2352
:102C50008DF8283001233BE0EB0739D02023F7E73C
:102C60000A2000E010200021CDE9080107E0102033
:102C7000002145F00405CDE908014FF00808C5F32F
:102C8000025002280FD001CF00214FF0000A2B077D
:102C90001FD5702A0DD0DDE908C38CF0100C5CEA5A
:102CA000030C0CD015E0FF1D27F00707F7E8020121
:102CB000EBE740228DF828204FF0010A0BE050EAA4
:102CC000010306D030238DF828308DF82920022307
:102CD0009A46582A04D024A20DF120090B9209E04B
:102CE00026A2F9E7DDE90823FDF76AFA0B9B9B5C56
:102CF00009F8013D50EA0102F4D1ADEB09002030A2
:102D00000890680701D44FF001080899884502DD52
:102D1000A8EB010000E000208046002506E00AA89C
:102D20005A46405D0F9990476D1C761C5545F6DB61
:102D300004E030205A460F999047761CB8F1000104
:102D4000A8F10108F5DC05E019F8010B5A460F99C6
:102D50009047761C0899481E08900029F4DC641CF2
:102D6000C5E60000092801003031323334353637EA
:102D700038396162636465660000000030313233C7
:102D80003435363738394142434445460000000067
:102D90002DE9F0414FF0E0250446AF69FEF7D4F984
:102DA000064654204443BC420CD900BFFEF7CCF980
:102DB000B042FBD00849381B0844A9698142FCD8BD
:102DC000BDE8F0813C1BA869A042F9D9FEF7BCF927
:102DD000B042F8D0F4E700002048010013B54FF6E8
:102DE000FF73012269460248FFF763F900981CBD92
:102DF0005820002090B04FF0AA098DF804908DF86B
:102E00000590F1208DF8060008208DF80700FEF7E8
:102E1000A9F9FFF793FBFFF703FAFFF7EBF9FFF7C9
:102E200055FAFFF777FAFFF7ABFAFDF7BFFC02E0C0
:102E30004EA0FFF71DFE0020FFF759FB0028F7D139
:102E400050A0FFF715FE1720FEF7FCF95248FEF7D9
:102E5000E3FEDFF84881524E4FF4966A002730783F
:102E60000028FCD04F4AD0781179000440EA0120B4
:102E7000517908439179D3790904127A41EA0321FF
:102E800011430002090200120C12010E8DF8081005
:102E9000010C8DF80910010A8DF80A108DF80B004D
:102EA000200E8DF80C00200C8DF80D00200A8DF8F6
:102EB0000E008DF80F40002001A90A5C401C2A4436
:102EC000C0B2D5B20C28F8D38DF810500D22364878
:102ED000FFF74CF92046FDF74FFB9FED341B53ECF9
:102EE000112BFDF757FA9FED331B53EC112BFDF718
:102EF0004BFAFDF74EFBC8F80400304AB8F8001052
:102F00005346444642F82100491C88B2A8F8000004
:102F1000984228D121492780083102F5FA50CDF88E
:102F2000009000F057F8A06800EBD07041102448E2
:102F300000EB8100016850F8040C081AFDF70BFB48
:102F400041EC100B53EC102B9FED1E0B51EC100BB2
:102F5000FDF792FA9FED1D1B53EC112BFDF71AFAAA
:102F6000FDF730FBE0603770002578E73132393209
:102F7000BCC4B4E6C6F7C9E8D6C3CAA7B0DC0D0A1C
:102F800000000000BCC4B4E6C6F7C9E8D6C3B3C9A4
:102F9000B9A60D0A00000000182000200000002043
:102FA0002100002004210020582000203BDF4F8D0D
:102FB000976E823F000000000040854044000020E2
:102FC000841F00200000000000004E4000000000B0
:102FD00000407F402DE9F043814600240120DDF8C8
:102FE0001C805E1E0C6026E052F82070474521DDF3
:102FF00002EB800454F8044CA7421BDD012500E0DD
:103000006D1C44199C4203DA52F824C06745F7D07E
:10301000054452F82550AF420ADD0D680F2D07DA3E
:103020004FEA850C6D1C0D6049F80C00601C02E035
:10303000204600E0401CB042D6DBBDE8F08300062D
:10304000101600061016000000000000000001022B
:103050000304060708090000000001020304000041
:10306000803000080000002044000000B02A000862
:10307000C430000844000020CC240000C02A00080E
:103080000000000000000000000000000000000040
:103090000100000010000000000000000024F40007
:1030A000020000020000000000000101010D00010B
:1030B000010000000100010100000000010100000A
:0430C000000000000C
:040000050800018965
:00000001FF
