:020000040000FA
:100000009802002081010000890100008B0100009E
:100010008D0100008F010000910100000000000030
:10002000000000000000000000000000930100003C
:1000300095010000000000009701000099010000F8
:100040009B0100009B0100009B0100009B01000040
:100050009B0100009B0100009B0100009B01000030
:100060009B0100009B0100009B0100009B01000020
:100070009B0100009B0100009B0100009B01000010
:100080009B0100009B0100009B0100009B01000000
:100090009B0100009B0100009B0100009B010000F0
:1000A0009B0100009B0100009B0100009B010000E0
:1000B0009B0100009B0100009B0100009B010000D0
:1000C0009B0100009B0100009B0100009B010000C0
:1000D0009B010000110D00009B0100009B0100002E
:1000E0009B01000000000000000000000000000074
:1000F0000000000000000000000000000000000000
:1001000000000000000000000000000000000000EF
:1001100000000000000000000000000000000000DF
:1001200000000000000000000000000000000000CF
:1001300000000000000000000000000000000000BF
:1001400000000000DFF80CD000F05EF80048004727
:10015000D516000098020020EFF3108072B67047A9
:10016000EFF310807047EFF3108062B6704730BF36
:10017000704780F311887047EFF3118070470000DB
:100180000648804706480047FEE7FEE7FEE7FEE731
:10019000FEE7FEE7FEE7FEE7FEE7FEE7850E00006E
:1001A000450100002DE9F05F0546002092469B4680
:1001B00088460646814640241BE02846414647467D
:1001C000224600F042F853465A46C01A914110D3D5
:1001D00011461846224600F029F82D1A67EB01084F
:1001E0004F4622460120002100F020F817EB0009BD
:1001F0004E41201EA4F10104DFDC484631462A4668
:100200004346BDE8F09F0000064C074D06E0E0685D
:1002100040F0010394E8070098471034AC42F6D34D
:10022000FFF794FF98180000B8180000202A04DB9C
:10023000203A00FA02F1002070479140C2F12003F9
:1002400020FA03F3194390407047202A04DB203A38
:1002500021FA02F00021704721FA02F3D040C2F1E6
:100260002002914008431946704710B540210320F1
:1002700000F0EAFB4021042000F082FCBDE81040C1
:1002800000F014B810B50849002401200C7126397B
:100290008870C91C887000F005F900B101240A209B
:1002A00001F0B4F9204610BD280000203EB5112011
:1002B00000F0B8F8642001F0A9F9062000F0B2F8C7
:1002C0004FF47A7001F0A2F9112000F0ABF864202D
:1002D00001F09CF96A460C21202000F04BF907A0A0
:1002E00000F00EFF00246D4621462A5D08A000F0B4
:1002F00007FF641CE4B20C2CF6D33EBD726561644A
:100300002064656661756C74205245473A0D0A0099
:1003100025642025780D0A003F4810B53F4A732117
:100320000170127842703D4A0021283213785478C7
:1003300041EA831343EA4413947843EA0413D478DC
:10034000127943EAC40343EA420242F08102334B8A
:10035000827010229B1CC2701A785C7841EAC2122B
:100360009B7842EA04121A432C4B02715B1D1A78E7
:100370005C7841EAC2129B7842EA04121A43427145
:10038000264A2D321378547841EA431343EA041382
:10039000947843EAC403D47843EA84031479527905
:1003A00043EA4403134343F0C00282711B4A3332D1
:1003B0001378547841EA431343EA0413947843EAE8
:1003C000C403D47843EA84031479527943EA44039A
:1003D0001343C371114B01720B331A785C7841EAF5
:1003E000C21242EA84129C78DB7842EA84021A4301
:1003F00042F002024272094A0832137841EAC311FC
:100400005378927841EA830141EA420141F00101C7
:1004100081720C21C17210BD7C0000200000002000
:1004200000F080BC10B504464021042000F0B2FB6F
:10043000642001F005F9204600F074FC642001F00E
:10044000FFF84021BDE81040042000F099BB0000F7
:1004500010B5084900240C7126398C70C91C8C70A9
:1004600000F020F800B101240A2001F0CFF8204666
:1004700010BD000028000020094910B501200871B6
:10048000263905208870C91C0024887000F00AF8FD
:1004900000B101240A2001F0B9F8204610BD000087
:1004A00028000020FEB50026FFF736FF1E4D0B2169
:1004B0006A1C412000F05EF80A2001F0A7F86A46A5
:1004C0000C21202000F056F80A2001F09FF817A018
:1004D00000F016FE002421462A5D18A000F010FE50
:1004E000641CE4B20C2CF6D316A000F009FE002424
:1004F0006F46285D3A5D904205D044B1082C06D085
:100500000B2C04D0012621460CA000F0F9FD641C40
:10051000E4B20C2CEDD32EB10DA000BF00F0F0FD25
:100520003046FEBD0EA0F9E77C000020575249542A
:1005300045205245473A0D0A000000002564202559
:10054000780D0A0052454144205245473A0D0A00B1
:10055000524547207772697465206572720D0A00F2
:1005600052454720777269746520737563636573BC
:10057000730D0A0070B50D4606461446402104204E
:1005800000F008FB642001F05BF8304600F0CAFB85
:10059000642001F055F8681EC0B200F0C3FB70067D
:1005A0004FF0000609D415E0642001F049F82078E6
:1005B00000F0B8FB761CF6B2641CAE42F4D30BE03C
:1005C000642001F03DF80020FFF72AFF761C04F8B4
:1005D000010BF6B2AE42F3D3642001F031F8BDE86E
:1005E00070404021042000F0CBBA000070B5524E9C
:1005F00082B03068514D00F4E020B0F5403F08BFB4
:100600004F4C1AD00EDC002808BF4E4C15D0B0F568
:10061000803F08BF4C4C10D0B0F5003F08BF4B4C9A
:100620000BD009E0B0F5802F08BF494C05D0B0F5DC
:10063000A02F08BF2C4600D000246B4601AA002141
:10064000032000F0F7FB0198002850D0414B1869B7
:100650004228306842D9C0F3090111F4007F18BF65
:1006600041F47E4000D001B2B9B33B48AC4241D125
:100670001A69422A3ED990F8D8000028009819BF7C
:1006800090ED0F0A426A90ED070A4268186901EE80
:10069000101A4228C2F54070B8EEC11AB7EE002A0F
:1006A000F0EE420A60EE011A01EE100AB8EEC11A2D
:1006B00040EE010A2AD902B081EEA00AF0EE420A09
:1006C00070EEC00A00EE104AB8EE400A80EE201A22
:1006D000BCEEC10A10EE100A70BD08E0C0F30C01B8
:1006E00011F4805F18BF41F47040BCD1BCE702B088
:1006F000204670BD90F8D8000028009819BF90EDF2
:100700000E0A026A90ED060A0268BFE7B2EE000A1E
:1007100002B020EE801AF0EE420A81EE810A70EEFD
:10072000C00A00EE104AB8EE400A80EE201ABCEE75
:10073000C10A10EE100A70BD04040140006CDC0216
:10074000001BB70060E31600C0C62D00808D5B0063
:1007500000366E0100102000008020420449086825
:10076000096800F0070001F4E021090300F042BC31
:1007700008040140DFF8DCC030B446F65A13CCF868
:100780000030354D354BDFF8D8C0012404283DD06A
:1007900007DC012808BF33480BD0334B022817D0A1
:1007A00053E0324B082821D01A1DB0F1805F3CD0B5
:1007B0004BE00378002BFCD0120942EA01212A68A1
:1007C00022F007221143296001780029FCD03CE087
:1007D00018780028FCD041EA1230296821F007116E
:1007E0000843286018780028FCD02EE018780028EC
:1007F000FCD042EA0110296821F0700121F0E041AB
:100800000843286018780028FCD01EE018780028DB
:10081000FCD0100A40EA0110296821F07011084349
:10082000286018780028FCD00FE010780028FCD051
:10083000002904BF00208CF8300103D0022908BF32
:100840008CF8304110780028FCD08CF8004030BC87
:10085000704700000004014008040140E88620427F
:1008600000802042E0862042E4862042EC8620423E
:10087000014AC2E90010704740000020002100F04A
:1008800001B800002DE9F0470C464049064646F6FF
:100890005A10086000F0C8FA00F00107012000F0CB
:1008A000B3FA3B4802683B48A2F57421A1F51071E8
:1008B000814228D9384811183848814298BF4FF4EE
:1008C000801221D9364811183648814298BF4FF41A
:1008D000001219D934491144814298BF4FF4401293
:1008E00012D932491144814298BF4FF480020BD98A
:1008F0002F491144814203D92E491144814202D823
:100900004FF4A00200E00022002C14BF01250025B6
:100910000121294B83F8C0112848D0F800C02CF4DD
:10092000E00C4CEA020CC0F800C04FF00008002EAA
:1009300014BF83F8E41183F8E48183F8E011DFF851
:1009400080C09CF80000002818BF1E4808D00DB1D8
:10095000641E05D001709CF80090B9F1000FF6D12B
:1009600066B11970384600F057FA25B1002C04BF63
:100970000020BDE8F0870120BDE8F087002A14BF01
:1009800083F8C01183F8C081EBE700000004014048
:1009900040000020C0C62D00FFF6C2FFFF083D004A
:1009A000FFED85FFFF117A00FFDB0BFFFFC991FE12
:1009B000FFB717FEFFA59DFD008020420C040140FB
:1009C00004892042048A20420248016841F47001EF
:1009D0000160704788ED00E0094A48B1012818BF5E
:1009E0007047506920F4704040EA01305061704710
:1009F000106920F4704040EA013010617047000037
:100A00000010014010B54021042000F061F84021A1
:100A1000032000F047F84021032000F00BF84021AC
:100A2000032000F01BF8352000F0BEF8BDE81040B0
:100A300000F0ECB8034A52F82000828B22EA010150
:100A40008183704748000020034A52F82000428BFF
:100A500022EA01014183704748000020034A52F80E
:100A60002000428B11434183704700004800002062
:100A70000B4951F820108A8B0C280FD2DFE800F0C8
:100A80000E060906090609060906090B887E1040AC
:100A90007047887E00E0488B104070470020704708
:100AA00048000020094A52F8200042898A434281C6
:100AB00082898A43828182888A438280C2880A43EB
:100AC000C280428822EA010141807047480000202C
:100AD000064A52F8200042898A43428182898A4329
:100AE0008281828811438180704700004800002085
:100AF000104B53F8200083888B438380012A0BD04E
:100B0000022A10D0032A18BF704742890A43428143
:100B1000828911438181704742890A4342818289D7
:100B200022EA0101F6E742898A4342818289114320
:100B30008181704748000020104B53F820008388C3
:100B40000B438380012A0BD0022A10D0032A18BF3E
:100B5000704742890A4342818289114381817047EB
:100B600042890A434281828922EA0101F6E74289E9
:100B70008A43428182891143818170474800002065
:100B8000034A52F820004288114341807047000018
:100B900048000020034A52F82000428822EA01015E
:100BA00041807047480000201649042804BF0868A7
:100BB00040F4803018D0052804BF086840F40030A5
:100BC00012D0062812D00F2815D0102838BF704731
:100BD000103800F01F01012202FA01F142090A480F
:100BE00050F822000160704708607047086840F4C0
:100BF0008020086070474FF0E020016941F001015A
:100C00000161704724ED00E00818000010B5FFF7FF
:100C1000AAFA002818BF012010BD000010B501225B
:100C200018210B20FFF788FF012203210B20FFF77B
:100C300083FF10494FF40040FFF71AFE012000F037
:100C400063F801210020FFF7C7FE01210846FFF7E6
:100C5000C3FE0020FFF712FE4FF080420521022064
:100C6000FFF788FD0521BDE810404FF00052082035
:100C7000FFF780BD006CDC0211480068C0B210288C
:100C800019D008DC0A2816D2DFE800F01517151570
:100C900015171515151718280DD006DC11280CD0BE
:100CA000142808D0152808D005E0192805D02028D8
:100CB00004BF0220704700207047012070470000E9
:100CC000000001400F480068C0B2102817D008DCAF
:100CD0000A2814D2DFE800F0131313130F0F1313B5
:100CE0001111113809280AD2DFE800F009090905B5
:100CF00005090907070001207047022070470020FE
:100D000070470000000001400122002100F008BAF5
:100D100010B50120FFF7ACFE0146BDE810400120F0
:100D2000FFF788BE70B506460024104D03E0641C32
:100D3000E4B2C82C0ED8284600F01AF80128F6D0E4
:100D40003146284600F032F8002405E0641CE4B285
:100D5000C82C01D9002070BD284600F009F80128F0
:100D6000F4D02846BDE8704000F019B800200040DB
:100D700010B5044600F097FC01004FEA441000F162
:100D8000844005D090F85001002808BF10BD04E051
:100D900090F81001002808BF10BD012010BD10B54B
:100DA000044600F080FCA089C0B210BD70B50D46AD
:100DB000044600F078FCE8B2E08170BD70B50546ED
:100DC0000A2000F023FC25B1012D05D0022D06D10B
:100DD00008E0FFF73DFB01E0FFF74EFB044624B1BE
:100DE000012070BDFFF74EFAF8E71020FFF71AFB5D
:100DF0000A2000F00BFC0820FFF714FB0A2000F08B
:100E000005FC002070BD000002494A6822EA00008B
:100E100048607047003004E002494A681043486067
:100E200070470000003004E001484068704700004F
:100E3000003004E030B4DFF844C0114D0BE08442D0
:100E400003D1002918BF491E0BD0DCF804400CEB7D
:100E5000840C0CF1080CDCF80040844218BFAC4252
:100E6000EDD1844206BFDCF8040080000020106051
:100E700008BF0CF10800186030BC70470410200057
:100E80001DE1D00B164810B5016841F470010160F6
:100E900014494FF4B5400880134980204861134835
:100EA0004168C905FCD4124901604168C905FCD4F8
:100EB000104846F65A1101600021021D1160121DF2
:100EC00013680D4C2340136001600C48016921F048
:100ED00030010161416921F03001416110BD000024
:100EE00088ED00E00C480040003004E000000140C4
:100EF00004005A6900040140FBFFF8FF00100140A4
:100F00000021400100F1844001707047808B08404F
:100F1000704730B40125420102F18442AC4615709D
:100F200003880C8823F0C003234303804B6900240B
:100F3000002B14BF82F834C082F834408B69002B38
:100F400014BF82F82CC082F82C400B69002B08BF1C
:100F500082F83C400CD0012B04BF82F83CC082F8E0
:100F6000384005D0022B04BF82F83CC082F838C05C
:100F70008A88C2800A7B0B89120202EB03120B8C57
:100F80001A4402810288898B22F49F7222F4B052A3
:100F900011430180284630BC7047420102F184426F
:100FA00092F844331BB992F88433002BFBD0C181F3
:100FB0007047000010B501220C211046FFF798FD84
:100FC000054C04492046FFF7A4FF2046BDE8104029
:100FD000FFF796BFE01700000010004004490888A2
:100FE000C0B240F0800000F5B440088070470000B7
:100FF0000C4800402DE9F04731F0704216D1091736
:10100000082913D2DFE801F0120406080A0C0E10BA
:1010100002240CE004240AE0082408E0102406E07E
:10102000202404E0402402E0802400E00124012682
:10103000DFF8AC902B492C4F2C4BF503DFF8B08038
:1010400046F65A124FF4FA3C062846D2DFE800F082
:1010500003333640431B274890F800A0BAF1000F35
:101060000BD0C9F800200A6842F001020A603E7005
:10107000007810B1187838B322E0D8F80400B0FB3B
:10108000F4F0BDE8F0871C4890F800A0BAF1000F1A
:101090000BD0C9F800200A6842F002020A603E70D4
:1010A000007810B1187878B10AE0D8F80000B0FBE9
:1010B000F4F0BDE8F08742F21070F8E7187818B144
:1010C000BCFBF4F0BDE8F087B5FBF4F0BDE8F087B9
:1010D000FFF78CFAEBE70948E9E70020BDE8F08765
:1010E0000004014050040140008020423C86204220
:1010F00040000020008920420489204200366E0111
:101100000FB4054B10B503A9044A029800F00AF980
:1011100010BC5DF814FB000075160000780000207C
:101120002DE9F0410C460546FFF7CCFD0646FFF7DA
:10113000A3FD002C14BF4FF0010C4FF0000CA8428F
:1011400018BF344F62D038683968C9B20A2914D23E
:10115000DFE801F0050B13130B0513130B054FF616
:10116000F07108402C49084306E04FF6F071084042
:1011700040F0AD7040F0D0403860002A46D027499A
:1011800091F8A00040B1BCF1000F01D0641E11D055
:1011900091F8A0000028F6D13868C3B2102B1CD0FB
:1011A0000BDC0A2B19D2DFE803F0182818181828CE
:1011B000181818280020BDE8F081182B0DD006DC87
:1011C000112B1AD0142B08D0152B16D005E0192B93
:1011D00013D0202B08BF022300D00023AB42B2D192
:1011E000FFF770FDB04211D0012E08D0BDE8F041EC
:1011F00002200122002100F013B80123EEE7BDE830
:10120000F04101200246002100F00AB80120BDE8AB
:10121000F08100000000014001005A6900002042F6
:10122000F0B50D460446FFF74DFD01468C4251D006
:101230002D4F38682E1CC0B218BF0126A14249D0DC
:101240003B680A2833D2DFE800F027143232050D5C
:101250003232050D4FF6F070184040F0AD7040F09E
:10126000D04023E04FF6F07003EA00011F48084326
:101270001CE0012C02D0022C07D018E04FF6F070D1
:101280001B4918400843386011E04FF6F0701949C7
:101290001840084338600AE0012C02D0022C1BD011
:1012A00005E04FF6F0701840134919E038608AB134
:1012B000124890F8A01031B10EB16D1E12D090F806
:1012C000A0100029F8D1FFF7FDFC01463868A142C3
:1012D000C0B2B5D10120F0BD4FF6F07008491840FA
:1012E0000843E3E70020F0BD0000014001005A6917
:1012F00005005A6909005A6904005A690000204231
:1013000008005A6902E008C8121F08C1002AFAD171
:1013100070477047002001E001C1121F002AFBD175
:10132000704700002DE9FF4F8DB09B460F460446E5
:10133000002606E025280BD05A460F999047641CDA
:10134000761C20780028F5D111B03046BDE8F08F2A
:101350000025A8460122984900E0054314F8013F02
:10136000203B02FA03F00842F7D120782E2817D14B
:1013700014F8010F45F004052A280ED06FF02F0253
:101380002078A0F1300109290AD808EB880102EB86
:10139000410100EB0108641CF2E757F8048B641C60
:1013A00020786C280DD004DC4C2812D06A2811D18A
:1013B00004E074280DD07A280CD10AE045F4001519
:1013C00007E0617845F48015814202D1641C05F57F
:1013D0008015641C2278692A45D008DC002AB3D025
:1013E000582A69D0632A10D0642A08D13BE0702AB9
:1013F00067D0732A13D0752A5CD0782A5CD0104647
:101400005A460F999047761CD3E017F8040B8DF8D5
:10141000000000208DF80100E946012003E057F8A4
:10142000049B4FF0FF3069074FF0000501D40AE03C
:101430006D1C45450DDA8542FADB19F805100029C7
:10144000F6D106E06D1C8542FCDB19F80510002979
:10145000F8D12E4404E019F8010B5A460F99904731
:101460006D1EF8D2A5E00A200021CDE90801C5F3E0
:10147000025002280DD001CFC117031E71F10003E5
:101480000DDA4FF0000CD0EB0C006CEB01012D23BA
:1014900008E0FF1D27F00707F7E80201EDE72B053D
:1014A00004D52B238DF8283001233BE0EB0739D0FE
:1014B0002023F7E70A2000E010200021CDE90801F1
:1014C00007E01020002145F00405CDE908014FF0A8
:1014D0000808C5F3025002280FD001CF00214FF0B9
:1014E000000A2B071FD5702A0DD0DDE908C38CF048
:1014F000100C5CEA030C0CD015E0FF1D27F0070769
:10150000F7E80201EBE740228DF828204FF0010AAE
:101510000BE050EA010306D030238DF828308DF817
:10152000292002239A46582A04D024A20DF120092A
:101530000B9209E026A2F9E7DDE90823FEF732FE67
:101540000B9B9B5C09F8013D50EA0102F4D1ADEB25
:10155000090020300890680701D44FF0010808996D
:10156000884502DDA8EB010000E000208046002550
:1015700006E00AA85A46405D0F9990476D1C761CFC
:101580005545F6DB04E030205A460F999047761C0B
:10159000B8F10001A8F10108F5DC05E019F8010B2C
:1015A0005A460F999047761C0899481E08900029C2
:1015B000F4DC641CC5E60000092801003031323338
:1015C000343536373839616263646566000000007F
:1015D0003031323334353637383941424344454669
:1015E000000000000749B0FBF1F0C1B2064801EB72
:1015F00041020170C2EBC1114FF6FF7202EAC10154
:101600004180704740420F003A0000200B49498852
:1016100048434FF0E021486100228A61086940F0A8
:10162000050008610869C30701D0C003FAD508693D
:1016300020F0010008618A61704700003A00002034
:101640000B49097848434FF0E021486100228A6144
:10165000086940F0050008610869C30701D0C003AC
:10166000FAD5086920F0010008618A61704700001E
:101670003A00002070B5094C0546C1B22046FFF77C
:101680008CFC02212046FFF741FC0028F9D0A08BFA
:1016900040F00200A083284670BD0000001000400A
:1016A000000200127047A0F18041B1F580511CBFCB
:1016B000A0F18041B1F5A0510AD0A0F18041B1F56F
:1016C000C0511FBFA0F18041B1F5E051002070472B
:1016D0000120704790B0AA208DF800008DF801001D
:1016E000F1208DF8020008208DF80300FFF776FC4A
:1016F000FFF794FAFFF75EFCFFF766F9FFF782F950
:10170000FFF72CF8FFF76EFFFEF7AFFD02E027A012
:10171000FFF7F6FC0020FFF751FB0028F7D129A0C6
:10172000FFF7EEFC40210320FFF798F92A4F3878A5
:101730000028FCD02949C8780A79000440EA022030
:101740004A7910438A79CB791204097A42EA03264E
:101750000E43FFF7A5FF05463046FFF7A1FF2A0E0F
:101760008DF8042001462A0C8DF80520000E2A0A67
:101770008DF80800080C8DF80900080A8DF80A0099
:101780008DF806208DF80B108DF807500020694663
:101790000A5C401C2244C0B2D4B20C28F8D38DF8A5
:1017A0000C40002038700446C1E700003132393265
:1017B000BCC4B4E6C6F7C9E8D6C3CAA7B0DC0D0AF4
:1017C00000000000BCC4B4E6C6F7C9E8D6C3B3C97C
:1017D000B9A60D0A000000000100002088000020CA
:1017E000800000004E000000020000000000000029
:1017F00000000000000000000000000000000000E9
:10180000010000000000000000E100E004E100E051
:1018100080E100E084E100E000E200E004E200E0BA
:1018200080E200E084E200E0000700000006000023
:10183000000500000004000000030000000200009A
:1018400000010000000000000000000018ED00E0B2
:101850001CED00E020ED00E000E400E004E400E026
:1018600008E400E00CE400E010E400E014E400E030
:1018700018E400E01CE400E020E400E024E400E0E0
:1018800028E400E02CE400E030E400E034E400E090
:1018900038E400E03CE400E0B8180000000000205C
:1018A0007C00000004130000341900007C000020BC
:1018B0001C020000141300000200000200000000DF
:1018C00000000101010D0000000000000000000008
:1018D0000000000000000000000000000000000008
:1018E00001010000000100010100000000010100F1
:1018F00000000000000000000000000000000000E8
:1019000000000000004C0040014C0040204C004012
:10191000214C0040404C0040414C0040604C004095
:10192000614C0040804C0040814C0040204D004004
:0419300000000000B3
:040000050000018175
:00000001FF
