:020000040000FA
:100000006859002081010000890100008B01000077
:100010008D0100008F010000910100000000000030
:10002000000000000000000000000000930100003C
:1000300095010000000000009701000099010000F8
:100040009B0100009B0100009B0100009B01000040
:100050009B0100009B0100009B0100009B01000030
:100060009B0100009B0100009B0100009B01000020
:100070009B0100009B0100009B0100009B01000010
:100080009B0100009B0100009B0100009B01000000
:100090009B0100009B0100009B0100009B010000F0
:1000A0009B0100009B0100009B0100009B010000E0
:1000B0009B0100009B0100009B0100009B010000D0
:1000C0009B0100009B0100009B0100009B010000C0
:1000D0009B010000D11D00009B0100009B0100005E
:1000E0009B01000000000000000000000000000074
:1000F0000000000000000000000000000000000000
:1001000000000000000000000000000000000000EF
:1001100000000000000000000000000000000000DF
:1001200000000000000000000000000000000000CF
:1001300000000000000000000000000000000000BF
:1001400000000000DFF80CD000F002FF004800477C
:10015000E932000068590020EFF3108072B6704752
:10016000EFF310807047EFF3108062B6704730BF36
:10017000704780F311887047EFF3118070470000DB
:100180000648804706480047FEE7FEE7FEE7FEE731
:10019000FEE7FEE7FEE7FEE7FEE7FEE7F51F0000ED
:1001A000450100002DE9F00F6FF003042DED0C8BDD
:1001B0005FEAD30AD0E901C7B0F8009004EB8904E4
:1001C0000CEB04089FEDFE9A18BF4FEAD90B00F024
:1001D000C18100BF91ED000AB0EE493A88ED000AF6
:1001E00091ED010AF0EE430A88ED010A91ED020A51
:1001F000B0EE431A88ED020A91ED030AF0EE431ABD
:1002000088ED030A91ED040AB0EE432A88ED040A52
:1002100091ED050AF0EE432A88ED050A91ED060AF4
:10022000F0EE433A88ED060A91ED070A203188ED99
:10023000070ADCED007A9CED017ADCED026A9CEDA8
:10024000036ADCED045A9CED055ADCED064AB0EE7B
:10025000434A3D460CF11C0408F120085FEA0B06F6
:1002600000F02681D5ED008A94ED008A26EE280A5A
:1002700065EEA89A25EE28AA27EEA8BA64EEA8AAE9
:1002800067EE28BA26EEA8CA68EE28CAD5ED018A1C
:1002900032EE000A32EEA92A73EE0A2A30EE8BBA49
:1002A00033EEAA3AD5ED020A74EE2C3A71EE8C1AAE
:1002B000D4ED017A31EE2B1A27EE28DA26EEA8CA01
:1002C00066EE28BA25EEA84A65EE289A24EEA8AA7A
:1002D00068EE28AA67EEA8CA94ED027A7BEE0D8A32
:1002E00031EE0C1A71EEAB1A30EE040A32EE292A06
:1002F00072EE8A2A33EE2A3A73EEAC3A66EEA0CA60
:1003000066EE20BA65EEA09A25EE20AA24EEA04A59
:1003100068EE20AA27EEA0BA27EE20CAD5ED030A80
:10032000D4ED036A30EE0A0A32EE042A78EEAC8A83
:1003300031EE2B1A71EEA91A72EEAA2A33EE0B3A9D
:1003400073EE8C3A66EE20CA65EEA0BA65EE209A8E
:1003500024EEA04A28EE20AA67EEA0AA27EE20BA33
:1003600026EEA0CAD5ED040A78EEAC8A31EE2B1A3F
:1003700071EEA91A30EE040A32EE0A2A72EEAA2AA7
:1003800033EE0B3A73EE8C3A65EEA0CA94ED046A34
:1003900065EE20BA24EEA0BA28EE204A67EEA09AB5
:1003A00027EE20AA66EEA0AA26EE20CAD5ED050A01
:1003B000D4ED055A31EE2B1A71EE8B1A78EEAC8A19
:1003C00030EE040A32EE292A72EE8A2A33EE2A3AF5
:1003D00073EE8C3A65EE20CA24EEA0BA68EE20BA1D
:1003E00027EEA04A67EE209A26EEA0AA66EE20AA83
:1003F00025EEA0CAD5ED060A30EE040A32EE292A0F
:1004000027EE204A94ED065A72EE8A2A66EEA09AEA
:1004100078EEAC8A31EE0B1A71EEAB1A33EE2A3A53
:1004200073EE8C3A26EE20AA65EEA0AA64EEA0BA7E
:1004300028EE20CA27EEA0BA65EE20CAD5ED070A3D
:1004400030EE040A32EE294A72EE8A9A33EE2AAA74
:10045000D4ED074A31EE0C1A78EEAB8A28EE20CAAA
:1004600071EE8B1A73EEACAA66EE202A67EEA0BA84
:1004700027EE20BA26EEA02A25EEA03A65EE203A15
:1004800024EEA08A74EE222A78EE8C0A31EE2B1A22
:1004900071EE8B1A30EE022A39EE833A7AEE233A65
:1004A0003AEE884A20342035761E7FF4DBAE00BF5A
:1004B00019F0070636D000BF95ED008A94ED000ACA
:1004C000241D67EE889A67EE088A26EE88AA66EEF3
:1004D00008AA25EE88BA65EE08BA24EE88CA20EE8E
:1004E000088AF0EE477AB0EE667AF0EE466AB0EE31
:1004F000656AF0EE455A70EEA90A31EE281A71EEDF
:100500008A1A32EE2A2A72EE8B2A33EE2B3A73EED7
:100510008C3A34EE084AB0EE645A2D1DF0EE404A93
:10052000761EC9D1C2ED000A82ED011AC2ED021A8F
:1005300082ED032AC2ED042A82ED053AC2ED063AA5
:1005400082ED074A2032BAF1010A0CF1200C7FF447
:1005500041AE00BF13F0070A43D000BFB1EC010A5F
:100560003E1D0CF10404B9F10103A8EC010ADCED15
:10057000000A97ED001AB0EE490A00EE810A29D070
:10058000B3F1004F7DD2002B24DD251F341F13F063
:10059000010F07D0D5ED010A94ED011A241D2D1D80
:1005A00000EE810A5B1015D0D5ED010A94ED011A19
:1005B00000EE810AD5ED020A94ED021A02E0000075
:1005C0000000000000EE810A5B1E04F1080405F142
:1005D0000805E9D1A2EC010ABAF1010A0CF1040CF8
:1005E000BCD14068A9F10104A3081FD0B3F1004FAA
:1005F00054D2002B1ADD624601461D4692ED000AD8
:1006000081ED000A92ED010A81ED010A92ED020AE4
:1006100081ED020A92ED030A103281ED030A1031D6
:100620006D1EEBD10CEB031C00EB031014F0030266
:1006300002BFBDEC0C8BBDE8F00F7047B2F1004F6C
:1006400042D2002A1ADD001FACF1040112F0010FA2
:1006500005D091ED010A80ED010A001D091D520827
:100660000CD000BF91ED010A80ED010A91ED020A64
:10067000083180ED020A0830521EF3D1BDEC0C8B1C
:1006800000E002E0BDE8F00F7047F4EC010A5B1EE9
:10069000B6EC011A00EE810AF7D19BE79CED000A47
:1006A00080ED000A9CED010A80ED010A9CED020A32
:1006B00080ED020A9CED030A0CF1100C80ED030A98
:1006C00010305B1EEAD1B1E7BCEC010A521EA0EC6F
:1006D000010AF9D1D2E770B5044604982180084494
:1006E0008000011F1D461846A26000F024F96560D5
:1006F00070BD000070B44FF0000CB0EC010A4E1E4B
:100700006446B50832D000BFD0ED000A90ED011A62
:100710000830B4EEE00AF1EE10FA3CBFB0EE600A29
:100720000CF10104B4EEC10AF1EE10FA3CBFB0EED8
:10073000410A0CF10204D0ED000A90ED011A0830D4
:10074000B4EEE00AF1EE10FA3CBFB0EE600A0CF134
:100750000304B4EEC10AF1EE10FA3CBFB0EE410A58
:100760000CF104046D1E0CF1040CCDD116F0030C39
:1007700018D0BCF1004F1AD2BCF1000FC4BF002545
:1007800066460FDDD0ED000AF4EEC00AF1EE10FA75
:1007900004DD4C19B0EE600AA4EB0C04001D6D1CC6
:1007A000761EEFD182ED000A1C6070BC7047F0EC41
:1007B000010AB4EEE00AF1EE10FA3CBFB0EE600AB6
:1007C000A1EB0C04BCF1010CF1D1EBE770B44FF0DC
:1007D000000CB0EC010A4E1E6446B50832D000BFD2
:1007E000D0ED000A90ED011A0830B4EEE00AF1EE07
:1007F00010FAC4BFB0EE600A0CF10104B4EEC10AF5
:10080000F1EE10FAC4BFB0EE410A0CF10204D0EDD3
:10081000000A90ED011A0830B4EEE00AF1EE10FA89
:10082000C4BFB0EE600A0CF10304B4EEC10AF1EEED
:1008300010FAC4BFB0EE410A0CF104046D1E0CF1B5
:10084000040CCDD116F0030C18D0BCF1004F1AD215
:10085000BCF1000FC4BF002566460FDDD0ED000AD5
:10086000F4EEC00AF1EE10FA04D24C19B0EE600AB0
:10087000A4EB0C04001D6D1C761EEFD182ED000A66
:100880001C6070BC7047F0EC010AB4EEE00AF1EEB7
:1008900010FAC4BFB0EE600AA1EB0C04BCF1010C6D
:1008A000F1D1EBE7930813D0D0ED001A90ED011AC7
:1008B000D0ED020A90ED030AC1ED001A81ED011A94
:1008C000C1ED020A81ED030A103010315B1EEBD13D
:1008D00012F0030208BF7047B2F1004F1DD2002A88
:1008E000D8BF7047001F091F12F0010F05D090ED0F
:1008F000010A001D81ED010A091D520808BF704759
:1009000090ED010A81ED010A90ED020A083081EDB7
:10091000020A0831521EF3D17047B0EC010A521E90
:10092000A1EC010AF9D17047D2B201E000F8012B25
:10093000491EFBD270470022F6E710B513460A465F
:1009400004461946FFF7F0FF204610BD2DE9FE4F83
:1009500081EA030404F0004421F0004100944FF0C8
:10096000000B23F0004350EA01045ED052EA030476
:100970005BD0C3F30A54C1F30A552C44A4F2F334F8
:100980000194A0FB0254C1F3130141F48011C3F39D
:10099000130343F4801301FB024400FB034E840A5B
:1009A000970A44EA815447EA8357A4FB07680295F3
:1009B0008D0A05FB07854FEA932C04FB0C54270591
:1009C000029D4FEA065847EA1637B5EB08056EEB6D
:1009D000070C870E920E47EA811742EA8312A7FBA3
:1009E0000201B6EB0B0164EB00042B0D43EA0C3360
:1009F0005E1844EB1C50DA465146E7FB0201C5F392
:100A000013044FEA0B3343EA14534FEA0432019CB8
:100A100043EA0603A4F10C040294009CCDE900B45F
:100A200000F071F903B0BDE8F08F00200146F9E74E
:100A30002DE9F04D81EA030404F0004B21F000455C
:100A400014464FF0000A23F0004150EA050220D07E
:100A500054EA01021DD0C5F30A570246C5F3130339
:100A6000C1F31300C1F30A5640F4801543F4801318
:100A7000A7EB0608101BD64608F2FD3873EB0500FD
:100A800002D308F1010801E092185B41B8F1000FB0
:100A900003DA00200146BDE8F08D00204FF48011FC
:100AA000064684460EE0171B73EB050705D3121BA1
:100AB00063EB050306434CEA010C49084FEA30009A
:100AC00092185B4150EA0107EDD152EA030012D0BF
:100AD00082EA040083EA0501084305D0101BAB41FC
:100AE00006D20122002306E000224FF0004302E07C
:100AF0006FF0010253101AEB06004CEB085110EB9B
:100B00000A0041EB0B01BDE8F04D00F0EDB80EB569
:100B1000C10F80EAE0700844CA07002140F2334365
:100B20008DE80E000A460B4600F0EDF803B000BD5C
:100B300070B5C1F30A5201F000450024C1F313015E
:100B400040F2FF3341F480119A4201DA002070BD77
:100B500040F233439A42A2F2334203DC524200F0A5
:100B60007CF800E090402C43F1D0404270BD00F092
:100B7000004230F000400AD0C10D01F56071C0F3B1
:100B8000160042EA0151C208400711437047002095
:100B90000146704701F0004330B421F0004150EAB3
:100BA000010206D00A0DA2F56072C1F31301002AFA
:100BB00002DC30BC00207047440F44EAC104C1008D
:100BC000E01830BC00EBC25000F057B830B50B460F
:100BD000014600202022012409E021FA02F59D426D
:100BE00005D303FA02F5491B04FA02F52844151E41
:100BF000A2F10102F1DC30BD2DE9F05F05460020D5
:100C000092469B4688460646814640241BE028467D
:100C100041464746224600F020F853465A46C01A3D
:100C2000914110D311461846224600F0A3F92D1A1F
:100C300067EB01084F4622460120002100F09AF997
:100C400017EB00094E41201EA4F10104DFDC4846E9
:100C500031462A464346BDE8F09F202A04DB203A6D
:100C600021FA02F00021704721FA02F3D040C2F1CC
:100C7000200291400843194670470029A8BF7047D9
:100C8000401C490008BF20F00100704710B4B0FAC2
:100C900080FC00FA0CF050EA010404BF10BC70475D
:100CA00049B1CCF1200421FA04F411FA0CF118BF77
:100CB000012121430843A3EB0C01CB1D4FEA006146
:100CC0004FEA102042BF002010BC704700EBC35019
:100CD00010440029A4BF10BC7047401C490008BF45
:100CE00020F0010010BC704710B5141E73F1000411
:100CF00008DA401C41F1000192185B411A4301D10E
:100D000020F0010010BD2DE9F04D92469B4611B137
:100D1000B1FA81F202E0B0FA80F22032904600F09F
:100D200029F904460F4640EA0A0041EA0B015346FE
:100D30005A46084313D0114653EA010019D0C8F1AE
:100D400040025046FFF789FF05460E465046594679
:100D5000424600F00FF9084305D0012004E0204688
:100D60003946BDE8F08D0020054346EAE0762C4385
:100D700037430A986305E40AA0EB08000022FD0A45
:100D800044EA47540A3002D500200146E9E701054C
:100D900010196941DDE9084500196941BDE8F04DC8
:100DA000A2E72DE9FE4F804681EA0300C00F0C4602
:100DB000009021F0004123F00045B8EB0200A9416A
:100DC00005D24046214690461C460B46024623F07B
:100DD0000040104347D0270DC7F30A00C3F30A5160
:100DE0000290401A019040286BDAC3F3130040F4DC
:100DF000801B0098924620B10023D2EB030A63EBDC
:100E00000B0B01985946C0F14002504600F0B2F871
:100E100006460D4650465946019A00F0BAF810EBC6
:100E200008006141002487EA115284EAE7731A43FB
:100E300040D0009A62B3019A012A4FEA075215DCAA
:100E4000001B61EB02014FF0004202EA0752CDE9BC
:100E50000042001C41F5801132462B46FFF753FF3C
:100E600003B0BDE8F08F40462146F9E7001B61EB77
:100E70000201001C41F5801300185B412018A2F507
:100E8000001747EB030140EAD570B6196D4111E038
:100E90006D084FEA360645EAC0754FEA0752001B57
:100EA00061EB0201001C41F5801149084FEA300056
:100EB0000019514132462B4603B0BDE8F04FFFF711
:100EC00013BF0098012240000023D0EB020263EB25
:100ED000E073009821464FEAE074B8EB000061EB44
:100EE0000401E9E783F000435BE781F0004158E744
:100EF000C1F30A52C1F3130140F2FF3341F48011F0
:100F00009A4202DA00200146704740F233439A4287
:100F1000A2F2334202DC5242FFF79FBE00F02AB831
:100F200030B5041E71F1000404DB4FF00044404270
:100F300064EB0101141E73F1000405DB1C464FF045
:100F40000043524263EB0403994208BF904230BD14
:100F5000064C074D06E0E06840F0010394E8070006
:100F600098471034AC42F6D3FFF7F0F8BC380000D5
:100F7000DC380000202A04DB203A00FA02F10020CD
:100F800070479140C2F1200320FA03F319439040C7
:100F90007047202A06DBCB17203A41FA02F043EAD9
:100FA000E07306E041FA02F3D040C2F12002914022
:100FB00008431946704710B54021032000F03CFD5E
:100FC0004021042000F0D4FD00F01CF810BD00000A
:100FD00010B50024002008490871012007498870D5
:100FE0000749887000F0F6F900B101240A2002F0E8
:100FF000E9F8204610BD0000350000203A0000202E
:101000003D0000203EB5112000F09EF9642002F062
:10101000D9F8062000F098F9642002F0D3F8642093
:1010200002F0D0F8642002F0CDF8642002F0CAF893
:10103000642002F0C7F8642002F0C4F8642002F0D3
:10104000C1F8642002F0BEF8642002F0BBF864200E
:1010500002F0B8F8112000F077F9642002F0B2F83D
:101060006A460C21202000F029FA08A001F00CF9B2
:10107000002407E01DF80420214609A001F004F92E
:10108000601CC4B20C2CF5DB3EBD000072656164CF
:101090002064656661756C74205245473A0D0A00FC
:1010A00025642025780D0A0070B5044640210420EF
:1010B00000F068FD002506E0002000F03FF92070F8
:1010C000641C681CC5B2092DF6DB4021042000F029
:1010D0004FFD002070BD000073208F490870002074
:1010E0004870084640788D49097808438A49487015
:1010F00000208870084680788949097840EA811084
:1011000085498870084680788549497840EA4110C9
:1011100081498870084680788149897840EA0110C1
:101120007D498870084680787D49C97840EAC100C9
:1011300079498870084680787949097940EA410000
:10114000754988700846807840F0810088701020CA
:10115000C87000200871084600797249097840EA91
:10116000C1106D490871084600796E49497840EA16
:10117000011069490871084600796A49897808436D
:101180006549087100204871084640796649097828
:1011900040EAC1106049487108464079624949787F
:1011A00040EA01105C494871084640795E498978F7
:1011B00008435949487100208871084680795B4985
:1011C000097840EA411054498871084680795749A6
:1011D000497840EA0110504988710846807953499E
:1011E000897840EAC1004C498871084680794F49A6
:1011F000C97840EA810048498871084680794B499E
:10120000097940EA41004449887108468079474994
:1012100049790843404988710846807940F0C00008
:1012200088710020C8710846C0794149097840EAB0
:1012300041103949C8710846C0793D49497840EAAA
:1012400001103549C8710846C0793949897840EAA2
:10125000C1003149C8710846C0793549C97840EAAA
:1012600081002D49C8710846C0793149097940EAA1
:1012700041002949C8710846C0792D494979084378
:101280002549C8710020087248720846407A2949E9
:10129000097840EAC110204948720846407A254939
:1012A000497840EA81101C4948720846407A214931
:1012B000897840EA8100184948720846407A1D49F9
:1012C000C9780843144948720846407A40F0020041
:1012D0004872002088720846807A1749097840EAE7
:1012E000C1100D4988720846807A1349497840EA4E
:1012F0008100094988720846807A0F49897840EA56
:101300004100054988720846807A40F001008872E1
:101310000C20C87270470000685400203400002080
:10132000350000203A0000203D0000204000002051
:10133000460000204C0000205000002010B504465C
:10134000204600F065FD10BD10B504464021042084
:1013500000F018FC642001F05BFF2046FFF7EEFF71
:10136000642001F055FF4021042000F001FC10BD75
:1013700010B5002400200749087107498870074903
:10138000887000F027F800B101240A2001F01AFF4C
:10139000204610BD350000203A0000203D0000200E
:1013A00010B50024012008490871052007498870FC
:1013B0000749887000F00EF800B101240A2001F0FE
:1013C00001FF204610BD0000350000203A0000203B
:1013D0003D0000203EB50025FFF77EFE244A0B218C
:1013E000412000F06BF80A2001F0ECFE6A460C2167
:1013F000202000F063F80A2001F0E4FE1DA000F0B8
:1014000043FF002408E01A48401E025D21461DA04B
:1014100000F03AFF601CC4B20C2CF4DB1BA000F0FF
:1014200033FF002417E01248401E005D1DF8041031
:10143000884207D02CB1082C03D00B2C01D00125F9
:1014400000E006E01DF8042021460EA000F01CFF7D
:1014500000BF601CC4B20C2CE5DB1DB90EA000F06F
:1014600013FF02E011A000F00FFF28463EBD000070
:10147000695400205752495445205245473A0D0AB5
:101480000000000025642025780D0A0052454144E3
:10149000205245473A0D0A00524547207772697439
:1014A0006520737563636573730D0A0052454720A9
:1014B0007772697465206572720D0A002DE9F0413A
:1014C00007460E4615464021042000F05BFB6420D1
:1014D00001F09EFE3846FFF731FF642001F098FED0
:1014E000711EC8B2FFF72AFF07F0400068B1002460
:1014F00008E0642001F08CFE2878FFF71FFF6D1CC8
:10150000601CC4B2B442F4DB0DE0002409E06420A6
:1015100001F07EFE0020FFF711FF28706D1C601C9B
:10152000C4B2B442F3DB642001F072FE4021042017
:1015300000F01EFBBDE8F0812DE9F0472DED048B96
:1015400006460C461546B1462746A8461C4B1D4A82
:101550004FF4FA614846FFF7CDF81B4B1B4A4FF496
:10156000FA614846FFF732F9164890ED000A17482D
:10157000D0ED000A30EE600A10EE101A0846FFF7B0
:10158000F6FA41EC190B53EC192B9FED110B51ECB2
:10159000100BFFF74DFA41EC180BFFF7FBFA386020
:1015A000D7ED000A074890ED001A9FED0B0A00EEF8
:1015B000C10A88ED000ABDEC048BBDE8F08700008D
:1015C0005800002054000020600000205C00002033
:1015D000000000000080664000005C4370B5524E81
:1015E00082B03068514D00F4E020B0F5403F08BFB4
:1015F0004F4C1AD00EDC002808BF4E4C15D0B0F569
:10160000803F08BF4C4C10D0B0F5003F08BF4B4C9A
:101610000BD009E0B0F5802F08BF494C05D0B0F5DC
:10162000A02F08BF2C4600D000246B4601AA002141
:10163000032000F0B7FC0198002850D0414B1869F6
:101640004228306842D9C0F3090111F4007F18BF65
:1016500041F47E4000D001B2B9B33B48AC4241D125
:101660001A69422A3ED990F8D8000028009819BF7C
:1016700090ED0F0A426A90ED070A4268186901EE80
:10168000101A4228C2F54070B8EEC11AB7EE002A0F
:10169000F0EE420A60EE011A01EE100AB8EEC11A2D
:1016A00040EE010A2AD902B081EEA00AF0EE420A09
:1016B00070EEC00A00EE104AB8EE400A80EE201A22
:1016C000BCEEC10A10EE100A70BD08E0C0F30C01B8
:1016D00011F4805F18BF41F47040BCD1BCE702B088
:1016E000204670BD90F8D8000028009819BF90EDF2
:1016F0000E0A026A90ED060A0268BFE7B2EE000A1F
:1017000002B020EE801AF0EE420A81EE810A70EEFD
:10171000C00A00EE104AB8EE400A80EE201ABCEE75
:10172000C10A10EE100A70BD04040140006CDC0216
:10173000001BB70060E31600C0C62D00808D5B0063
:1017400000366E0100102000008020420449086825
:10175000096800F0070001F4E021090300F00EBD64
:1017600008040140DFF8DCC030B446F65A13CCF868
:101770000030354D354BDFF8D8C0012404283DD06A
:1017800007DC012808BF33480BD0334B022817D0A1
:1017900053E0324B082821D01A1DB0F1805F3CD0B5
:1017A0004BE00378002BFCD0120942EA01212A68A1
:1017B00022F007221143296001780029FCD03CE087
:1017C00018780028FCD041EA1230296821F007116E
:1017D0000843286018780028FCD02EE018780028EC
:1017E000FCD042EA0110296821F0700121F0E041AB
:1017F0000843286018780028FCD01EE018780028DC
:10180000FCD0100A40EA0110296821F07011084349
:10181000286018780028FCD00FE010780028FCD051
:10182000002904BF00208CF8300103D0022908BF32
:101830008CF8304110780028FCD08CF8004030BC87
:10184000704700000004014008040140E88620427F
:1018500000802042E0862042E4862042EC8620423E
:10186000014AC2E90010704780000020002100F00A
:1018700001B800002DE9F0470C464049064646F6FF
:101880005A10086000F088FB00F00107012000F00A
:1018900073FB3B4802683B48A2F57421A1F5107127
:1018A000814228D9384811183848814298BF4FF4EE
:1018B000801221D9364811183648814298BF4FF41A
:1018C000001219D934491144814298BF4FF4401293
:1018D00012D932491144814298BF4FF480020BD98A
:1018E0002F491144814203D92E491144814202D823
:1018F0004FF4A00200E00022002C14BF01250025B7
:101900000121294B83F8C0112848D0F800C02CF4DD
:10191000E00C4CEA020CC0F800C04FF00008002EAA
:1019200014BF83F8E41183F8E48183F8E011DFF851
:1019300080C09CF80000002818BF1E4808D00DB1D8
:10194000641E05D001709CF80090B9F1000FF6D12B
:1019500066B11970384600F017FB25B1002C04BFA2
:101960000020BDE8F0870120BDE8F087002A14BF01
:1019700083F8C01183F8C081EBE700000004014048
:1019800080000020C0C62D00FFF6C2FFFF083D000A
:10199000FFED85FFFF117A00FFDB0BFFFFC991FE12
:1019A000FFB717FEFFA59DFD008020420C040140FB
:1019B00004892042048A20420248016841F47001EF
:1019C0000160704788ED00E0094A48B1012818BF5E
:1019D0007047506920F4704040EA01305061704710
:1019E000106920F4704040EA013010617047000037
:1019F0000010014010B54021042000F061F84021A2
:101A0000032000F047F84021032000F00BF84021AC
:101A1000032000F01BF8352000F00CF900F03CF931
:101A200010BD0000034A52F82000828B22EA010117
:101A30008183704788000020034A52F82000428BBF
:101A400022EA01014183704788000020034A52F8CE
:101A50002000428B11434183704700008800002022
:101A60000B4951F820108A8B0C280FD2DFE800F0C8
:101A70000E060906090609060906090B887E1040AC
:101A80007047887E00E0488B104070470020704708
:101A900088000020094A52F8200042898A43428186
:101AA00082898A43828182888A438280C2880A43EB
:101AB000C280428822EA01014180704788000020EC
:101AC000064A52F8200042898A43428182898A4329
:101AD0008281828811438180704700008800002045
:101AE000104B53F8200083888B438380012A0BD04E
:101AF000022A10D0032A18BF704742890A43428144
:101B0000828911438181704742890A4342818289D7
:101B100022EA0101F6E742898A4342818289114320
:101B20008181704788000020104B53F82000838883
:101B30000B438380012A0BD0022A10D0032A18BF3E
:101B4000704742890A4342818289114381817047EB
:101B500042890A434281828922EA0101F6E74289E9
:101B60008A43428182891143818170478800002025
:101B7000034A52F820004288114341807047000018
:101B800088000020034A52F82000428822EA01011E
:101B90004180704788000020F0B506460F463AE0C5
:101BA00020480078B8B32048C07800041E4909795D
:101BB00040EA01201C49497940EA010301F066FB33
:101BC0000546184601F074FB044623461748006892
:101BD000002813DD00EE105AB8EEC00A1348006862
:101BE00006EB800000ED010A00EE103AB8EE400A64
:101BF0000E48006807EB800000ED010A0C48006801
:101C0000401C0B49086009480068401C07490860EF
:101C100000200449087006480068B0F5FA6FBFDD7F
:101C2000F0BD000053000020745400206C00002020
:101C3000680000201649042804BF086840F480307A
:101C400018D0052804BF086840F4003012D00628D8
:101C500012D00F2815D0102838BF7047103800F068
:101C60001F01012202FA01F142090A4850F822003C
:101C70000160704708607047086840F48020086081
:101C800070474FF0E020016941F0010101617047A8
:101C900024ED00E02C38000010B5FEF764FA0028AF
:101CA00018BF012010BD000010B5012218210B2023
:101CB000FFF73AFF012203210B20FFF735FF1749F9
:101CC0004FF40040FFF7CCFD012000F07DF801212A
:101CD0000020FFF779FE01210846FFF775FE00207E
:101CE000FFF7C4FD002211460120FFF73BFD002253
:101CF00011464FF08050FFF735FD002205210420EA
:101D0000FFF730FD002205210220FFF72BFD4FF0E9
:101D1000005205210820FFF725FD10BD006CDC02F4
:101D200010B50348FFF7C0F901200249087010BD43
:101D3000745400205300002011480068C0B21028DD
:101D400019D008DC0A2816D2DFE800F0151715159F
:101D500015171515151718280DD006DC11280CD0ED
:101D6000142808D0152808D005E0192805D0202807
:101D700004BF022070470020704701207047000018
:101D8000000001400F480068C0B2102817D008DCDE
:101D90000A2814D2DFE800F0131313130F0F1313E4
:101DA0001111113809280AD2DFE800F009090905E4
:101DB000050909070700012070470220704700202D
:101DC00070470000000001400122002100F06CBAC1
:101DD00010B50320FFF744FE044621460320FFF719
:101DE00021FE402C01D1FFF79BFF10BD10B5012251
:101DF000E0211046FFF774FE0349044800F039F86B
:101E0000024800F02BF810BD2037000000200040F1
:101E100070B50546002405E0601CC4B2C82C01DD85
:101E2000002070BD0C4800F057F80128F4D0294676
:101E3000094800F06FF8002405E0601CC4B2C82C0B
:101E400001DD0020EDE7044800F046F80128F4D059
:101E5000014800F058F8E4E70020004010B50446BF
:101E600001F02BFA02460021600100F1844001706C
:101E700010BD70B50C460546D4E90101B0FBF1F286
:101E800001FB120000281CBF002070BD284601F095
:101E900014FA02004FEA451000F184404FF00101AE
:101EA00001702088A189A28A0844218A114408442B
:101EB000218B0844298800F5106001F03F0140EAB9
:101EC00001002880D4E90101B0FBF1F0E8801CBFDB
:101ED00000202881012070BD10B5044601F0EDF905
:101EE00001004FEA441000F1844005D090F8500101
:101EF000002808BF10BD04E090F81001002808BFBA
:101F000010BD012010BD10B5044601F0D6F9A0891E
:101F1000C0B210BD70B50D46044601F0CEF9E8B26E
:101F2000E08170BD70B505460A2001F04BF925B17E
:101F3000012D06D0022D0CD107E0FFF719FA044657
:101F400007E0FFF72DFA044603E0FFF741F80446E7
:101F500000BF00BF0CB1012070BD1020FFF7F4F9E5
:101F60000A2001F02FF90820FFF7EEF90A2001F00E
:101F700029F90020F0E7000002494A6822EA00003F
:101F800048607047003004E002494A6810434860E6
:101F900070470000003004E00148406870470000CE
:101FA000003004E030B4DFF844C0114D0BE084424F
:101FB00003D1002918BF491E0BD0DCF804400CEBFC
:101FC000840C0CF1080CDCF80040844218BFAC42D1
:101FD000EDD1844206BFDCF80400800000201060D0
:101FE00008BF0CF10800186030BC704704102000D6
:101FF0001DE1D00B1D48006840F470001B490860CB
:102000004FF4B5401A49088080201A49486100BF42
:102010001948406800F480700028F9D11748164923
:10202000086000BF1448406800F480700028F9D1AF
:1020300046F65A10124908600020091D0860081D64
:102040000068104908400E490831086000200C491A
:1020500008600D48006920F030000B49086108460F
:10206000406920F0300048617047000088ED00E0D2
:102070000C480040003004E00000014004005A69B0
:1020800000040140FBFFF8FF001001400021400167
:1020900000F1844001707047808B0840704730B475
:1020A0000125420102F18442AC46157003880C8878
:1020B00023F0C003234303804B690024002B14BF8B
:1020C00082F834C082F834408B69002B14BF82F848
:1020D0002CC082F82C400B69002B08BF82F83C40D2
:1020E0000CD0012B04BF82F83CC082F8384005D0E8
:1020F000022B04BF82F83CC082F838C08A88C280B4
:102100000A7B0B89120202EB03120B8C1A44028128
:102110000288898B22F49F7222F4B052114301800D
:10212000284630BC7047420102F1844292F84433A1
:102130001BB992F88433002BFBD0C181704700009B
:1021400010B501220C211046FFF7CAFC03490448D0
:10215000FFF7A5FF0248FFF799FF10BDF836000012
:102160000010004004490888C0B240F0800000F52B
:10217000B4400880704700000C4800402DE9F0474B
:1021800031F0704216D10917082913D2DFE801F0A7
:10219000120406080A0C0E1002240CE004240AE0C3
:1021A000082408E0102406E0202404E0402402E093
:1021B000802400E001240126DFF8AC902B492C4F4D
:1021C0002C4BF503DFF8B08046F65A124FF4FA3C78
:1021D000062846D2DFE800F003333640431B274889
:1021E00090F800A0BAF1000F0BD0C9F800200A68DF
:1021F00042F001020A603E70007810B1187838B3DE
:1022000022E0D8F80400B0FBF4F0BDE8F0871C48E9
:1022100090F800A0BAF1000F0BD0C9F800200A68AE
:1022200042F002020A603E70007810B1187878B16E
:102230000AE0D8F80000B0FBF4F0BDE8F08742F205
:102240001070F8E7187818B1BCFBF4F0BDE8F0871F
:10225000B5FBF4F0BDE8F087FFF7C0F9EBE70948FC
:10226000E9E70020BDE8F087000401405004014088
:10227000008020423C8620428000002000892042CD
:102280000489204200366E010FB4054B10B503A936
:10229000044A029800F0CCF910BC5DF814FB000071
:1022A0005D320000B80000202DE9F0410C460546E3
:1022B000FFF768FD0646FFF73FFD002C14BF4FF007
:1022C000010C4FF0000CA84218BF344F62D03868A0
:1022D0003968C9B20A2914D2DFE801F0050B1313DB
:1022E0000B0513130B054FF6F07108402C490843FA
:1022F00006E04FF6F071084040F0AD7040F0D0407D
:102300003860002A46D0274991F8A00040B1BCF1BE
:10231000000F01D0641E11D091F8A0000028F6D162
:102320003868C3B2102B1CD00BDC0A2B19D2DFE8A3
:1023300003F0182818181828181818280020BDE8C5
:10234000F081182B0DD006DC112B1AD0142B08D0DD
:10235000152B16D005E0192B13D0202B08BF022314
:1023600000D00023AB42B2D1FFF70CFDB04211D038
:10237000012E08D0BDE8F04102200122002100F02A
:1023800013B80123EEE7BDE8F04101200246002129
:1023900000F00AB80120BDE8F08100000000014013
:1023A00001005A6900002042F0B50D460446FFF7CF
:1023B000E9FC01468C4251D02D4F38682E1CC0B22A
:1023C00018BF0126A14249D03B680A2833D2DFE872
:1023D00000F027143232050D3232050D4FF6F07041
:1023E000184040F0AD7040F0D04023E04FF6F07060
:1023F00003EA00011F4808431CE0012C02D0022C14
:1024000007D018E04FF6F0701B49184008433860B9
:1024100011E04FF6F07019491840084338600AE09F
:10242000012C02D0022C1BD005E04FF6F0701840B2
:10243000134919E038608AB1124890F8A01031B100
:102440000EB16D1E12D090F8A0100029F8D1FFF740
:1024500099FC01463868A142C0B2B5D10120F0BD57
:102460004FF6F070084918400843E3E70020F0BD3C
:102470000000014001005A6905005A6909005A69C3
:1024800004005A690000204208005A6902E008C8A6
:10249000121F08C1002AFAD170477047002001E0DE
:1024A00001C1121F002AFBD1704700002DE9FF5F18
:1024B00082B00021DDE90430020DDDF840B00343B5
:1024C00018D044F61050A2F2FF324243151411986E
:1024D00001281FD0A5EB0B00401C5FEA000A4FF05B
:1024E00000064E4FDFF83891B046504615D5CAF178
:1024F000000413E0119801244AA3012801D16FEAD6
:102500000B010298119AC0E90031C0E9024206B0FD
:10251000BDE8F09FCBF10000DFE704460021404A10
:10252000491842EB0450CDE9001012E0E00707D053
:1025300032463B4640464946FEF708FA8046894601
:1025400032463B4610461946FEF700FA06460F464D
:102550006410002CEAD1DDE90401DDE90023BAF1C1
:10256000000F06DAFEF7F2F942464B46FEF7EEF9A7
:1025700005E0FEF75DFA42464B46FEF759FA04467F
:102580000E460022284BFEF7CBFC03D84FF0FF305D
:10259000014607E00022254B20463146FEF701FCAC
:1025A000FEF7A6FC102409E0002C0ADB0A22002317
:1025B000FEF722FB039B30321A55641E50EA0102DB
:1025C000F2D1641C039AC4F111031444119A012A34
:1025D00003D0012208430DD10AE0084304D00020B3
:1025E0004FF0110B119072E7A3EB0B056D1E0DE080
:1025F0005B4504DD4FF0000205F1010504E003DA5C
:102600004FF00002A5F10105002AECD002981199C3
:10261000C0E90231C0E9004579E70000000014403C
:102620000000F03F300000000000F0430000E03FF9
:102630002DE9FF4F95B09B468946064600250FE2DF
:10264000252877D100242746F84A0121059400E087
:10265000044316F8013F203B01FA03F01042F7D182
:1026600030782A2811D06FF02F033078A0F1300293
:10267000092A16D8059A44F0020402EB820203EB01
:1026800042021044761C0590EFE759F8042B05929E
:10269000002A03DA504244F40054059044F0020446
:1026A000761C30782E2816D116F8010F44F0040459
:1026B0002A280DD06FF02F023078A0F13003092BBB
:1026C00009D807EB870302EB4303C718761CF3E72F
:1026D00059F8047B761C30786C280FD006DC4C2827
:1026E00017D068280DD06A2814D104E0742810D0BF
:1026F0007A280FD10DE044F400140AE044F4801469
:1027000001E044F440147278824202D104F580144E
:10271000761C761C307866280BD013DC582877D0CE
:1027200009DC002875D04528F6D04628F4D0472883
:102730001AD19DE118E0632835D0642879D0652846
:1027400012D195E1702873D008DC6728F1D0692890
:102750006FD06E280DD06F2806D1B5E073282CD02D
:10276000752875D0782874D05A46179990476D1CF3
:1027700075E1C4F30250022809D003280DD0D9F81E
:10278000001004280DD00D6009F1040967E1D9F8A3
:102790000010EA17C1E90052F6E7D9F800100D80E1
:1027A000F2E70D70F0E719F8041B8DF80010002017
:1027B0008DF80100EA46012003E059F804AB4FF020
:1027C000FF3061074FF0000102D40DE008F1010174
:1027D0008846B9420FDA8045F8DB1AF8081000295C
:1027E000F4D108E008F1010188468142FADB1AF8C9
:1027F00008100029F6D105985B46A0EB0807214692
:102800003846179A00F094FA284400EB080507E0D0
:102810004DE029E10DE01AF8010B5A46179990474F
:10282000B8F10108F7D25B4621463846179A13E102
:1028300042E00A220092C4F302524FF0000A022A38
:1028400008D059F804CB032A4FEAEC710AD00DE006
:1028500029E02AE009F1070121F00702F2E802C1AC
:10286000914609E00FFA8CFC4FEAEC71042A03D17F
:102870004FFA8CFC4FEAEC71002907DA0A46002176
:10288000DCF1000C61EB02012D2202E0220504D5EF
:102890002B228DF80420012203E0E20701D0202240
:1028A000F7E7904659E00A2102E010220DE01021DE
:1028B0004FF0000A00910BE010224FF0000A44F0A4
:1028C00004040827009203E008224FF0000A009257
:1028D000C4F30252022A05D059F804CB0021032A7E
:1028E00008D009E009F1070121F00702F2E802C16E
:1028F000914605E01FFA8CFC042A01D10CF0FF0C74
:102900004FF00008220728D5702806D0009B83F0DE
:10291000100353EA0A0305D00EE040228DF804208C
:10292000012208E05CEA010206D030228DF8042082
:102930008DF8050002229046009B83F0080353EABD
:102940000A030AD15CEA010201D1620705D53022EF
:102950008DF804204FF001087F1E582804D034A0C1
:1029600003900EA802900DE036A0F9E753466046AA
:10297000009AFEF741F984460398825C0298401E53
:10298000029002705CEA0100F0D1029806A9081AD0
:1029900000F1200A600702D524F4803400E001270A
:1029A000574502DDA7EB0A0000E0002000EB0A011A
:1029B000009005984144401A0590E00306D45B4618
:1029C0002146179A059800F0B3F90544002706E060
:1029D00001A85A46C05D179990476D1C7F1C47455A
:1029E000F6DBE0030CD55B462146179A059800F00C
:1029F0009FF9054404E030205A46179990476D1C12
:102A00000099481E00900029F5DC08E00298029920
:102A10005A460078491C0291179990476D1CBAF1EB
:102A20000001AAF1010AF1DC65E1000009280100BA
:102A30003031323334353637383961626364656634
:102A400000000000303132333435363738394142F6
:102A5000434445460000000000F058F90544761C48
:102A6000307800287FF4ECAD19B02846BDE8F08F2F
:102A7000620700D4062709F1070222F0070CFCE8E0
:102A80000223E14603F000485FEA080C02D00FF28F
:102A9000702C0DE05FEA045C02D50FF2682C07E0B1
:102AA0005FEAC47C02D00FF2602C01E0AFF2700C40
:102AB0004FF0FF3823F00043CDF850C065280CD00C
:102AC00006DC452809D046281DD047283DD13DE0E9
:102AD000662818D067287ED138E00021112F01DB4D
:102AE000112000E0781CCDE9000106A90EA8FFF72F
:102AF000DDFCDDE90F010E9A03910021009207F140
:102B0000010A04914DE04FF000400097CDE901101B
:102B100006A90EA8FFF7CAFCDDE90F0203920E9B7F
:102B200011990022DDF80CA00093049211B9791CD0
:102B300000EB010AB7EB0A0004D4C0F1FF3007F143
:102B4000010A0490AAEB0700019044E0012F00DA8B
:102B500001270021112F01DD112000E03846CDE9C9
:102B6000000106A90EA8FFF7A1FCDDE90F010E9AEE
:102B70000391002104910092BA4621070CD40399D5
:102B8000514500DA8A46BAF1010F05DD009AAAF133
:102B90000101515C302908D0B84202DA10F1040F6B
:102BA00006DA0121CDE9011015E0AAF10101E9E7FA
:102BB000002805DC049901440491AAEB000102E01D
:102BC000411C514500DD8A460499401A401C019081
:102BD0004FF000400290200704D40198504501DBDB
:102BE000CDF8048000208DF84F0002980DF14F07BA
:102BF000B0F1004F25D02B200E9002984FF0020824
:102C000000280CDA404202902D200E9007E00A21A5
:102C10000298FDF7DBFF3031029007F8011DB8F193
:102C20000001A8F10108F2DC02980028EFD1791E1A
:102C30000E980870307800F0200040F0450007F84A
:102C4000020D12A8C01B00F107081498007800B10B
:102C5000012000EB0A01019801EBE0710598414465
:102C6000401A401E0590E00306D45B462146179AA1
:102C7000059800F05DF805441498007818B15A469C
:102C8000179990476D1CE00324D55B462146179A9F
:102C9000059800F04DF805441CE00498002807DB77
:102CA000DDE90301884203DD0098405C179901E0EB
:102CB000179930205A469047049805F10105401CA9
:102CC00004900198401E019004D12E205A46179975
:102CD00090476D1CBAF10001AAF1010ADDDC05E0A4
:102CE00017F8010B5A46179990476D1CB8F100016F
:102CF000A8F10108F4DC5B462146179A0598ABE67B
:102D00002D0000002B000000200000002DE9F04104
:102D1000044600251E461746880404D405E03946BB
:102D20002020B0476D1C641EF9D52846BDE8F0810F
:102D30002DE9F041044600251E469046C80301D502
:102D4000302700E02027880404D505E041463846B6
:102D5000B0476D1C641EF9D52846BDE8F08100001F
:102D600008B505480068054B054A1D210090054837
:102D7000FDF7B1FC08BD0000740000208054002065
:102D8000B8370000685500202DE9F04104460D4693
:102D900026462F4604483A46314603680348FDF765
:102DA00001FABDE8F08100007400002068550020A1
:102DB0002DE9F0412DED068B04460F463D46A81E39
:102DC00007287DD2DFE800F004255289C8FDFC0009
:102DD000691E54F82120A91E54F82110501AFDF73D
:102DE00096FE41EC1A0B53EC1A2B9FEDE40B51ECC1
:102DF000100BFDF71DFE41EC190B9FEDE20B53ECA0
:102E0000102BFDF7A3FD41EC180BFDF791FE0646D4
:102E1000ADE1681E54F82010A81E54F82000091ACD
:102E2000A81E54F82020E81E54F82000101A01EBC8
:102E3000000808EBD8714810FDF769FE41EC1A0B49
:102E400053EC1A2B9FEDCD0B51EC100BFDF7F0FD61
:102E500041EC190B9FEDCB0B53EC102BFDF776FDDE
:102E600041EC180BFDF764FE064680E1681E54F83D
:102E70002010A81E54F82000091AA81E54F820207B
:102E8000E81E54F82000101A0144E81E54F82020CF
:102E9000281F54F82000101A0844032190FBF1F871
:102EA0004046FDF734FE41EC1A0B53EC1A2B9FED14
:102EB000B30B51EC100BFDF7BBFD41EC190B00E01F
:102EC00034E19FEDB00B53EC102BFDF73FFD41ECCF
:102ED000180BFDF72DFE064649E1681E54F8201038
:102EE000A81E54F82000091AA81E54F82020E81E35
:102EF00054F82000101A0144E81E54F82020281F1E
:102F000054F82000101A0144281F54F82020681F8C
:102F100054F82000101A01EB00084FEAE87108EBA2
:102F200091718810FDF7F3FD41EC1A0B53EC1A2B4D
:102F30009FED920B51EC100BFDF77AFD41EC190B54
:102F40009FED900B53EC102BFDF700FD41EC180B9F
:102F5000FDF7EEFD06460AE1681E54F82010A81E93
:102F600054F82000091AA81E54F82020E81E54F82E
:102F70002000101A0144E81E54F82020281F54F89D
:102F80002000101A0144281F54F82020681F54F80C
:102F90002000101A0144681F54F82020A81F54F87C
:102FA0002000101A0844052190FBF1F84046FDF777
:102FB000AEFD41EC1A0B53EC1A2B9FED700B01E0A8
:102FC0005FE011E051EC100BFDF732FD41EC190B05
:102FD0009FED6C0B53EC102BFDF7B8FC41EC180B7C
:102FE000FDF7A6FD0646C2E0681E54F82010A81E94
:102FF00054F82000091AA81E54F82020E81E54F89E
:103000002000101A0144E81E54F82020281F54F80C
:103010002000101A0144281F54F82020681F54F87B
:103020002000101A0144681F54F82020A81F54F8EB
:103030002000101A0144A81F54F82020E81F54F85B
:103040002000101A0844062190FBF1F84046FDF7D5
:103050005EFD41EC1A0B53EC1A2B9FED480B51EC23
:10306000100BFDF7E5FC41EC190B9FED460B53EC03
:10307000102BFDF76BFC41EC180BFDF759FD0646D4
:1030800075E0681E54F82010A81E54F82000091A94
:10309000A81E54F82020E81E54F82000101A0144FD
:1030A000E81E54F82020281F54F82000101A01446C
:1030B000281F54F82020681F54F82000101A0144DB
:1030C000681F54F82020A81F54F82000101A01444B
:1030D000A81F54F82020E81F54F82000101A0144BB
:1030E000E81F54F82020401E54F82000101A08440D
:1030F000072190FBF1F84046FDF709FD41EC1A0B62
:1031000053EC1A2B9FED1D0B51EC100BFDF790FCAF
:1031100041EC190B9FED1B0B53EC102BFDF716FC2C
:1031200041EC180BFDF704FD064620E0691E54F83B
:103130002120A91E54F82110501AFDF7E8FC41EC9B
:103140001A0B53EC1A2B9FED0D0B51EC100BFDF7E6
:103150006FFC41EC190B9FED0D0B53EC102BFDF7A1
:10316000F5FB41EC180BFDF7E3FC064600BF00BF82
:103170003046BDEC068BBDE8F08100000000000089
:1031800000004E400000000000406F4000000000C2
:10319000004075400849B0FBF1F1084A1170114632
:1031A000097801EB4102C2EBC1114FF6FF7202EA4E
:1031B000C101034A1180704740420F007000002097
:1031C000720000200146114A12884A434FF0E02362
:1031D0005A6100229A611A46126942F005021A6188
:1031E00000BF4FF0E022106900F001021AB100F4B4
:1031F0008032002AF5D04FF0E022126922F001025D
:103200004FF0E0231A6100229A617047720000209B
:103210000146114A12784A434FF0E0235A610022D6
:103220009A611A46126942F005021A6100BF4FF016
:10323000E022106900F001021AB100F48032002A85
:10324000F5D04FF0E022126922F001024FF0E023A6
:103250001A6100229A6170477000002070B5044620
:103260000D46E1B20848FEF75EFF00BF02210648A6
:10327000FEF712FF0028F9D00348808B40F00200CF
:1032800001498883204670BD001000400649097836
:10329000064A11700449097A51700349C97991703D
:1032A0001146086870470000745400206400002034
:1032B00001460846000200127047A0F18041B1F5B6
:1032C00080511CBFA0F18041B1F5A0510AD0A0F1FE
:1032D0008041B1F5C0511FBFA0F18041B1F5E0516F
:1032E00000207047012070472DED028B84B000BF95
:1032F000FEF738FFFEF7D8FCFEF722FFFEF75CFB77
:10330000FEF778FBFEF772FDFEF720FA0446FFF7A2
:1033100041FFFDF750FEFFF723FD02E07BA0FEF723
:10332000B3FF0020FEF7FEFD0028F7D17DA0FEF7D9
:10333000ABFF40210320FEF789FB7F497F48FEF762
:103340002BFC7F4A7F497D48FEF7F6F8DDE07E489A
:1033500000780028FAD07D48C07800047B490979BC
:1033600040EA01207949497908430190FFF78EFF2F
:1033700000EE100AB8EEC00A8DED030A704890ED19
:10338000000ADDED030A6F4890ED001A00EE810A95
:103390006F4880ED000A90ED000A6E486E4909887A
:1033A00000EB810080ED000A6B480088401C6A49F0
:1033B00008800846008813287ED1122008806749BB
:1033C0006448FFF7E1FC66480068B0B9634890EDD7
:1033D000000A64486449098800EB810080ED000A16
:1033E00061480088401C60490880084600887D28A4
:1033F0007CD101205A49086078E0594800680128CA
:1034000074D17C2259495748001DFDF74BFA5348A7
:1034100090ED000A554880ED7C0A7D22114600F0AF
:103420002BF9534880ED000A4C4890ED000A5048B3
:10343000D0ED000A30EE600ADFED4E0A30EE200AD1
:10344000BDEEC00A10EE100A4B494C4A128841F8F2
:1034500022004A480088401C4849088008460088E5
:10346000B0F5167F21DD002008808C204FF47A73A0
:10347000414A43490090434800F098F840480168A9
:103480004048FFF795FC00EE100AB8EEC00A3E482F
:1034900080ED000A90ED000ABDEEC00A10EE101A91
:1034A0003AA0FEF7F1FE00F011F92C4890ED000A69
:1034B0002F48D0ED000A00E023E030EE600ADFED97
:1034C0002D0A30EE200A10EE101A0846FDF74FFBC9
:1034D00041EC180B53EC182B2FA0FEF7D5FE00F093
:1034E000F5F87D221F492148FDF7DCF912222E490B
:1034F0001848001DFDF7D6F9122216492A48FDF793
:10350000D1F900201049087000BF20E7313239326C
:10351000BCC4B4E6C6F7C9E8D6C3CAA7B0DC0D0A76
:1035200000000000BCC4B4E6C6F7C9E8D6C3B3C9FE
:10353000B9A60D0A00000000FC1F0020BC000020FE
:103540000C000020040000205300002074540020D0
:1035500024000020184F002028000020F04F0020F9
:103560000000002080500020300000207452002015
:10357000180000200000C8423C3F00202A00002024
:1035800020000020DC4E00201C0000206E302E7633
:10359000616C3D256400000061646420322C302C95
:1035A00025302E6600000000A84F0020F0B505462B
:1035B0001C46059E012000270F6030E052F8207065
:1035C000B7422BDD52F820C0471E52F82770BC4589
:1035D00024DD012300E05B1CC718A74207DA52F87C
:1035E000207000EB030C52F82CC06745F3D052F862
:1035F000207000EB030C52F82CC067450CDD0F68FF
:103600000F2F09DAD1F800C00CF101070F6045F85F
:103610002C005F1C384402E0184400E0401C671E88
:103620008742CBDCF0BD10B50B46012220E000EB59
:10363000820494ED000A114609E04C1E00EB84045C
:10364000D4ED000A00EB8104C4ED000A491E0029F4
:1036500009DD4C1E00EB8404D4ED000AF4EEC00A30
:10366000F1EE10FAE9DC00EB810484ED000A521C53
:103670009A42DCDB10BD00002DE9F0412DED028BFC
:1036800006460C461746B046002513E008EB8500B9
:103690003A460D49FDF706F921460B48FFF7C3FFEF
:1036A000601C00EBD0714910074A02EB810191EDDB
:1036B000008A6D1CE01B401CA842E7DCB0EE480A03
:1036C000BDEC028BBDE8F0817455002010B50848B0
:1036D00001780848FEF727FD054801780548FEF700
:1036E00022FD034801780348FEF71DFD10BD0000D0
:1036F000780000200010004080000000060000005C
:1037000008000000000000000000000000000000B1
:1037100000000000000000000100000000000000A8
:1037200080000000001BB70000093D0000200000E1
:103730000000000000000000000000001D0000006C
:10374000484D9A3B3EE0B33B5C01FB3B5222373C89
:10375000B363823CB090B13C14E6E63CE4E20F3D3A
:10376000D3A52C3D383C483D812F613D7928763DDD
:10377000F501833D17F2873D549F893D17F2873D40
:10378000F501833D7928763D812F613D383C483DE8
:10379000D3A52C3DE4E20F3D14E6E63CB090B13CED
:1037A000B363823C5222373C5C01FB3B3EE0B33BBF
:1037B000484D9A3B1D0000001274C53AB672123B88
:1037C00076AA313B9C15EB3A28FA02BBF95A14BC95
:1037D000B0548DBC6BF8B0BC71DD7FBC56D0C03B23
:1037E00028F9323DC666BD3D25EB103E8D3E363E86
:1037F000520B443E8D3E363E25EB103EC666BD3D27
:1038000028F9323D56D0C03B71DD7FBC6BF8B0BCAF
:10381000B0548DBCF95A14BC28FA02BB9C15EB3A83
:1038200076AA313BB672123B1274C53A00E100E051
:1038300004E100E080E100E084E100E000E200E07B
:1038400004E200E080E200E084E200E00007000023
:103850000006000000050000000400000003000056
:103860000002000000010000000000000000000055
:1038700018ED00E01CED00E020ED00E000E400E0C9
:1038800004E400E008E400E00CE400E010E400E000
:1038900014E400E018E400E01CE400E020E400E0B0
:1038A00024E400E028E400E02CE400E030E400E060
:1038B00034E400E038E400E03CE400E0DC38000000
:1038C00000000020BC0000008C240000983900009B
:1038D000BC000020AC5800009C2400000000000048
:1038E00000000000000000000000000000000000D8
:1038F00000000000000000000000000000000000C8
:1039000000000000000000000000000000000000B7
:10391000010101000000000200000000010001019F
:10392000000000000101000001010D000000010085
:103930000000000000000000000000000000000087
:103940000000000000000000000000000000000077
:1039500001000000FFFFFF00000000000000000069
:103960000000000000000000004C0040014C00403E
:10397000204C0040214C0040404C0040414C004055
:10398000604C0040614C0040804C0040814C004045
:08399000204D00400000000082
:040000050000018175
:00000001FF
