:020000040000FA
:10000000400200205901000061010000630100006E
:1000100065010000670100006901000000000000A8
:100020000000000000000000000000006B01000064
:100030006D010000000000006F0100007101000070
:1000400073010000730100007301000073010000E0
:1000500073010000730100007301000073010000D0
:1000600073010000730100007301000073010000C0
:1000700073010000730100007301000073010000B0
:1000800073010000730100007301000073010000A0
:100090007301000073010000730100007301000090
:1000A0007301000073010000730100007301000080
:1000B0007301000073010000730100007301000070
:1000C0007301000073010000730100007301000060
:1000D0007301000073010000730100007301000050
:1000E000730100000000000000000000000000009C
:1000F0000000000000000000000000000000000000
:1001000000000000000000000000000000000000EF
:1001100000000000000000000000000000000000DF
:1001200000000000000000000000000000000000CF
:1001300000000000000000000000000000000000BF
:1001400000000000DFF80CD000F02EF80048004757
:10015000AD0E0000400200200648804706480047D8
:10016000FEE7FEE7FEE7FEE7FEE7FEE7FEE7FEE767
:10017000FEE7FEE7310800004501000030B50B4600
:10018000014600202022012409E021FA02F59D42C7
:1001900005D303FA02F5491B04FA02F52844151E9B
:1001A000A2F10102F1DC30BD064C074D06E0E0682B
:1001B00040F0010394E8070098471034AC42F6D3AE
:1001C000FFF7C4FF240F0000440F000070B5524E2B
:1001D00082B03068514D00F4E020B0F5403F08BFD8
:1001E0004F4C1AD00EDC002808BF4E4C15D0B0F58D
:1001F000803F08BF4C4C10D0B0F5003F08BF4B4CBF
:100200000BD009E0B0F5802F08BF494C05D0B0F500
:10021000A02F08BF2C4600D000246B4601AA002165
:10022000032000F0DDFA0198002850D0414B1869F6
:100230004228306842D9C0F3090111F4007F18BF89
:1002400041F47E4000D001B2B9B33B48AC4241D149
:100250001A69422A3ED990F8D8000028009819BFA0
:1002600090ED0F0A426A90ED070A4268186901EEA4
:10027000101A4228C2F54070B8EEC11AB7EE002A33
:10028000F0EE420A60EE011A01EE100AB8EEC11A51
:1002900040EE010A2AD902B081EEA00AF0EE420A2D
:1002A00070EEC00A00EE104AB8EE400A80EE201A46
:1002B000BCEEC10A10EE100A70BD08E0C0F30C01DC
:1002C00011F4805F18BF41F47040BCD1BCE702B0AC
:1002D000204670BD90F8D8000028009819BF90ED16
:1002E0000E0A026A90ED060A0268BFE7B2EE000A43
:1002F00002B020EE801AF0EE420A81EE810A70EE22
:10030000C00A00EE104AB8EE400A80EE201ABCEE99
:10031000C10A10EE100A70BD04040140006CDC023A
:10032000001BB70060E31600C0C62D00808D5B0087
:1003300000366E0100102000008020420449086849
:10034000096800F0070001F4E021090300F028BB70
:1003500008040140044908680968C0F3021001F06C
:10036000E04100F01DBB000008040140DFF8DCC0E4
:1003700030B446F65A13CCF80030354D354BDFF823
:10038000D8C0012404283DD007DC012808BF334829
:100390000BD0334B022817D053E0324B082821D022
:1003A0001A1DB0F1805F3CD04BE00378002BFCD0ED
:1003B000120942EA01212A6822F00722114329602A
:1003C00001780029FCD03CE018780028FCD041EAF4
:1003D0001230296821F00711084328601878002896
:1003E000FCD02EE018780028FCD042EA01102968E1
:1003F00021F0700121F0E0410843286018780028BE
:10040000FCD01EE018780028FCD0100A40EA011049
:10041000296821F070110843286018780028FCD062
:100420000FE010780028FCD0002904BF00208CF8D1
:10043000300103D0022908BF8CF830411078002821
:10044000FCD08CF8004030BC704700000004014034
:1004500008040140E886204200802042E0862042D5
:10046000E4862042EC862042014AC2E9001070472F
:1004700004000020002100F001B800002DE9F04741
:100480000C464049064646F65A10086000F0A2F9AC
:1004900000F00107012000F08DF93B4802683B485D
:1004A000A2F57421A1F51071814228D9384811189C
:1004B0003848814298BF4FF4801221D9364811182C
:1004C0003648814298BF4FF4001219D9344911447B
:1004D000814298BF4FF4401212D9324911448142EF
:1004E00098BF4FF480020BD92F491144814203D9A0
:1004F0002E491144814202D84FF4A00200E00022AC
:10050000002C14BF012500250121294B83F8C011BF
:100510002848D0F800C02CF4E00C4CEA020CC0F8DB
:1005200000C04FF00008002E14BF83F8E41183F8D8
:10053000E48183F8E011DFF880C09CF80000002817
:1005400018BF1E4808D00DB1641E05D001709CF87C
:100550000090B9F1000FF6D166B11970384600F07D
:1005600031F925B1002C04BF0020BDE8F08701203F
:10057000BDE8F087002A14BF83F8C01183F8C0815A
:10058000EBE700000004014004000020C0C62D007D
:10059000FFF6C2FFFF083D00FFED85FFFF117A0067
:1005A000FFDB0BFFFFC991FEFFB717FEFFA59DFD07
:1005B000008020420C04014004892042048A204229
:1005C0000248016841F470010160704788ED00E065
:1005D000094A48B1012818BF7047506920F470409B
:1005E00040EA013050617047106920F4704040EAE1
:1005F000013010617047000000100140064A52F8B7
:10060000200042898A43428182898A43828182888A
:1006100011438180704700000C000020104B53F8FC
:10062000200083888B438380012A0BD0022A10D0BC
:10063000032A18BF704742890A43428182891143C5
:100640008181704742890A434281828922EA0101FD
:10065000F6E742898A43428182891143818170474A
:100660000C000020104B53F8200083880B4383803C
:10067000012A0BD0022A10D0032A18BF70474289E2
:100680000A434281828911438181704742890A432A
:100690004281828922EA0101F6E742898A43428146
:1006A00082891143818170470C000020034A52F86F
:1006B0002000428851404180704700000C0000201B
:1006C00010B5012218210B20FFF7CCFF01220321D6
:1006D0000B20FFF7C7FF10494FF40040FFF7C4FE9F
:1006E000012000F063F801210020FFF771FF0121D4
:1006F0000846FFF76DFF0020FFF7BCFE4FF0804279
:1007000005210220FFF732FE0521BDE810404FF021
:1007100000520820FFF72ABE006CDC021148006876
:10072000C0B2102819D008DC0A2816D2DFE800F081
:100730001517151515171515151718280DD006DCE2
:1007400011280CD0142808D0152808D005E0192845
:1007500005D0202804BF02207047002070470120E8
:1007600070470000000001400F480068C0B2102828
:1007700017D008DC0A2814D2DFE800F01313131393
:100780000F0F13131111113809280AD2DFE800F0F6
:10079000090909050509090707000120704702201A
:1007A0007047002070470000000001400122002136
:1007B00000F08CB902494A6822EA0000486070479C
:1007C000003004E002494A68104348607047000066
:1007D000003004E00148406870470000003004E049
:1007E00030B4DFF844C0114D0BE0844203D100293E
:1007F00018BF491E0BD0DCF804400CEB840C0CF144
:10080000080CDCF80040844218BFAC42EDD18442B1
:1008100006BFDCF8040080000020106008BF0CF167
:100820000800186030BC7047041020001DE1D00B98
:10083000164810B5016841F47001016014494FF485
:10084000B540088013498020486113484168C905B4
:10085000FCD4124901604168C905FCD4104846F631
:100860005A1101600021021D1160121D13680D4C08
:100870002340136001600C48016921F030010161DF
:10088000416921F03001416110BD000088ED00E0B8
:100890000C480040003004E00000014004005A69A8
:1008A00000040140FBFFF8FF00100140002140015F
:1008B00000F1844001707047808B0840704730B46D
:1008C0000125420102F18442AC46157003880C8870
:1008D00023F0C003234303804B690024002B14BF83
:1008E00082F834C082F834408B69002B14BF82F840
:1008F0002CC082F82C400B69002B08BF82F83C40CA
:100900000CD0012B04BF82F83CC082F8384005D0DF
:10091000022B04BF82F83CC082F838C08A88C280AB
:100920000A7B0B89120202EB03120B8C1A44028120
:100930000288898B22F49F7222F4B0521143018005
:10094000284630BC7047420102F1844292F8443399
:100950001BB992F88433002BFBD0C1817047000093
:1009600010B501220C211046FFF758FE054C044932
:100970002046FFF7A4FF2046BDE81040FFF796BFD2
:10098000FC0E00000010004004490888C0B240F08E
:10099000800000F5B4400880704700000C4800401B
:1009A0002DE9F04731F0704216D10917082913D20A
:1009B000DFE801F0120406080A0C0E1002240CE015
:1009C00004240AE0082408E0102406E0202404E0BF
:1009D000402402E0802400E001240126DFF8AC90EE
:1009E0002B492C4F2C4BF503DFF8B08046F65A12FA
:1009F0004FF4FA3C062846D2DFE800F003333640D5
:100A0000431B274890F800A0BAF1000F0BD0C9F89B
:100A100000200A6842F001020A603E70007810B1BE
:100A2000187838B322E0D8F80400B0FBF4F0BDE841
:100A3000F0871C4890F800A0BAF1000F0BD0C9F85D
:100A400000200A6842F002020A603E70007810B18D
:100A5000187878B10AE0D8F80000B0FBF4F0BDE8EF
:100A6000F08742F21070F8E7187818B1BCFBF4F088
:100A7000BDE8F087B5FBF4F0BDE8F087FFF7A6FB13
:100A8000EBE70948E9E70020BDE8F08700040140F2
:100A900050040140008020423C8620420400002097
:100AA000008920420489204200366E010FB4054BB4
:100AB00010B503A9044A029800F00AF910BC5DF8C9
:100AC00014FB0000810E00003C0000202DE9F041E5
:100AD0000C460546FFF748FE0646FFF71FFE002CB2
:100AE00014BF4FF0010C4FF0000CA84218BF344F58
:100AF00062D038683968C9B20A2914D2DFE801F037
:100B0000050B13130B0513130B054FF6F07108407B
:100B10002C49084306E04FF6F071084040F0AD70F4
:100B200040F0D0403860002A46D0274991F8A00014
:100B300040B1BCF1000F01D0641E11D091F8A000AB
:100B40000028F6D13868C3B2102B1CD00BDC0A2B5E
:100B500019D2DFE803F018281818182818181828D0
:100B60000020BDE8F081182B0DD006DC112B1AD027
:100B7000142B08D0152B16D005E0192B13D0202BE1
:100B800008BF022300D00023AB42B2D1FFF7ECFD37
:100B9000B04211D0012E08D0BDE8F0410220012260
:100BA000002100F013B80123EEE7BDE8F041012079
:100BB0000246002100F00AB80120BDE8F0810000E3
:100BC0000000014001005A6900002042F0B50D46C6
:100BD0000446FFF7C9FD01468C4251D02D4F3868BD
:100BE0002E1CC0B218BF0126A14249D03B680A287A
:100BF00033D2DFE800F027143232050D3232050D12
:100C00004FF6F070184040F0AD7040F0D04023E057
:100C10004FF6F07003EA00011F4808431CE0012C66
:100C200002D0022C07D018E04FF6F0701B49184094
:100C30000843386011E04FF6F07019491840084336
:100C400038600AE0012C02D0022C1BD005E04FF6E0
:100C5000F0701840134919E038608AB1124890F8D2
:100C6000A01031B10EB16D1E12D090F8A010002965
:100C7000F8D1FFF779FD01463868A142C0B2B5D17D
:100C80000120F0BD4FF6F070084918400843E3E733
:100C90000020F0BD0000014001005A6905005A69BA
:100CA00009005A6904005A690000204208005A6984
:100CB00002E008C8121F08C1002AFAD17047704725
:100CC000002001E001C1121F002AFBD17047000083
:100CD0002DE9FF4F89B09B460446002506E02528F4
:100CE0000BD05A460B999047641C6D1C2078002845
:100CF000F5D10DB02846BDE8F08F0027B846012297
:100D0000474900E0074314F8013F203B02FA03F093
:100D10000842F7D120782E2819D114F8010F47F096
:100D200004072A280ED06FF02F022078A0F130019E
:100D300009290CD808EB880102EB410100EB0108FE
:100D4000641CF2E70A98641C50F8048B0A9020781F
:100D50000028CED0642808D0692806D075281ED077
:100D60005A460B9990476D1C58E00A994FF00A09B2
:100D700001C90A91002802DA40422D2102E039051A
:100D800004D52B218DF82010012103E0F90704D0B0
:100D90002021F7E78A4608AE0DE00021FAE70A991C
:100DA0004FF00A0901C90A91F7E74946FFF7E6F94A
:100DB000303106F8011D0028F7D1ADEB060000F137
:100DC0002009780701D44FF00108C84502DDA8EBDF
:100DD000090000E000208046002706E008A85A46E7
:100DE000C05D0B9990476D1C7F1C5745F6DB04E0F6
:100DF00030205A460B9990476D1CB8F10001A8F1BC
:100E00000108F5DC05E016F8010B5A460B999047EE
:100E10006D1CB9F10001A9F10109F4DC641C65E75E
:100E2000092801000749B0FBF1F0C1B2064801EB07
:100E300041020170C2EBC1114FF6FF7202EAC1011B
:100E40004180704740420F00000000200B49498854
:100E500048434FF0E021486100228A61086940F070
:100E6000050008610869C30701D0C003FAD5086905
:100E700020F0010008618A61704700000000002036
:100E800070B5094C0546C1B22046FFF75CFD022152
:100E90002046FFF711FD0028F9D0A08B40F002009A
:100EA000A083284670BD00000010004008B5FFF781
:100EB0006BFDFFF705FCFFF753FDFFF781FB0121F9
:100EC0000846FFF79BFBFFF739FAFFF7ABFF4FF43C
:100ED0007A742046FFF7BAFFFFF73CFA0121009031
:100EE0000846FFF7E3FB02A00099FFF7DFFDF0E7FC
:100EF000534D434C4B3D2564000000008000000032
:100F00004E00000002000000000000000000000091
:100F100000000000000000000000000001000000D0
:100F200000000000440F000000000020400000000E
:100F3000B00C0000840F0000400000200002000000
:100F4000C00C0000000000000000000000000000D5
:100F500000000000004C0040014C0040204C0040CC
:100F6000214C0040404C0040414C0040604C00404F
:100F7000614C0040804C0040814C0040204D0040BE
:040F8000000000006D
:04000005000001599D
:00000001FF
